:020000040000FA
:1000000000300020A1020000333B0000AB020000E2
:1000100000000000000000000000000000000000E0
:10002000000000000000000000000000AD02000021
:100030000000000000000000AF020000B10200005C
:10004000B3020000B3020000B3020000B3020000DC
:10005000B3020000B3020000B3020000B3020000CC
:10006000B3020000B3020000B3020000B3020000BC
:10007000B3020000B3020000B3020000B3020000AC
:10008000B3020000B3020000B3020000B30200009C
:10009000B3020000B3020000B3020000B30200008C
:1000A000B3020000B3020000B3020000B30200007C
:1000B000B3020000B3020000B3020000B30200006C
:1000C00000F002F800F0C3F80CA030C8083824187B
:1000D0002D18A246671EAB4654465D46AC4201D180
:1000E00000F0B5F87E460F3E0FCCB64601263342EF
:1000F00000D0FB1AA246AB4633431847807B000072
:10010000A07B0000103A02D378C878C1FAD8520711
:1001100001D330C830C101D504680C6070470000BD
:100120000023002400250026103A01D378C1FBD813
:10013000520700D330C100D50B60704710B56E294F
:1001400002D101F0BBFD10BD702902D100F0D5F93C
:1001500010BD662902D106F019FD10BD652902D136
:1001600006F014FD10BD672902D106F00FFD10BD89
:10017000612902D106F012FD10BD03681B0A01D3EC
:1001800080231943692902D100F042F910BD642986
:1001900002D100F03DF910BD752902D100F038F907
:1001A00010BD6F2902D101F073FE10BD782902D174
:1001B00000F090F910BDE92902D101F00FFE10BD49
:1001C000E42902D101F00AFE10BDF52902D101F0A7
:1001D00005FE10BDEF2902D101F066FE10BDF82921
:1001E00002D100F085F910BD0368DB0901D380233B
:1001F0001943632902D102F08CFD10BD732902D18D
:1002000002F08FFD10BDE32902D102F099FD10BD6F
:10021000F32902D102F09CFD10BD002010BD1FB5D6
:100220000098019901F051FC03F06AF804000020E5
:10023000002106F0D1FA401C60600020002106F089
:10024000B5FAE06001F09CFF00F080FD1FBD04F0F6
:1002500089FC114603B404F094FC03BCFFF7DFFFF4
:1002600003F05EFC04F0F2FE70B505460C4616463F
:1002700002E00FCC0FC5103E102EFAD2082E02D38A
:1002800003CC03C5083E042E07D301CC01C5361F9D
:1002900003E021782970641C6D1C761EF9D270BDB4
:1002A0000448804704480047FEE7FEE7FEE7FEE714
:1002B000FEE7FEE7793B0000C100000070B506468E
:1002C00001F0E8FB056830460B30C408E400B44296
:1002D00001D8002070BD68682A46002818D001683F
:1002E000A14211D30B46214608318B4208D3436803
:1002F00001194B6003681B1B0B605160046001E037
:1003000041685160001D70BD024640680028E6D17A
:100310002146284601F0C4FB0028DCD170BD70B531
:100320000446051F01F0B6FB0068002C1AD0446893
:1003300001E020466468002C01D0AC42F9D301688A
:100340000A18AA4204D12A6805468918016000E00B
:10035000456028684119A14205D16168696021683A
:100360004018286070BD6C6070BD00001CB50C4664
:10037000064B7B4469460090204601F0B8FC0446D9
:100380000020694601F0C6FC20461CBD9F190000F4
:100390000FB41CB5084B06AA7B446946009005982B
:1003A00001F0A5FC04460020694601F0B3FC20469C
:1003B0001CBC08BC04B01847791900000FB400B584
:1003C0008DB010A909900B900020C04300910A90B5
:1003D00000200C90074878440690074878446A4605
:1003E00007900F9909A801F07FFD0DB008BC04B07B
:1003F00018470000331B00004D1B0000704770477A
:10040000FFFFFFFFFFFFFFFFFFFFFFFFFEFFFFFFFD
:10041000F7B5002575291068009914A611D001F0D0
:10042000BAFB002802DA404211A608E000990968E8
:100430008A0701D50FA602E0490704D50EA60125BB
:1004400001E001F0B1FB009F0024243704E001F03B
:100450003BFF30313955641C0028F8D12B46324619
:100460002146009801F0D2FBFEBD00000000000014
:100470002D0000002B00000020000000F8B50F4602
:100480000188090502D5224C7C4402E0204C7C44C2
:100490000E3405460021243508E016071209360FF0
:1004A000A65D6E541E0732431B09491C16461E43A7
:1004B000F3D1224604780023240705D5702F06D0F7
:1004C000002901D00223113201F0A0FBF8BD012365
:1004D0001032F9E770B504460D462146106801F068
:1004E00063FB0023024629462046FFF7C7FF70BD85
:1004F000D21DD308DB000CCBC0E730B40368202446
:100500001268234303600823C36130BC0023B5E7AE
:10051000C8700000F3B50446002081B02062204678
:10052000E1688847002872D0252802D06268A16857
:10053000ABE0594F00267F442046E16888472028D9
:10054000054608DB312D06D27819203800780028BE
:1005500001D00643F0E7B00701D504208643002010
:10056000E0610746A0612A2D0AD0284604F002FB6C
:10057000002827D0B8000019303D0090856119E0AF
:100580000298BA00121902C8916102902046E168EF
:100590008847012F054617D1E06900281FDA20207F
:1005A00086431CE000980A2180694843009940195D
:1005B000303888612046E1688847054604F0DAFA59
:1005C0000028EFD1012F0AD02E2D08D12046E16856
:1005D00088470546202006437F1C022FC3DBA06905
:1005E000002803DA4042A06101200643F00701D051
:1005F000102086436C2D0BD0682D09D04C2D3CD09B
:100600006A2D38D0742D38D07A2D36D016E040E0DF
:10061000E1682F4620468847B842054609D16C2F2D
:1006200029D001208002E16806432046884705461C
:1006300004E06C2F1DD0FF2001300643002D28D090
:1006400028464138192803D80120C0020643203526
:10065000204626602946029A1646FFF76FFD0028BD
:1006600010D001280BD0F61DF008C0000830029011
:1006700055E74020E1E78020D5E70020D3E7361D8D
:1006800002964CE762682846A1689047206A401CA1
:1006900044E7206AFEBD000042700000FFB51D4621
:1006A0000027FF4383B05C68002001909E68A96921
:1006B00004987F1C88470090296A88470028F6D153
:1006C0000098401C0CD0032040028443002E19DD0A
:1006D000600614D500982B2809D02D280FD103E0EF
:1006E0000020C04307B0F0BD012080020443A96987
:1006F00004987F1C8847761E002E009002DD00982B
:10070000302803D00598002825D035E00120A969BC
:1007100040020443761E04987F1C8847002E0090F8
:1007200003DD782805D0582803D00598002810D07C
:1007300022E00598002801D010281DD10120A969C8
:1007400040028443761E04987F1C88470090102046
:1007500002E0082000E00A2005900DE00121059A42
:1007600049020C430199761E514308180190A9696A
:1007700004987F1C88470090002E05DD059900989D
:1007800001F09CFB0028E9DAE96904988847A00594
:1007900002D40120C043A5E7E00722D1600611D5AD
:1007A0006005019800D5404229680A1D2A60096841
:1007B000220501D5087014E0220701D5088010E059
:1007C00008600EE02868011D29600068210502D537
:1007D0000199017005E02107019901D5018000E030
:1007E000016038467EE7000070B50446C0688107A6
:1007F00013D0800601D5A56A04E0A169606840189D
:100800002169451A204601F073FC0022064629465C
:10081000204601F09DFB304670BD002070BD70B5D4
:10082000002802D0FFF7E0FF70BD0025074C6E1EC8
:1008300008E02046FFF7D8FF002800D03546206D9D
:1008400044086400002CF4D1284670BDA0F2FF1FBC
:10085000F7B516460C46104600F07CF82078611C6F
:1008600061280AD0722802D0772839D102E0012508
:10087000002404E00225042401E02D4D0824022276
:10088000032301270878491C2B2806D0622807D0AB
:100890002039C87F742807D008E01D431443F1E7CE
:1008A000042005433C43EDE7102004430098214613
:1008B00004F0AAF9411C13D00021316171600121BB
:1008C000F5604902F1617061200704D530460222CB
:1008D000002101F03DFB306D384330653046FEBDF0
:1008E0000020FEBDF8B50D460646124C206DC1072E
:1008F00004D0410804D044086400F7E7224610E021
:100900005420FFF7DBFC070010D07908206D490068
:1009100001221143084354212065384600F0D0F8E5
:100920003A4629463046FFF793FFF8BD0020F8BD50
:1009300002800000A0F2FF1F10B5002902D0FF22A4
:10094000013201E00122920201235B0201F07AFBF5
:1009500010BD0000FEB50446466900690F4F0190C6
:10096000E56800200090A80707D0204601F0C0FBF2
:10097000304604F00BF9002801DA3846FEBD2805A0
:1009800002D50198FFF7CBFC4C21204600F098F8E7
:10099000206D4008400020650098FEBDFFFFFFFF6E
:1009A00030B5441C03E00178401C00290DD08107BC
:1009B000F9D10B4BDD0104C8D11A91432940FAD07B
:1009C000001B0A0603D0C01E30BD001B30BD0A0448
:1009D00001D0801E30BD0902FCD0401E30BD000099
:1009E000010101010346F0B50B439B072DD1244DB6
:1009F000EF01042A29D308C810C95E1B9E43121FA9
:100A00003E4017D0D8B2E1B2401A3106014310D1AE
:100A100098B2A1B2401A310401430AD1180221024E
:100A2000000A090A401A3102014302D1180E210EB0
:100A3000401AF0BDA342DCD018BA21BA884201D9CD
:100A40000120F0BD0020C043F0BD002A01D10020EC
:100A5000F0BD03780C78401C491C002B0DD0A3423C
:100A60000BD1521E09D003780C78401C491C002B76
:100A700003D0A34201D1521EEBD1181BF0BD0000E0
:100A80000101010101E004C0091F0429FBD28B0709
:100A900001D50280801CC90700D002707047002970
:100AA0000BD0C30702D00270401C491E022904D398
:100AB000830702D50280801C891EE3E70022EEE74F
:100AC0000022DFE782078B079A4237D170B5920F79
:100AD0000AD0032402780B78401C491C002A2BD032
:100AE0009A4229D12042F5D11D4EF40104C808C90B
:100AF000951B9543254010D19A4207D104C808C9D7
:100B0000951B9543254008D19A42EFD012BA1BBAE3
:100B100001209A4200D2404270BD12BA1BBA2DBACF
:100B200018241000E0401900E140401A05D12E00C1
:100B3000E64002D1083CF4D1D01A70BD02780B789F
:100B4000401C491C002A09D09A4207D102780B7830
:100B5000401C491C002A01D09A42EFD0D01A70479D
:100B600001010101002203098B4273D3030A8B4266
:100B700058D3030B8B423CD3030C8B4221D312E09E
:100B800003460B437FD4002243088B4274D30309EE
:100B90008B425FD3030A8B4244D3030B8B4228D38F
:100BA000030C8B420DD3FF22090212BA030C8B42B5
:100BB00002D31212090265D0030B8B4219D300E055
:100BC000090AC30B8B4201D3CB03C01A5241830BDA
:100BD0008B4201D38B03C01A5241430B8B4201D38A
:100BE0004B03C01A5241030B8B4201D30B03C01AB3
:100BF0005241C30A8B4201D3CB02C01A5241830A2D
:100C00008B4201D38B02C01A5241430A8B4201D35B
:100C10004B02C01A5241030A8B4201D30B02C01A85
:100C20005241CDD2C3098B4201D3CB01C01A5241EC
:100C300083098B4201D38B01C01A524143098B4275
:100C400001D34B01C01A524103098B4201D30B015E
:100C5000C01A5241C3088B4201D3CB00C01A524183
:100C600083088B4201D38B00C01A524143088B4248
:100C700001D34B00C01A5241411A00D201465241E1
:100C8000104670475DE0CA0F00D04942031000D300
:100C90004042534000229C4603098B422DD3030A55
:100CA0008B4212D3FC22890112BA030A8B420CD365
:100CB000890192118B4208D3890192118B4204D38E
:100CC00089013AD0921100E08909C3098B4201D30E
:100CD000CB01C01A524183098B4201D38B01C01A48
:100CE000524143098B4201D34B01C01A52410309BF
:100CF0008B4201D30B01C01A5241C3088B4201D36E
:100D0000CB00C01A524183088B4201D38B00C01A1A
:100D10005241D9D243088B4201D34B00C01A5241F1
:100D2000411A00D20146634652415B10104601D37E
:100D30004042002B00D54942704763465B1000D308
:100D4000404201B50020C046C04602BD70B5064C09
:100D50007C44064D7D4403E0206800198047241D33
:100D6000AC42F9D170BD00007470000074700000D6
:100D7000F8B517460E460546002B07D010465843D7
:100D80004419E41B2046B047A542FAD1284608384A
:100D9000F8BD00000246C80FC00781434B0030B5C4
:100DA0004B405B009B0D20D01923DB06C9180123A3
:100DB0001B05994220DB0324A40704251346AB40FE
:100DC0000BD3002B04D1EB0613409B00E34204D469
:100DD00001246407002312195941FF231B0599427E
:100DE0000BD2C9000143500F09E0CB0204D50143E7
:100DF0000803024305D0054830BDFF21C90508435B
:100E000030BD084607210905884330BD0000C07F7A
:100E1000F0B50C46871A9C410D46861A9D4103D2B7
:100E2000C01BA141D21963410D0D1F0DC94EEC1B12
:100E3000AE435CD07F057F0D0026002F51D02D05DD
:100E4000AC46A943DD020123ED0A1B051D43202307
:100E50001B1B24D41746E740381871412F46E74042
:100E6000CC199D402818314661410C0D27D16144B1
:100E70009A4013D50023401C594152000ED140081E
:100E8000400001224B005205D34207D30520400702
:100E9000C14201D5B04900E0B0493046F0BD6B0019
:100EA000002A00D001229A181F23203C1B1B01D5C9
:100EB000002302E0E540281871410C0DD7D0012431
:100EC00024050919C407CD0740084908E40F284341
:100ED0006144002CD5D00024401C61419A40D0D1FF
:100EE000CDE76A05520DD9D1C90FC907D5E79C4D89
:100EF0004E00002801D0012400E0002434195F00D6
:100F0000002A01D0012600E00026BE19954FAC4210
:100F10000CD8AE420AD8B44206D001256D05EC4289
:100F2000BCD010461946F0BD9942FCD0002039468D
:100F3000F0BDF0B51FB40C460F46811A9F412546FF
:100F4000861A9D4106D20125ED076F40401ABC412B
:100F500052187B41210D1E0D8D1BAC467D4D8D43DE
:100F60007ED075056D0D7CD00D05AE46AC431B03E0
:100F70001B0B794D52429D41202366469B1B14D387
:100F80001746F740381800260090744160462F46F7
:100F90000741E41900989D402818664116D471460F
:100FA00071189A4025D5012320E093182A466A41FA
:100FB0005200002B00D0521C1E23203E9B1B002BF6
:100FC00061DD3541EE1728186641E8D500187641F5
:100FD0005B1C9A4000D3401C4B05F3181524E340DA
:100FE00010D3002B52D071467118D30FC01802D302
:100FF000491C05B0F0BD0123DB079A42F9D1400836
:101000004000F6E701225205B21801D1002853D062
:101010000123CC0ADB029943891E002A08D1020C65
:1010200003D0020C0004103902E0024600202039EF
:101030000023550B05D112020823550B01D1520193
:101040000D23550C01D112011B1DD50C01D19200AD
:101050009B1C150D01D152005B1C2025EE1A01E0EE
:101060002CE022E00546F54015439840CA1AE107F6
:1010700069181305C918002ABBDA032040070818AD
:10108000C10FC9070FE071466118B2E7F1074008C8
:101090000843711071444A000CD001235B059A4249
:1010A000A7D2C90FC9070020A3E74905490D26D1DA
:1010B000002001E00028F4D100219AE7284D6600C5
:1010C000002801D0012100E0002171185F00002AF2
:1010D00001D0012600E00026BE19224FA94210D8F7
:1010E000AE420ED8B14208D001256D05E94206D0C6
:1010F0001946A802414010467BE79C4201D0214698
:1011000077E70020394674E710B50C465C4005D5FA
:101110000124E4076340FFF70CFF10BDFFF778FEE2
:1011200010BD30B40C465C4004D50124E407634094
:1011300030BC6DE630BCFCE670B50124E4076140CC
:101140000D465D4002D4FFF763FE70BD6340FFF7BC
:10115000F0FE70BDFF0700000000F0FF0000F07F10
:101160000000E0FF0000F87FF0B5F94D0C091E0902
:101170002C402E402F468BB0A7437DD0B543FCD0EA
:10118000002E7AD0002CFCD00D465D40ED0F25439B
:10119000AC1BFF25AD0464190894C502440DC902B7
:1011A0002143500DDC0204430120C00701430443E6
:1011B000D2020191200C110C00958C4601042346AB
:1011C0008B430A9161460904E24D8A430991010A61
:1011D0007D4449198039097805464D4301266D182B
:1011E000F605751B6943C90C640B891C4C436418D4
:1011F000B5012C1B250C2E04B4434C434D43210C4C
:10120000691889090591009DE90701D00121C907E5
:1012100004912C4601996708CD072F434C08059D82
:10122000E10B4D432D0C29466646754302950D464C
:1012300045432E46029D7D1BB44100950D465D43FE
:1012400001942C0C2F040D465543AE462D0C3D4306
:10125000029503947546049C2D04641B049406D2E5
:10126000029C039D641C002675410395029401AC09
:1012700070CC009F7D1B01E03EE162E1B4410904B6
:101280000095079101940599A4086143090C0C4647
:101290004443650BE7040C4666467443A646640B5C
:1012A0003C43039502947446049DE4042C1B04946F
:1012B00006D2029C039D641C00267541039502948E
:1012C00001AC70CC009F7D1BB44101940C465C4383
:1012D0000095650FE7000C465443A646640F3C4357
:1012E000039502947446049DE4002C1B049406D2DA
:1012F000029C039D641C002675410395029401AC79
:1013000070CC009F7D1BB441AE09AF06049DC9009F
:10131000AD092F43049DA406AD060495079D3443F3
:1013200069180791059DE10B4D432D0C2946664632
:10133000754302950D4645432E46029D7D1BB441E3
:1013400000950D465D4301942C0C2F040D4655432A
:10135000AE462D0C3D43029503947546049C2D0426
:10136000641B049406D2029C039D641C00267541F4
:101370000395029401AC70CC009F7D1BB441019495
:101380008C050694079C890A611800950791019CB9
:101390000599A4086143090C0D464543680BEF0409
:1013A0000D46644665436C0B3C43049FED047D1B76
:1013B000AC4602D20025641C6841009E019D371B8B
:1013C00085410846584301950C46460FC5005443D5
:1013D000600F28436546E4002C1B02D20025401C08
:1013E0006E41019D3F1AB5412846BD09800628433C
:1013F0008446A009BF064E020699A4067618074344
:10140000079D002068410A99079019430020099B15
:1014100000906046FF1913434041E20F64003A43D5
:10142000A4460446D71A8C41A04203D9012000905B
:1014300020463A46C70F941840416246D20F2243D5
:10144000644664000494009CBE466400D71AA44617
:10145000044602978C417746002F01D1A04204D95F
:101460006046401C8446029A2046C40FA646941843
:101470004041049A0546D20F224364466400D31AC1
:101480008D417146002901D1A84202D928461A4649
:10149000641C10430122002800D016436102002082
:1014A000079B891904465C410223002C02DB491882
:1014B00013466441089DCE0A2D145D194B0567053E
:1014C000E10A2C050D1908993E43C9076940002B14
:1014D00008D0934006D30022761C5141002B01D145
:1014E000760876001C4A002D43DB154241D0AA4302
:1014F0003FD030460BB0F0BD06180D464D41174C9D
:101500007642AC411AD395181C465C41134A6D4291
:10151000A24113D3012252054C00D4420AD15C00EF
:10152000D4420BD04B4002D592021143E2E749006E
:101530004908DFE75940C90FC90718E000200849EA
:10154000D8E7054801420DD10342F7D0F2E7000089
:101550000000FF07B96300000000F07F0000E0FF1B
:101560000000F87F114859400143C012414000205B
:10157000C0E70123089A9B069A4205DC0322520722
:101580008918C90FC907B5E7052252078918074A04
:101590001143D2125140ADE770B515461C460246C4
:1015A0000B4628462146FFF7DFFD70BDFFFFFF7F9A
:1015B0001F22030C02D10F22000402D0030E03D01D
:1015C00004E00020014670470002083A030F01D1F1
:1015D0000001121F830F01D18000921E002801DB41
:1015E0004000521E120551184205C0124118104603
:1015F0007047C10FC90700D0404201229207114332
:10160000D6E701218907D3E7F0B58B4C0F092546B2
:1016100089B0BD437BD01D092646AE43FAD00E46A5
:101620005E402740F60F3E43254071D02401214201
:10163000FBD0FF24AD19A4042D1B039501252D0516
:10164000DB02DB0AC9022B43C90A29431E01090137
:10165000040F130F050121431701880B82039143E7
:101660002D098C46A90B1E438A039543B30B9A039D
:1016700096433F09BA0B9403A74302962E467E4336
:101680000497B6464E19D7190C4601965443059750
:101690007E43371B7646BF1B3601B646BE0B361956
:1016A00000967646BC043719009C01D3641C009454
:1016B0006400002F01D001263443029E049F75432D
:1016C00066467E430496760034196E003419009401
:1016D000029C019E1C196643751BAE460694654626
:1016E0004519059C05956C43594375460891691A3F
:1016F0000191049E01465143A41B0491611A009C70
:101700000791E10605D061090122114302E072E070
:101710006EE06109089D00272C0A2D066918049DBA
:101720007C412A0A2D066918019D6241AC0DAD026B
:101730006D185441079A910D920255196141029A10
:10174000644658435443069B059A5A43121A131B86
:101750009A0E9B015B187A41010B0005C318514199
:10176000220A200644195A419A4200D2491C0120FB
:101770004002814203D315230226F64302E01423DC
:101780000326F6432020C51AA9401746AF40DA4089
:101790000A4320460399D8400914731819055118B3
:1017A000039A3843D2075140AC4009D001229440FB
:1017B00006D30022401C5141002C01D140084000BA
:1017C0001E4A934212D3012203989206904207DBED
:1017D0000520400709181A480143C012414004E09F
:1017E000032040070818C10FC907002009B0F0BD49
:1017F0000020F107FAE705180C464C4111486D42EC
:10180000A04115D394181A465A410E48644290419B
:101810000ED301204A004005824209D35A00824279
:1018200006D35940C90F084AC90700201143DDE714
:1018300000200649DAE700000000FF07FE0700006D
:10184000FFFFFF7F0000E0FF0000F07F0000F87F57
:101850000121C9050123411842001B06D3185B0E64
:101860000AD0C1100722D206891840075242D1423D
:1018700001D5520089187047090208D50146002A8F
:1018800003D0C10FC90700207047104670474202BD
:1018900002D0002002497047072109050143F4E7FF
:1018A0000000F87FF0B5FF252D04C609C209FF2707
:1018B00004462E400137CB093E4348402A402B4086
:1018C0000746002A6BD0002B69D0AA4267D0AB42F2
:1018D00065D0002800DA32460125ED0529432C4366
:1018E00009022002090AD21A4B0C7F24E31A434C46
:1018F000000A7C44E35C7D242404121914145B0068
:10190000A218884201D3521C00E0400049420C4614
:101910005C4324115C43DB016415E318040A5C4357
:10192000C502200D0C4644436419250A5D43230378
:10193000EC0C0D46654300030019EB184C42A34222
:1019400001D35B18401CD4052018002B07D05B0086
:10195000C91804D3401C002901D1400840003F2190
:1019600089048A4209D3002A08DC1106090F04D031
:10197000032149074018C00FC007F0BD01224100F4
:10198000120689187F2252069142F6D20521490794
:10199000C84201D59010F0BDFF20C005F0BD002F5A
:1019A00000DA32461648AA4207D2AB4205D21902E3
:1019B000090E17D0F80FC007F0BDFF2563002D06F4
:1019C000AB42F9D84900A942F6D8AB4201D1A942AD
:1019D000F2D0A94201D1002101E061004908D005FF
:1019E0000843F0BD1102090EFBD0FF200243D005D1
:1019F000F0BD0A460146104654E70000175D00009E
:101A00000000C07F0102C21504D00123DB07194387
:101A1000002A0ADB9E239A1A02D40846D040704757
:101A2000FF2241001206914201D900207047C017E1
:101A3000C04370471F22030C02D10F2200041CD0A8
:101A4000030E01D10002083A030F01D10001121F59
:101A5000830F01D18000921E002801DB4000521E3E
:101A6000D2055118021251181922904004D3491C72
:101A7000002801D14908490008467047C10FC9072D
:101A800000D04042012292071143D3E70121890788
:101A9000D0E70000004870479CF3FF1F7047704775
:101AA00038B504460A460020694601F097FB002835
:101AB00005D002462046009900F048FD012038BDBF
:101AC00010B5012001F05FFB10BDF8B501F07AFB05
:101AD000054600200C461020C0460646A819A04224
:101AE0000DD932466946002001F078FB070001D18C
:101AF00001F049FB0098A04200D00546C419FFF749
:101B0000C9FFF61D07460560F008C00046192846C3
:101B100000F008F8B44204D031463868A21B00F047
:101B200015FDF8BD00210160416080607047102004
:101B3000704710B500F006FD006810BD10B50446F2
:101B400000F000FD046010BD70B5044685690068B2
:101B5000C10601D5302600E02026C00707D070BDA1
:101B600062683046A1689047206A401C20626D1E62
:101B7000F6D570BD70B5044685690078C00707D1F9
:101B800070BD6268A16820209047206A401C2062D6
:101B90006D1EF6D570BD09684A0501D540B2704783
:101BA000C905FCD500B2704709684A0501D5C0B225
:101BB0007047C905FCD580B2704770B50C46054624
:101BC000012A05D02878800600D5EA69002302E0C2
:101BD000012305E05B1C934202D2E05C0028F9D1AE
:101BE000A869E618C01AA861286AC01828622846A1
:101BF000FFF7AAFF04E06A682078A968641C904790
:101C0000B442F8D32846FFF7B5FF70BDFFB50446D0
:101C10000D4681B0243000902168880604D510223A
:101C2000E0699143216000E00120A84201DD471BEB
:101C300000E000270498A1697A191018081AA06119
:101C40002078C00602D42046FFF77EFF002608E079
:101C500003986268A168805D9047206A401C761CEA
:101C6000206204988642F3DB2078C0060AD520461D
:101C7000FFF76AFF06E06268A16830209047206A9B
:101C8000401C206238467F1E0028F4DC07E00098E4
:101C90006268A168405D9047206A401C2062284627
:101CA0006D1E0028F3DC2046FFF764FF2078000655
:101CB00002D5022005B0F0BD0120FBE711680268E3
:101CC000006A530501D5087009E0D30501D50880E5
:101CD00005E0130602D5C21705C100E00860012027
:101CE0007047000001694A1C02610878704700B51E
:101CF0008FB0029100210591054901937944039128
:101D0000114604906846FEF705FC0FB000BD0000C8
:101D1000E5FFFFFF0A681070521C0A607047000060
:101D2000F7B50446154686B02B487844002703C80B
:101D30003E460090019111E007986A467100415AB1
:101D400002A801F0F4F9411C07D02178890603D5D7
:101D5000E269391891420ED83F18761C2078800627
:101D600002D5E069B84206DDAE42E5DB07987100B6
:101D7000405A0028E0D1A069C01BA0612046FFF7AF
:101D8000E3FE154878445A3803C8009000200191BA
:101D900016E041006A460798415A02A801F0C7F9C7
:101DA0000590401C0AD0002505E0626802A8A168E1
:101DB000405D90476D1C05988542F6D30498401C01
:101DC000B0420490E5DB206AC01920622046FFF78C
:101DD000D1FE09B0F0BD0000AA590000F7B5D21D30
:101DE0000025D20815A6D200F52905CA11D0002A6F
:101DF00005DA00214042914111A60A4608E0009907
:101E000009688B0701D50FA602E0490701D50EA688
:101E100001251146009F0024243704E000F0B0FBA8
:101E200030323A55641C02460A43F7D12B463246FB
:101E300021460098FFF7EAFEFEBD0000000000000A
:101E40002D0000002B0000002000000070B50446AB
:101E50000021243408E05507D2086D0F3035655451
:101E60005D072A43DB08491C15461D43F3D104686E
:101E7000002310A2250708D5A40601D4002904D008
:101E8000C46901230CA2641EC461FFF7BFFE70BDCC
:101E900010B5044621461068FFF786FE002302466F
:101EA0002046FFF7D3FF10BDD21DD108C9000CC9D1
:101EB000CCE7000000000000300000003A2800D20B
:101EC0003038202302469A43412A01D3104637383E
:101ED000884201D30020C0437047000002685118B7
:101EE000137801601846704710B5D16005497944F0
:101EF000516105497944116200211161114600F0D8
:101F00002BFF10BDEBFFFFFF030700004268002A14
:101F100008D001680B78491C002B03D0521E06C064
:101F2000184670470121C160881E70474268002A28
:101F30000BD0C3680168002B07D183688B4204D0A3
:101F4000491E521C06C0002070470020C043704745
:101F5000F8B5044616460D464769007B800730D029
:101F6000384602F03DFE00282BD132461026002ACA
:101F700025D0012A02D0022A23D104E0204601F014
:101F8000B5F845191BE0384602F016FEE16831430A
:101F90000028E16004DA204600F07AF80120F8BD5C
:101FA000C9030BD56268E16A914200D81146A26963
:101FB00089182269891A814200DD08462D18002DF2
:101FC00001DA0220F8BDE16A6068E268814206D267
:101FD0009103E06203D5012149048A433243A66993
:101FE000AE4211DCE16A814201D90B4600E00346B2
:101FF0009F192369FF1AAF4206DD814201D90F46BE
:1020000000E007469F4206D1202002430020A06046
:10201000A56220600DE0AD1BE669AE1B8142A660A3
:1020200000D90846C01A281A20605819606020207C
:102030008243034802400020E26040342072F8BD31
:10204000BFCFD7FF70B5C468A50713D0650211D400
:10205000D51FF93D0AD0FF3D6D1E07D0FF3DFF3D66
:10206000022D07D101462431012305E0074E5D1EF4
:10207000B54201D3012070BD0161C36141600F21F0
:1020800009028C431443C460002070BDFFFFFF00B1
:10209000C1688022114392039143C1600021816095
:1020A00001607047F7B514460E463348D568576946
:1020B000054209D03846A16902F08CFE002811DBE8
:1020C0002D48C0430540E5602B463246384600990E
:1020D00002F094FE4200A1695208B21A8918002841
:1020E000A16104D02046FFF7D3FF0020C043FEBD0E
:1020F00070B504460569C06A6168884200D8084620
:10210000E1680522D2049143E160C90314D5A842D5
:1021100009D02246411B2846FFF7C4FF002802D001
:102120000020C04370BDE56200206560A060E068EB
:10213000012109048843E060002070BD10B5044609
:10214000C06820218843E060A16AA06988420ED05F
:102150002046FFF7CDFFE0680321090388431021E3
:102160000843E060A06AA0612069E0626060034902
:10217000E0680840E06010BD10000200BFBFFFFF34
:1021800010B543485421FEF79BFC42485421FEF70A
:1021900097FC41485421FEF793FC40483C493D4B95
:1021A000404A01603E4803603B4810605A1C0A6583
:1021B000411C1965012101653C48354A3AA1784422
:1021C000FEF746FB002804D1384878440C3800F06C
:1021D000D4FF38482F4A36A17844FEF739FB00284F
:1021E00004D1344878440C3800F0C7FF32482A4AFA
:1021F0002FA17844FEF72CFB002804D12E48784408
:102200000C3800F0BAFF40232148DC0000212246B0
:10221000FFF718FF002804D0244878445C3800F009
:10222000ACFF1C48224640230021FFF70BFF00288B
:1022300004D0204878445C3800F09FFF16482246BE
:1022400010230021FFF7FEFE002804D01A4878442E
:102250005C3800F092FF10BD0F4870B5006D440867
:102260000B486400FEF776FB0A48FEF773FB0A484A
:10227000FEF770FB09E0206D450820466D00FEF773
:1022800069FB2046FEF74BF82C46002CF3D170BDBD
:10229000A0F2FF1FF4F2FF1F48F3FF1F4CF1FF1FD6
:1022A00050F1FF1F54F1FF1F720000008E4B000021
:1022B000770000007B4B0000694B000010B500F078
:1022C00069FF00F054FF10BD01468008081A02099A
:1022D0001018020A1018020C1018C00882001218F8
:1022E0005200891A01E0401C0A390A29FBD27047C2
:1022F00070B505464800440D124B0020002C0AD052
:10230000634008D09A4206DA6642B24203DD120503
:102310004019514170BD002C08D0002B09D0C90FC5
:10232000C907002AF6DB084A114370BDC90FC90767
:1023300070BD28460A03104302D00020034970BD37
:10234000284670BDFF0700000000F07F0000F87F06
:10235000F0B53D4B02460C461C400020002C63D0DB
:102360003A4D8B4366D000296BDB0B0D1D05A9434D
:1023700001252D0529430124FD33E34001D39218A3
:102380004941FF3381339C468B02940D0121234345
:1023900089074C42920200271B198C105D1A04D445
:1023A0002D1B02D42B466500491992185B41640825
:1023B000F4D15C1A08D40125ED07EE1755197441C4
:1023C00002D42A462346491C94185B4101229207F5
:1023D0001D46E61B8D4106D4B61A854103D42B4613
:1023E000550034467F1924195B415208802AEFD1E9
:1023F000234300D0022338460A22D04001D30122D1
:1024000013438A0510436246890A12058918002B76
:1024100009D00122D34002D30022401C5141002B9D
:1024200001D140084000F0BD0B03134307D0C90F92
:10243000C907F0BD0803104303D1002901DB104692
:10244000F0BD00202946F0BD0000F07F0000F87FBD
:1024500010B5FF231B0644009C421DD84C009C4233
:102460001AD80346124A0B4307D4401A02D3EFF39B
:10247000008010BDEFF3008010BD081A06D2EFF304
:10248000008001219043C907084302E0EFF3008078
:10249000904380F3008810BD0D231B041A4204D022
:1024A0001146002000F0B6FE10BD00F013FF10BD75
:1024B0000000009030B5C30D1906214A090E31D035
:1024C000FF292FD000283ADB0102500201430120EE
:1024D0007D33C34000D24908012080071724091A20
:1024E0002406490882102343FF252D064C00211A9B
:1024F00004D4891A02D45400201800E0214652085E
:102500005B19F3D51A220446944007D382068A4207
:1025100003D180218030884300E08030C009D90594
:10252000081830BDFF2904D04100FAD0C00FC00701
:1025300030BD410201D0104630BD0028FCDAFAE778
:102540000000C07F00487047A0F3FF1F10B503468E
:10255000406801E003464068002801D08842F9D372
:102560001868C3188B4206D0CB1CD808C000001DC9
:10257000411A521A0146081D0A60FDF7D0FE10BD2F
:102580000B4670B5024689078008084319469D0826
:10259000141AA94125090807054308092C194841BF
:1025A000250A01060D43010A2C194141200C0D0496
:1025B00028430D0C00194D41002140194D41C00820
:1025C00069070843E908840F8D0025438400241817
:1025D0004D4124196D41121BAB4107E00925ED4324
:1025E0002C11521963410024401C61411C460A25EC
:1025F0000026551BB441F1D270BD10B5044600F061
:1026000077FE0068005DC007C00F10BD7047FFB5C2
:102610000C461E468FB003CA089009914F007D0DED
:1026200000D16D1E002108460020C0460321099AF2
:1026300089050840002A03DA820080184008084013
:10264000800D01280A9002DD0020C0430A900898FE
:1026500007430DD0F048F14928184843071418984B
:1026600000281DD07542291E1DDD0A9842421BE03C
:102670001898012802D00020302104E00020F24305
:1026800005E02154401CB042FBDB30460022189B81
:10269000002121540F998B600A60486013B0F0BD8F
:1026A000BD1B6D1CDFE70A9A002900DA69420BA8FE
:1026B00000F06EFE0BAB07CB03AB07C3089909987C
:1026C00000F0D2FE6B4607C30146D5480918002D1D
:1026D00000910BDDD24903980A9A49424018002321
:1026E00003A90390684601F02FF908E003990A9ABC
:1026F0000023081803A90390684601F0CFF86B4641
:1027000007C30004000C03D00020C043410800E0D0
:102710001046189A002A03D00022009215461EE0A7
:10272000751E05D4FFF72CFF303262556D1EF9D5AA
:1027300001220843079602D000227F1C04E0207883
:10274000302801D100227F1E002A069787D01EE084
:10275000112D07DAFFF714FF303262556D1C024667
:102760000A43F5D1084303D00098002819D00EE0A1
:102770000021681E05E0235C625C63542254401E05
:10278000491C8142F7DBA81B401E07950690079A5B
:1027900018990020A0540F98079B069A81600CC0DE
:1027A0007CE711260020189059E7D21DF0B50D46A0
:1027B0000446D10893B0C90003C90C900D9102F0F2
:1027C000A3F802460D98C00F01D02D2007E0206825
:1027D000810701D52B2002E04007C00F4001032AEA
:1027E0000F9001D0072A05DB03462946204600F05A
:1027F0008BFD0EE12078800601D5E76900E0062711
:102800002846652D04D0662814D0672D69D12DE0A7
:102810000020112F009001DB112300E07B1C0CAA8B
:1028200003A910A8FFF7F3FE1199002610987D1C4C
:102830000E9142E001203B460CAAC0070B900120FC
:10284000009003A910A8FFF7E2FE119D12981099BD
:10285000002600280E9501D1781C0D18781B02D493
:1028600046427D1C761EE81B00903AE0012F00DAFC
:1028700001270020112F009001DD112300E03B46CD
:102880000CAA03A910A8FFF7C2FE11993D461098A3
:1028900000260E91217809070BD40E99A94200DA7F
:1028A0000D4603A9012D04DD4A19203AD27F302AB2
:1028B00006D0B84201DA011D04DA012100910FE0CF
:1028C0006D1EEFE7002802DC86192D1A03E0411C7B
:1028D000A94200DD0D46801B401C00900120C0076E
:1028E0000B902078000705D40098A84202DB002056
:1028F000C043009069460020C8720B98012102AFC6
:102900000337C907884225D0022010902B20119050
:102910000B9800280BDA40420B902D20119006E016
:102920000B98FFF7D1FC30317F1E0B903970109956
:10293000481E00291090F3DC0B980028F0D1119864
:102940007F1E38702088000501D5452000E06520F5
:102950007F1E387001A8C01BC01D0B900F98002867
:1029600000D0012041190098C01709180B980818C9
:10297000A169081A401EA0612078C00602D4204632
:10298000FFF7E2F80F98002805D06268A168904729
:10299000206A401C20622078C00625D52046FFF71B
:1029A000D3F821E0002E07DB0E98B04204DD03A827
:1029B0006268805DA16802E06268A168302090478B
:1029C000206A761C401C20620098401E002800905F
:1029D0000AD100F095FCC06862680168405CA1689B
:1029E0009047206A401C206228466D1E0028D9DCD2
:1029F00007E062683878A1687F1C9047206A401C15
:102A000020620B99481E00290B90F2DC2046FFF74C
:102A1000B1F8032042E6000001FCFFFF104D00006A
:102A2000E1DFFFFFD21DF0B504460D46D0088DB0A2
:102A3000C000466807683146384601F065FF024627
:102A4000F00F01D02D2307E02068810701D52B234B
:102A500002E04007C00F43016846002B037001D01D
:102A6000012000E00020032A0A9001D0072A04DB9D
:102A70002946204600F048FC2DE12078800601D44C
:102A80000D2500E0E5697000400D0D2D01904BDA39
:102A9000300D00210B9008460020C0460321890517
:102AA0000840002E05DA82008018C20F101840106E
:102AB00008408015012801DD0020C043A900002343
:102AC000182906D39C460A460123183A1B07D3400F
:102AD00003E001221205CA4094460C31202902D39A
:102AE0003A46203900E032468A40002802DD002ABA
:102AF00006D119E0002817D10121C9078A4213D352
:102B0000194663467F185E41002806D10120C007A0
:102B1000824202D1084687439E430B98310D814281
:102B200002D00198401C01902088000502D571490F
:102B3000794402E06F49794419396B460A9830228A
:102B40001A540A980A7C401C1A54401C0A90019896
:102B5000002801DC302000E031201872019A0120A9
:102B6000002A02D0644BD21804E072003A4302D02B
:102B7000614A521C0192002D02DC2278120703D513
:102B80006A462E20507202200022864694460CE0AF
:102B900032033601120F6D1E8B5C02AA135462467B
:102BA000521C401C9446052A01DA002DF0DC00225C
:102BB00002AE08E03B0F3F01CB5C521C6D1E33544C
:102BC000401C082A01DA002DF4DC23689A0601D59E
:102BD00011E0401E704504DD3218203AD27F302AC1
:102BE000F7D0002807DD3218203AD27F2E2A02D1F2
:102BF0001A0700D4401E002D03DD3E223254401C33
:102C00006D1E497C31540199401C002906DA2D21A2
:102C1000471C315401984042019003E02B21471C8E
:102C2000315401987D21C900884206DBFDF7A8FFD9
:102C30003030F0557F1C019101E0642808DB0198D9
:102C40006421FDF79DFF3030F0557F1C019101E0BC
:102C50000A2806DB01980A21FDF792FF3030F05573
:102C60007F1C01980A21FDF78BFF3031F1550A983E
:102C7000A1697F1C7A191018081AA0612078C00673
:102C800002D42046FEF760FF216A6E460A980818B3
:102C9000206204E062683078A168761C90470A9848
:102CA000401E0A90401CF5D12078C00602D520466F
:102CB000FEF74AFF02AE09E03078761C3E280DD0C0
:102CC0006268A1689047206A401C20627F1EF3D290
:102CD0002046FEF74FFF0DB00320F0BD206A4019DB
:102CE000206203E06268A168302090476D1EEDD33A
:102CF000F8E70000C74B000001FCFFFF10B5436977
:102D0000002B02D0C046C04601E0FEF756FF01206E
:102D100010BD1278014624310A7000224A70012247
:102D2000ECE711680022D243E8E710B54369002BB5
:102D300002D0C046C04601E0FEF7F2FF012010BD00
:102D400012880146243182840022C2840122ECE7E9
:102D500011680022D243E8E7F3B50C468FB000209B
:102D60000C90012000260E9008460C3003906269FA
:102D7000039801219047051E2ED0252D2DD0216AC4
:102D80008847002818D06269039801219047216A7A
:102D900088470028F7D16269411E0398904700E0F8
:102DA000761CA1690F988847216A88470028F7D1C7
:102DB000E1690F988847DAE7A1690F988847A84228
:102DC000074601D1761CD2E7E1690F9888477F1C3E
:102DD00002D10C98002877D075E16269039800272A
:102DE0003D46394690472A280CD162690398012153
:102DF0009047012506E00A214F433F18303FEBD4AE
:102E0000102005436269039801219047014630393B
:102E10000A2903D2B1498F42DEDCECE7E90600D48F
:102E2000AF4F6C280AD04C2810D0682824D06A28CC
:102E30002ED074280CD07A280AD00DE0626903984D
:102E4000012190476C2823D004211CE02020054359
:102E50006269039801219047A760652865604FD09B
:102E600026DC582839D01ADC452849D012DC252820
:102E700034D04128B0D143E06269039801219047E2
:102E8000682802D008210D43E6E70120C002DEE7F2
:102E90000220DCE7462833D047289DD130E05B286C
:102EA00070D061282CD063286CD0642894D161E064
:102EB0006F284FD009DC662822D0672820D06928E7
:102EC00026D06E2888D12EE0F9E070284DD07328E6
:102ED0006FD075284ED078280DD154E0A1690F9895
:102EE00088472528054600D16CE7E1690F98884797
:102EF0006D1C00D16DE7E6E00A224CE00A2252E0A8
:102F0000012023466A460F99C043C046C046CFE021
:102F100040212846234608436060A80701D50022C7
:102F200039E000223FE0E80700D020E72068011DDB
:102F300021600068290501D5067018E7290701D529
:102F4000068014E7A90703D5F117066041600EE774
:102F500006600CE740212846234608436060A80726
:102F600001D5082217E008221DE05E4928460840E6
:102F7000606016E040212846234608436060A807A9
:102F8000BCD5B9E715E04021284608436060A80792
:102F900007D52346102201200F99C043C046C046E2
:102FA00086E01022234601200F99C043FDF776FBEF
:102FB0007EE0002163280B460191009102910D9162
:102FC00002D05B2808D03CE02079C00601D4012063
:102FD000A0600120009034E0E06801210D9062695A
:102FE000039890475E2807D101200190E0680121F5
:102FF0000D906269039890472169002906D10B461C
:1030000004AA8F00491C0829D351FADB00285AD0A2
:103010002169002927D00298401C02906269039818
:10302000012190475D28F1D10198002808D00020A7
:1030300004AB8100401C5A58D24308285A50F8DB90
:1030400004AB2069002820791DD0400726D5029ABC
:1030500000980D9B00922246029001200F99C043D8
:10306000C046C04624E0C117C90E09184A114909D3
:10307000930004AA9A184901411A13680120884054
:1030800003431360CAE74007224617480F9902D549
:10309000C046C0460CE0C046C04609E00298224641
:1030A00000990D9B009002910F480F99C046C046B1
:1030B00000280ADA401C06D10E98002803D0002010
:1030C000C04311B0F0BD0C98FBE7E90702D10C99A1
:1030D000491C0C91361800200E9048E6CCCCCC0C44
:1030E000FFFFFF7FF1F7FFFFFEFFFFFF10B5014677
:1030F000C268900703D0900607D5886A0AE0FFF7F8
:1031000021FA01210160881E10BD8B694868C01832
:103110000B69C01A40310B7A002B02D0497A401A51
:1031200010BD1103FCD50028FADD401E10BD70B59E
:1031300016460C46054600F0DBF80368FF20023017
:10314000C05C012807D0FF2C0ED8185D00280BD0DA
:1031500001202C7070BDFF333246214608331868B9
:10316000C3182846984770BD0020C04370BD10B5F5
:10317000002801D000F0B6F810BD10B500F04EFCEC
:10318000FFF7F5FF10BD10B500F062FCFFF7EFFF91
:1031900010BD000010B5002102A000F025FC0120A8
:1031A00010BD00005349475056464E3A20507572A4
:1031B00065207669727475616C20666E2063616C3F
:1031C0006C65640001226946114B120382188A4221
:1031D0001A6001D8114670471960704770B50C4CE1
:1031E0006D46012636032368AD1B9A18AA420ED8F5
:1031F000AD1A9019EE0F75196D10AA18904200D9EA
:103200001046C01D0B60C208D200D01A226070BDEB
:1032100058F1FF1FC80212D54803400F002804D000
:10322000C803C043012188407047EFF300800001CC
:10323000000903210907084380F300887047002034
:1032400070470000F8B5224C4E00069DA6420AD8F1
:10325000A64201D1002806D15E00A64203D8A642AC
:103260000AD1002A08D00D24240425422CD0294656
:103270000020FFF7CFFFF8BD0C461C430CD4994249
:1032800002D0EFF30080F8BD904202D0EFF300804F
:10329000F8BDEFF30080F8BD09242407E5008B4258
:1032A00006D0EFF30080A043591A06D2284304E069
:1032B000101A05D3EFF30080A04380F30088F8BD17
:1032C000EFF30080A043F1E7009500F0E9FBF8BDC3
:1032D0000000E0FF10B5024800F0ECFB10BD00005C
:1032E0000000C07F01491820ABBEFEE726000200A7
:1032F00010B500F005F8001D10BD00BFDD34000062
:1033000000487047A4F3FF1FF8B51F460446012389
:103310000068DB02032601461840072A05DB002867
:1033200001D017A506E017A504E0002801D016A5D6
:1033300000E016A5102081432160A069C01E002F67
:10334000A06101D0401EA0612046FEF7FDFB002FCA
:1033500009D038466268A1689047206A401C206204
:10336000C01C206206E0206AFAE762682878A1683B
:103370006D1C9047761EF8D22046FEF7FBFBF8BD89
:103380004E414E006E616E00494E4600696E660009
:10339000F7B516468AB0334878446C4603467C330A
:1033A000C06F5A689B680DC42E487844763003ACD1
:1033B0000DC80DC43720C001081837211B30FDF798
:1033C000DFFB05460C46803D1B3C02D564420120D4
:1033D00000E000200027099010E0E0070CD00C204E
:1033E00020497843794432464C39411868460123D4
:1033F00000F054FA6B4607C364107F1C002CECD11C
:10340000184F7F442E3F16E0E80712D02001C01964
:103410000EC80691089307920068F04201D19819EE
:1034200008903246012306A903A800F037FA03AB3F
:1034300007C36D10641C002DE6D10998002806D042
:1034400032466946012303A800F07EFA05E0012315
:103450003246694603A800F021FA0A9B07C30DB063
:10346000F0BD000074430000034640000A4610B55A
:10347000400D0BD00121C9070F24A40200191C0321
:1034800064082143540D2143D20207E000210120AA
:10349000F2E7D40F490021435200401E0029F8DA18
:1034A000DB0FDB07184310BDFFB50D46144685B092
:1034B0004868516801F010FA00910190A868A1686D
:1034C00001F00AFA02910390A868616801F004FA19
:1034D000029A12188242029201D2012000E00020DA
:1034E000019A0B18D2180028019202D08A4202D900
:1034F00003E08A4201D2012000E000200099081870
:1035000000906868A16801F0E7F9029A12188242F7
:10351000029201D2012000E00020019A0B18D2187B
:103520000028019202D08A4202D903E08A4201D2E5
:10353000012000E000200099081800902868216808
:1035400040004900400849084018FA49471814E06B
:1035500001994000C90F084300900198029940006A
:10356000C90F08430190029803994000C90F08430E
:103570000290039840007F1E039000980028E7DA2D
:103580000898002801D0EC4E00E00026B74201DA8E
:10359000012000E00020002804902AD0F71BF80644
:1035A000C00E15D0029B2021091A039A8B401A43A2
:1035B0000392029A019BC2408B401A430292019AE5
:1035C000009BC2408B4000991A430192C140009178
:1035D0007B110DD06F460320C11A03D50021820054
:1035E000B95003E08A008100BA587A50401EF3D5E2
:1035F000374603980299002800D00120014308981B
:103600000291002808460CD0002800D00120019922
:10361000019A490508430121D20AC902D202019246
:1036200000E001210E9B0122D207012B02D0002BCA
:1036300003D013E0002807D120E0904204D8904244
:103640000CD1019B0B4209D0019B5918019105D166
:103650000099491C009101D17F1C009200280DD0D7
:10366000102108460020C0460498002806D00F9874
:10367000002803D0082108460020C0462868216899
:10368000019B009A4840C10F0598C90739430EC0F5
:1036900009B0F0BDFFB587B0099A0898089953683A
:1036A00092684068896896460022039317469446BC
:1036B000089A12685300099A5B081268520052086F
:1036C0009A1A9E4BD4180A9A002A01D0352200E09B
:1036D000402206920022012315460492DB0705933F
:1036E00024E0002D05D175460346039E4D1BB341D2
:1036F00009D375466646039B491B049D9841059B6B
:103700007519AC465F4163463B4308D0059B049E58
:10371000DD0776082E435B080496059301E0521EF0
:10372000641EC50FED0749184041521C069B9A4282
:10373000D7DB002D04D17546039A6B1A824101D262
:1037400003200CE0039A0B466B404240134303D026
:10375000014303D0012002E0022000E00020614686
:1037600001910021009702910A99002905D0614634
:1037700040020143704B019102E080070023029058
:103780009C4201DA012000E0002007003AD01A1B19
:10379000D006C00E15D0029D2021019C091AC540FB
:1037A0008C402543029C8C4000D001242543019C81
:1037B0000295009DC4408D4000992C430194C14066
:1037C000009154111DD06D460221002202290CD116
:1037D0000320001B07E0002804DB8600AE59002E02
:1037E00000D00122401C0328F5DB081B02D588000D
:1037F0002A5004E08000285810438A00A850491E2F
:10380000E3D51C460A98002802980CD0002800D066
:1038100001200199019A490508430121D20AC902F0
:10382000D202019200E00121109B0122D207012B5C
:1038300002D0002B03D013E0002807D11FE09042F4
:1038400004D890420CD1019B0B4209D0019B59181E
:10385000019105D10099491C009101D1641C00928D
:1038600000280CD0102108460020C046002F06D0AA
:103870001198002803D0082108460020C046089867
:103880000999019A009B006809684840C10F079890
:10389000C907214382600AC00BB0F0BD00B585B0F6
:1038A000019300920A460146002302A8FFF7FCFD9F
:1038B00002A807C805B000BDFFB50A461F4685B07F
:1038C0000799019301230091014602A8FFF7ECFD3F
:1038D00002990398049ECA0F4900D20700920F2252
:1038E000490892028C1A0021002800DB0C46450092
:1038F00013486D08844214D3079A002A04DA441E40
:103900000026104DF64302E004460D460E461021F7
:1039100008460020C046002F03D00421084600209E
:10392000C0462005E90A0843009908436905F20AE0
:103930001143ADE602C0FFFF013C0000FF3F000065
:10394000FF070000FFFFFF7F00B585B001930092E5
:103950000A460146002302A8FFF79CFE02A807C8FA
:10396000A8E7FFB50A461F4685B0079901930123D2
:103970000091014602A8FFF78DFE02990398049E6C
:10398000CA0F4900D20700920F22490892028C1AEE
:103990000021002800DB0C46450011486D088442D8
:1039A00014D3079A002A04DA441E00260D4DF6436C
:1039B00002E004460D460E46102108460020C0468F
:1039C000002F03D0042108460020C0462005E90A44
:1039D0000843009908436905F20A114358E60000BC
:1039E000FF070000FFFFFF7F70B505460C460A2069
:1039F00000E06D1C00F08DF8002D06D0287800281E
:103A0000F7D102E0641C00F084F8002C02D020788A
:103A10000028F7D10A2000F07CF870BD10B50146EF
:103A200002A0FFF7E1FF012010BD000053494752FB
:103A3000545245443A2052656469726563743A2071
:103A400063616E2774206F70656E3A20000000007D
:103A500010B5012805D0002103A0FFF7C5FF012004
:103A600010BD09A1F8E7000053494752544D454D98
:103A70003A204F7574206F662068656170206D650F
:103A80006D6F7279000000003A2048656170206D0A
:103A9000656D6F727920636F727275707465640002
:103AA00010B500200249029A00F004F810BD000091
:103AB0000000F87F10B50C461107090F092904D042
:103AC0000A290AD008290CD104E011460820FFF782
:103AD000A1FB06E0510606D501E0510601D5012003
:103AE000C007214610BDD10607D501010909CC0840
:103AF0004907000E0006044309E0410F2002490770
:103B0000000A0143200E00061D22D1410143084650
:103B1000E7E708B5694608700320ABBE08BD7047EB
:103B200010B5C046C04601F08DFB10BD0021C1603C
:103B3000704700B587B01021684601F0E9FA07B078
:103B400000BD0000F3B50A4D81B0AC680F46A8680F
:103B5000002807D1074E21463446C0222046FCF7F4
:103B600083FBAE60019880000019076403B0F0BDCC
:103B700000ED00E000F0FF1F1D48002101601D481E
:103B8000826B43151A4382631C4A1B4850601C48D1
:103B900083681C4A13408360C3681340C3601A4A99
:103BA000892010701948242242709A220270C2782B
:103BB000D206D20EC2700122027141718179C9060A
:103BC000FCD481790907890F0229FAD1402141717A
:103BD00081790907890F0229FAD181794906FCD533
:103BE0001A21017081790907890F0329FAD17047D9
:103BF0000081044000800440000001104080044027
:103C000040900440FFF8FFFE005006400040064090
:103C100010B53E4880688024A0433C4CA0602046FC
:103C2000806810242043394CA060204680688008BA
:103C30008000A060204680686024A043334CA060D0
:103C40002046406A04242043304C60622046406A8B
:103C5000032420432D4C60622046006A4024A04388
:103C60002A4C20622046406A80242043274C606210
:103C7000002126484030C068244C4034A468001914
:103C8000224C403464680019204C403424680019E8
:103C90001E4CE46B00191D4CA46B001981B2084640
:103CA000CC0F241861100120C003084301461748B7
:103CB000C162002215484030C06A144C4034A46AE6
:103CC0000019124C4034646A0019104C4034246AC4
:103CD00000190E4C4034E46900190C4C4034A469BE
:103CE000001982B21046D40F241862100120C003BC
:103CF00010430246054802630023406A40242040E6
:103D0000002800D00123184610BD000000B0034079
:103D1000F3B59BB00E4600201A90A44819903F209E
:103D2000000618903046FDF793FDA14AA14B07917C
:103D30000690FDF7E9F9044600229F4BFDF7F1F9E3
:103D400002460B4609910890994840429B49FDF76D
:103D50000BFA02460B460B910A900020984901F09D
:103D600019FC984A984B0D910C90FDF74DFC0F9162
:103D70000E90FDF70FF817903046FDF769FD934A56
:103D8000934B03910290FDF7CCF90446FDF702F83E
:103D9000059000F0BDF90746FDF75AFD099108901E
:103DA0003046FDF755FD8B4A8B4B01910090FDF796
:103DB000ABF90446894A8A4BFDF726FC059104902D
:103DC0003046FDF745FD0446864A874BFDF79CF9D2
:103DD00003910290059B049AFDF7C6F9079106909E
:103DE000099B089AFDF710FC0022804B0B910A906A
:103DF000FDF7A2F900227E4B0D910C90FDF704FC1B
:103E00000F910E90FCF7C6FF16907A4815907A48ED
:103E100014901798FDF71CFD0D910C901998FDF763
:103E200017FD0446754A764BFDF7EEFB05910490AD
:103E30001698FDF70DFD03910290059B049AFDF77E
:103E4000E3FB0791069002F0BDFA02460B4609918A
:103E500008906C486C49FDF787F90B910A900D9B0F
:103E60000C9AFDF781F90F910E90FCF793FF1390D8
:103E70000020129011901090644F61E03846FDF7D9
:103E8000E7FC099108901898FDF7E2FC04465B4AAC
:103E90005B4BFDF7B9FB059104901B98FDF7B1FB57
:103EA00003910290059B049AFDF7AEFB07910690E3
:103EB000099B089AFDF7A8FB0D910C90384602F07B
:103EC000A5FA054613991498FDF7ECFC29460790CE
:103ED00002F064FD0890384600F01AF9054615997D
:103EE00002F05CFD0446089902F0E8FD0990FDF738
:103EF000AFFC0B910A900D9B0C9AFDF712F90F91F4
:103F00000E90FCF747FF11907F21C905119802F030
:103F10001BFD08D20021119802F098FD03D21297E0
:103F20000120109011E03846FDF792FC384A394BD9
:103F30000F910E90FDF7E8F80446FCF72BFF0746BB
:103F40003549384602F000FD98D3109800282BD050
:103F50001298FDF77DFC294A294B0F910E90FDF731
:103F600003F90446FCF716FF1290199800F0D0F8F8
:103F70000746FDF76DFC0D910C901298FDF768FC5B
:103F80000B4A5242254B0B910A90FDF73DFB04462C
:103F90000D9B0C9AFDF738FB0F910E90FCF7FAFE83
:103FA0001A901A981DB0F0BD0020FBE79A9939408D
:103FB00066666666661271400080614099F96E40DF
:103FC0000000244054E41071732AF93EC05B204184
:103FD000F1E30F4027A5A0DB4B085140CDCCCCCC62
:103FE00004101F41454772F90F0F72400000F03F67
:103FF00000408F40BA6B893E8A8E843FA60A4625D0
:1040000075029A3F36CD3B4ED191F03F0AD7233C03
:104010007B14AE47E17A843F0000E0409999034069
:10402000F0B585B0012000F0A5F82E4909884900B7
:104030002D4A515A40182D49401A84B22C48007814
:1040400000280BD02B48844208DA00202849087049
:1040500029480088401C284908800EE02448007840
:1040600000280AD12548844207DD01202049087034
:1040700021480088401C204908801A4800882049AF
:10408000884205DA17480088401C1649088021E05C
:1040900019480088002816DD17480088FDF7F6FC4F
:1040A000012189070190FDF7FDFB0746FDF7D0FBD5
:1040B000144A154B03910290FDF756F80546FCF79C
:1040C00069FE124908600020064908800A490880F4
:1040D000074908700D480068FDF794FC80B205B0F0
:1040E000F0BD000018F1FF1F686D0000C8AF0000B0
:1040F0001AF1FF1F204E00001CF1FF1F50C30000EB
:10410000E70300009A9999999999B93F20F1FF1F07
:1041100070B504462146204602F040FC054628467C
:1041200070BD0000F8B5022000F024F80090FDF703
:10413000ADFC07460B4902F031FC06468F21C9054C
:10414000FDF7B0FB05460849284602F0B7FC0746D4
:104150000649FDF7A7FB0646054902F0A3FC044605
:104160002046F8BD33335340000033440080CA4436
:104170000000C84110B50446002C04D0012C33D0F7
:10418000022C7DD161E04B48C06B0121C906084378
:104190004849C8631E204849086008468068802155
:1041A00088434549886008468068602188434249C1
:1041B000886008468068102108433F4988600846A7
:1041C00080680C2188433C498860084680688008E4
:1041D000800088600846406A082188433649486262
:1041E000364800F063FA10BD3248C06B0121C906A1
:1041F00008433049C86309202F4908600846806891
:10420000802188432C498860084680686021884363
:10421000294988600846806810210843264988603B
:10422000084680680C210843234988600846806856
:104230008008800088600846406A082108431E49BB
:1042400048621F4800F032FACDE71A48C06B0121DE
:10425000C90608431749C8631A2017490860084669
:1042600080688021884314498860084680686021FE
:10427000884311498860084680681021084300E09F
:1042800016E00D498860084680680C2108430A49F9
:104290008860084680688008800088600846406A18
:1042A0000821084304494862064800F0FFF99AE7EC
:1042B000054898E70080044000B0034000F1FF1F6C
:1042C00008F1FF1F10F1FF1FFFFF000070B504464B
:1042D0000D46164618212046FCF7F2FB32462946C9
:1042E000204600F047FF204670BD70B504460068C8
:1042F000416A204688472068012203690021204640
:1043000098470546401C206811D00222036900210D
:104310002046984706462068002203692946204621
:1043200098472068816A20468847304670BD816A78
:10433000204688470020C04370BD7047704700008A
:10434000F8B504461748184D20602868002801D1A8
:10435000281D28600146281D0090814204D0592262
:104360001249134800F098FF002112482F681022CC
:104370000E468B00C558A54200D1C650491C521E9E
:10438000F7D10948002F01D0016801E0011D01604B
:104390000098814204D059220449054800F07CFF6E
:1043A0002046F8BDAC770000C0F0FF1F5079000038
:1043B0003C7900005CF1FF1F10B50C46001D01F0B8
:1043C000EFFF204610BD000010B509010C18A069D0
:1043D0000C34002805D1FF22E8320449044800F0DB
:1043E0005BFFE06801682046884710BDB179000096
:1043F000AC790000FFB581B018490160002141602F
:1044000081601C460223102215490C3000F092FAFC
:1044100005460C3D00260462300144190C34E16865
:10442000104F2046002901D0896888470E48761C25
:104430002760E060022EEFD3281D039A029901F055
:10444000DDFE281DE96A01F0AFFD2A460749281D57
:1044500001F09AFF284605B0F0BD0000E0770000AB
:104460002D3B0000C9480000A0790000C9430000AE
:1044700001688968084710B50A4604690346011DAA
:10448000204601F0D9FF10BD10B50269011D10468C
:1044900002F019F810BD000010B50446064820606F
:1044A00000206060A060E06000F0E6FD034920614C
:1044B00002F02CF8204610BDF8770000714400008F
:1044C00010B5044603482060211D206901F0FBFF60
:1044D000204610BDF877000010B50021FCF72CFA3B
:1044E00010BD000010B51C46029BFFF783FF21465C
:1044F000303000F053F8044930380160034941631B
:104500000349016310BD00000C78000068780000CA
:104510002C78000010B50A4901600A4941630A4934
:104520000163303000F05CF830380849016004461F
:104530000223102206490C30FCF71AFC204610BD5D
:104540000C780000687800002C780000E07700000C
:10455000416800000020704700207047002070472D
:10456000F8B5054600680E460C468F18416A284685
:104570008847BC4209D028682178C26A2846641C52
:104580009047401C01D0BC42F5D12868816A28467A
:104590008847A01BF8BD00207047000010B584B00C
:1045A00000F028F904460A4820600A4860600020AC
:1045B0006061224608A16846FBF7EAFE07A168464B
:1045C000FCF790F96061FFF787FF204604B010BD4B
:1045D00078780000B47800003A257000772B00004E
:1045E00010B5044605482060054860606069FCF726
:1045F000B1F9204600F010F910BD000078780000F5
:10460000B478000010B5044640686169411820463E
:10461000FFF731FF606A1834002805D1FF22E83225
:104620000449054800F038FEE068016820468847E4
:1046300010BD0000B1790000AC79000010B5104940
:104640000446016000F086FC2046FFF71DFF606A0B
:104650001834002802D0816820468847200001D005
:104660000021E16000F0BCFCE068002802D0816815
:104670002046884720461838FFF722FF10BD00006B
:10468000C478000070B50546024802F0BBF8044645
:1046900000BF70BD24F1FF1F70B50546024802F04F
:1046A000B1F8044600BF70BD24F1FF1F70B5044689
:1046B0002068816820468847201D00F03DFC0546A3
:1046C0002068C16820468847284670BD70B50446FA
:1046D0000D46074820602046FFF7D4FF2946201DDD
:1046E00000F0C2FB2046FFF7D7FF204670BD000058
:1046F000D87800007047000070B506460D46164891
:1047000002F080F815480468002C20D0A06800282A
:104710001AD02A463146FCF765F9002814D1A06862
:10472000FCF73EF9A8420FD10B480168002901D1DE
:10473000011D0160001D814204D059220849094829
:1047400000F0AAFD204670BD6468002CDED102484E
:1047500002F058F8002070BD44F1FF1F40F1FF1F28
:10476000507900003C79000070B504460026666070
:104770000A48A16020600D462273094802F042F801
:10478000002D04D0074801686160046000E06660A5
:10479000034802F037F8204670BD0000F0780000B2
:1047A00044F1FF1F40F1FF1F10B504460E48206082
:1047B0000E4802F027F8A06800280FD00C490868BE
:1047C000A04202D16068086008E04168A14203D0BD
:1047D00008464968A142FBD161684160034802F084
:1047E00011F8204610BD0000F078000044F1FF1FD2
:1047F00040F1FF1F10B5054A04C00022FFF7B4FFC7
:104800000349001F01600349416010BDAC770000FF
:10481000007900003479000010B5001DFFF7C4FFD7
:10482000001FFFF78DFD10BD10B50446406800283D
:1048300003D0007BC046012801D0002010BD606875
:1048400010BD10B504464068002803D0007BC04668
:10485000002801D0002010BD60680028FBD0001F98
:1048600010BD4068002800D00120704710B5406896
:10487000002804D0007BC046002801D0002010BDD5
:10488000012010BD10B5044600202060606008784B
:104890002F280FD1487800280CD04B1C00211A4635
:1048A000236010782F2807D0002807D0521C491CFD
:1048B0002260F6E7204610BD501C20601846FFF726
:1048C0001BFF6060204610BD7047704710B5303840
:1048D000FFF772FD10BD7047F8B5040C8BB2264689
:1048E00082B25E43104658430D0C370C360400214B
:1048F0008019164679416E43370C360480192646D6
:1049000079416E438919F8BD4900CA02024310007B
:1049100000D004204A0D01D001221043044A490D61
:10492000914201D102210843012800D1052070479E
:10493000FF070000FFB581B01C4617460E0007D0E8
:10494000019D02E02846B047ED192046641EF9D2C9
:10495000019805B0F0BD10B50020FDF7AFFC10BD0B
:10496000F8B504464F1EC8000838211815461E46E3
:10497000086849683A4606239A4310D02A463346C7
:10498000FCF742FE3A46D200083AA3181A687F1E86
:104990005B68FCF7B9FB06223B469343EED1022F3E
:1049A00023D0042F11D0062F2FD12A463346FCF7EF
:1049B0002BFEE36AA26AFCF7A7FB2A463346FCF704
:1049C00023FE636A226AFCF79FFB2A463346FCF704
:1049D0001BFEE369A269FCF797FB2A463346FCF706
:1049E00013FE63692269FCF78FFB2A463346FCF706
:1049F0000BFEE368A268FCF787FB2A463346FCF708
:104A000003FE63682268FCF77FFBF8BD002210B547
:104A1000134610460149FCF7A7FB10BD0000F03F0C
:104A200010B5FCF771FB10BD002210B513461046FF
:104A30001146FCF799FB10BD10B50721024A002072
:104A40000907FDF755FC10BD01030000034A10B52E
:104A500000201107FDF74CFC10BD000001FDFFFF19
:104A6000F8B5012109032F48FFF730FE04462E4A0E
:104A70002E490120C0462E492E48FFF727FE044646
:104A8000294A2A490120C0462949091D2A48FFF719
:104A90001DFE0446244A25490120C046274C2046D5
:104AA000FFF7FAFC04462648206020461830002212
:104AB000002A02D10021C16009E00146084600BF7A
:104AC000031E00D01A601F4ECE6000BF00BF00BFA3
:104AD0000446183C00BF2546134A1B4928460120BE
:104AE000C0460122124948311848FFF7EFFB012266
:104AF0000F4944311648FFF7E9FB012215491648D2
:104B0000FFF7E4FB4B20C0010023042208210090A2
:104B10001248FFF7E7FC0446034A11490120C0464A
:104B2000F8BD000000F1FF1F00000000F546000086
:104B30000410000008F1FF1F10F1FF1FE4F1FF1F38
:104B4000C4780000A07900003D4600000CF2FF1F71
:104B500024F2FF1F043000003CF2FF1F54F2FF1F3D
:104B60001545000002486A46C008C00070470000B2
:104B7000BFF3FF1F30380A2801D201207047002000
:104B8000704710B5C046C04610BD0000032801DACA
:104B90000020704781000748002209188039486FBB
:104BA0004A67002802D00168496808470020C043CE
:104BB000704700005CF1FF1F032801DA00207047F6
:104BC0000649800040188038406F002802D00168F4
:104BD000896908470020C043704700005CF1FF1F4F
:104BE000032801DA01207047064980004018803808
:104BF000406F002802D00168C96808470020C04300
:104C0000704700005CF1FF1FF3B583B0674903985C
:104C1000FBF758FF4B25664CED01002810D0654985
:104C20000398FBF74FFF002819D063490398FBF75F
:104C300049FF002822D0614C206800282DD02EE0AA
:104C40002068002808D1042208215D4801F0D6FA26
:104C500029465B4801F0A8F9002005B0F0BD2068A6
:104C6000002808D104220821554801F0C7FA294636
:104C7000534801F099F9012005B0F0BD20680028E3
:104C800008D1042208214E4801F0B8FA29464C48C0
:104C900001F08AF9022005B0F0BD201D2060271D1B
:104CA000B84204D059224749474800F0F5FA002598
:104CB000464E21686C1EA8003058002803D06D1C99
:104CC000102DF8D301E0102D0FD33C48002901D15D
:104CD000011D01600068B84204D0592239493A48A0
:104CE00000F0DAFA204605B0F0BD0020C043AC0069
:104CF00030513248002901D1011D01600068B842DD
:104D000004D059222F49304800F0C6FA03980078A1
:104D10003A2811D068460399FFF7B4FD6846FFF7BB
:104D2000A0FD00283CD06846FFF7A0FD002868469B
:104D300009D0FFF786FD2DE06A4625A10398FBF711
:104D40003DFB009826E0FFF76FFD070028D004998F
:104D5000880701D5022008E0480701D5012004E0BA
:104D6000080701D5092000E000200A07920F02D0B1
:104D7000012252021043490702D50121890208434A
:104D8000029068460068C04601463868029A836807
:104D900038469847002803D03051E81C05B0F0BDD4
:104DA00000203051401E05B0F0BD0000506D0000E5
:104DB000C8F0FF1F576D00005F6D0000C0F0FF1FBF
:104DC000D0F0FF1F507900003C7900005CF1FF1F1C
:104DD0003A257000032801DA00207047064A800057
:104DE00080188038406F002803D0026813690022C1
:104DF00018470020C04370475CF1FF1F70B5144690
:104E00000E46032819DA15480068002809D1042243
:104E10000821134801F0F2F94B21C901104801F0B3
:104E2000C3F80025002C06D9715D0D4801F0B8FAD1
:104E30006D1CA542F8D320460AE00A4980004018BC
:104E40008038406F002805D001680B6831469847CC
:104E5000201A70BD0020C04370BD0000C8F0FF1FC5
:104E6000D0F0FF1F5CF1FF1F70B50D4606462549C7
:104E7000284600F037FBC0B23070FF2804D11E2254
:104E8000214922A000F008FA2648C16B0122D2066F
:104E90001143C163826B290B012309318B401A43F3
:104EA000826336781024B00600D500241E4840687E
:104EB0004003410F1D48491C0068FBF753FE1C4985
:104EC00000220346D3408B4202D9521C042AF8D355
:104ED000042A00D10722F1061648C90E4160510785
:104EE000090E1207920F11439C2211438160042185
:104EF0000C43C4600022026241620249284600F06D
:104F00001FFB70BDAC6B0000FC7900006F626A2D66
:104F10003E61646320213D20284144434E616D651C
:104F2000294E43000080044040800440D8F0FF1F19
:104F3000808D5B0000B003400078C1060448C90EB4
:104F4000016001680906FCD5006980B27047000065
:104F500000B0034070B5EFF31080C007C417012004
:104F6000641C444072B60D4D6868002800D12C7056
:104F70006868401C04D1352209490AA000F08CF968
:104F80006868002806D0002C04D1392204490FA0FB
:104F900000F082F96868401C686070BD34F1FF1F42
:104FA000387C0000696E746572727570745F656E2E
:104FB00061626C655F636F756E746572203C20552D
:104FC000494E5433325F4D4158000000696E74659C
:104FD0007272757074735F64697361626C6564008A
:104FE00010B50E4C6068002816D0EFF31080C00793
:104FF000C0170121401C484004D14A22084909A099
:1050000000F04AF96068401E60606068002803D1C3
:105010002078002800D162B610BD000034F1FF1FD7
:10502000387C0000696E74657272757074735F64A9
:10503000697361626C6564000FB410B503A90298CE
:1050400000F0B8F9012000F001F80000044608481B
:10505000FBF7E5FB0748FBF7E2FB00F0D3F900287C
:1050600001D000F09BFF002C01D000F03FF9FEE7DB
:10507000F4F2FF1F48F3FF1F004870474C75000013
:1050800070B504460020205E0D46401C04D133223A
:1050900009490AA000F000F9002D07D0012D04D124
:1050A000A068016862681143016070BDA068016872
:1050B00062689143F8E700005C7A00006F626A2D35
:1050C0003E70696E20213D202850696E4E616D65ED
:1050D000294E430070B5054601800C46481C14D08B
:1050E0000121204600F092F96006C10E012088409F
:1050F0006860200B054980014018011DE960091D09
:105100002961083114306961A86070BD00F00FF8A2
:1051100070B5022605460C46FFF7DCFF611C07D080
:1051200000212846FFF7ACFF3146284600F052F830
:1051300070BD000070B50D4604460026FFF7CAFF9B
:105140006D1C12D0A05F401C04D1242207490848DE
:1051500000F0A2F821696068086001212046FFF78D
:105160008FFF3146204600F035F870BDB87A000058
:10517000BC510000F8B504460E4600271546FFF75F
:10518000A9FF761C16D0E05F401C04D124220A49F6
:105190000AA000F081F86068002D01D0E16800E00D
:1051A0002169086001212046FFF76AFF3946204641
:1051B00000F010F8F8BD0000B87A00006F626A2DA8
:1051C0003E70696E20213D202850696E4E616D65EC
:1051D000294E430010B502460020105E00F048F949
:1051E00010BD000070B514480168802211430160B1
:1051F000124900228B6840240125002B0BD0104E51
:105200000260866002682243026002682A430260EC
:105210005B1E8B6070BD0B88002B09D00260836021
:1052200003682343036003682B4303600A8070BD57
:1052300001F05CFA70BD000000000440DCF0FF1FCC
:10524000FFFF000086B0FEF7E3FC002003901FE0A4
:105250000120FEF78FFF05900120FEF78BFF064629
:10526000FCF714FC05460B4901F098FB04468F211E
:10527000C905FCF717FB0390FEF7D2FE0290FEF77C
:1052800051FF0490684600890499FEF741FD0190A2
:10529000DEE700003333534070B514460D46064632
:1052A000FFF758FE23462A46314603A000F056F881
:1052B00000F01CF870BD00006D62656420617373BE
:1052C0006572746174696F6E206661696C65643AB9
:1052D0002025732C2066696C653A2025732C206C80
:1052E000696E65202564200A0000000086B0FFF783
:1052F00031FE12496846FFF71DFF69460020085E2F
:10530000401C04D124220E490EA0FFF7C5FF0399CB
:1053100001980860962001F03BFA69460020085E7B
:10532000401C04D12422064906A0FFF7B5FF0499CA
:1053300001980860962001F02BFADEE74810000083
:10534000B87A00006F626A2D3E70696E20213D20A0
:105350002850696E4E616D65294E43000FB470B5DB
:10536000A0B025AC249DFFF7F5FD224629466846EE
:10537000FAF7FCFF051E11DD0C480068002804D177
:10538000042208210A4800F039FF00246E46315DEE
:10539000074801F005F8641CAC42F8DBFFF720FE7B
:1053A00020B070BC08BC04B018470000C8F0FF1F54
:1053B000D0F0FF1F70B5A0B00C460546FFF7CAFD40
:1053C000224629466846FAF7D1FF051E11DD0B4833
:1053D0000068002804D104220821094800F00EFFCB
:1053E00000246E46315D064800F0DAFF641CAC42D2
:1053F000F8DBFFF7F5FD20B070BD0000C8F0FF1F1F
:10540000D0F0FF1F10B500F0C3FD10BD70B504460D
:105410000D46401C04D114220D490EA0FFF73CFF9D
:10542000114A200B6106936BC90E0446093401260C
:10543000A640334393630003890040180B4940188A
:1054400001680722120291432A021143016070BDD4
:10545000287B000070696E20213D202850696E4E27
:10546000616D65294E4300000080044000900440B7
:1054700070B504460D46401C04D12122054906A002
:10548000FFF70AFF094820180168890889002943A5
:10549000016070BD287B000070696E20213D2028CE
:1054A00050696E4E616D65294E43000000900440C6
:1054B000884202D0421C01D10846704710B5491CF1
:1054C00004D003A0FFF7B8FD0020C04310BD0000CA
:1054D00070696E6D6170206D69732D6D61746368A4
:1054E00000000000002210B5D243431C0BD0002363
:1054F000CB5E5B1C0ED00023CB5E834205D14C6893
:10550000601C08D00AE0104610BD0C23CB5E0C31A5
:105510005B1CF0D1144602A0FFF78EFD204610BDA3
:1055200070696E6D6170206E6F7420666F756E6449
:1055300020666F72207065726970686572616C00B8
:1055400010B50446401C0FD00020085E401C12D04D
:105550000020085EA04208D189682046FFF756FF68
:1055600000212046FFF784FF10BD0C20085E0C319F
:10557000401C0028ECD102A0FFF75EFD10BD00002A
:10558000636F756C64206E6F742070696E6F7574D4
:1055900000000000F0B51FB496B084460C460246E9
:1055A000199D189803904900680063004908400855
:1055B0000193002A01D0012600E000269E19FE4B2F
:1055C000F6185B109E422BD36E00039F0296002FAD
:1055D00000D00127F719F84EF84BBE199E421FD391
:1055E000039E0346F64F334309D03B469C4201D10C
:1055F000002A04D0019B002A05D0012604E00020E7
:1056000039461BB0F0BD00269E19EE4B9E4207D8CE
:10561000039F029E002F00D00127F6199E4207D952
:105620002B4660462146189AFFF7FAF91BB0F0BDE9
:105630000023002C29DAE44EB04226DAE34EB042D1
:1056400001DB022321E0DE4EB0421EDBE04E070DFF
:10565000BE19142E09DD3427BF1B039EFE400196A0
:10566000BE40039FBE420BD00FE0039F002F0CD122
:105670001427BF1B0646FE400196BE40864204D159
:10568000019BDE07F60F02239B1B0E46164318D123
:10569000002D16DA002C03D0022B01D0012B06D0EE
:1056A0000220FCF74BFAFFF7B1F91BB0F0BD022066
:1056B000FCF744FAFFF7AAF90122D20751401BB0C8
:1056C000F0BD039E002E61D1BF4EB04220D1C14833
:1056D000844201D1002A08D0B948814209DB002D5B
:1056E00010DB189829461BB0F0BD0020B4491BB050
:1056F000F0BD002D06DA01222946D2071898514044
:105700001BB0F0BDB4497944086849681BB0F0BDCE
:10571000AB4FB84225D1002D1FDA002904D0B14289
:1057200012D1002A09D018E0002A72D1A649E20F4E
:105730000020D20711431BB0F0BD0020E20F01464C
:10574000D20711431BB0F0BDB14206DA2346002058
:105750003946FBF709FD1BB0F0BD104621461BB0D2
:10576000F0BDB14212DA0126B607B54203D1234695
:1057700010461946FEE3994EB54207D1261E05DBB9
:105780001046314600F01EFE1BB0F0BD67007F08DA
:105790001646002A40D100290AD08B4A914229D1CD
:1057A000002C0EDD002D1CDB002011461BB0F0BDCF
:1057B000022B16D0002C14D0012B12D1002C14DB9C
:1057C0000FE0002C28DA002D09DB012B03D000208C
:1057D0007D491BB0F0BD002081491BB0F0BD012BFD
:1057E00003D0002001461BB0F0BD00200121C907F5
:1057F0001BB0F0BD724A91420ED1002C01DA002B91
:1058000017D0022B06D00020C043FBF7F2FE1BB0DE
:10581000F0BD90E20120F8E7E217521C94461A43CB
:1058200007D000220892664C62465B1E1A4307D0DE
:1058300009E00120FCF782F9FFF7F6F81BB0F0BD94
:105840000022644C0892674A90427DDD664B674AAD
:1058500098421FDD914202DC002D05DB4DE05848E7
:10586000814217DB002D48DD0220FCF767F9FFF7C6
:10587000E3F805460E460022534B21460898FBF7F5
:10588000C3FE084671004908C00FC00701432846FF
:105890001BB0F0BD914215DA002D2EDA0220FCF784
:1058A0004DF9FFF7C9F805460E460022464B214642
:1058B0000898FBF7A9FE72005208C80FC007024300
:1058C000114617E03E4B994223DD002D15DD0220E5
:1058D000FCF734F9FFF7B0F805460E4600223A4BC4
:1058E00021460898FBF790FE084671004908C00F52
:1058F000C007014328461BB0F0BD0220FCF71EF98B
:10590000FFF7A4F849004908E20FD20711431BB082
:10591000F0BD002230463946FBF703FC0122054664
:105920000E46D243FCF7E4FC314A324BFBF704FC51
:105930002A463346FBF768FE0022284BFBF7FCFBA8
:1059400007462A46334600E064E0039110461946B4
:10595000FBF75AFE3A46039BFBF756FE0746032227
:1059600009915207244B28463146FBF74DFE07911B
:105970000C90224A204B38460999FBF745FE074612
:1059800001911F4A1F4B28463146FBF73DFE3A4620
:10599000019BFBF7C6FB07460B4602460991079998
:1059A0000C98FBF7B1FB00250E462846079B0C9A86
:1059B000FBF7B7FB3A4627E0FFFF1F00FFFF0F0092
:1059C0000000F03F0000E0FF0000F07F00004043D7
:1059D00001FCFFFF0000F0BFD61F00000000E03F09
:1059E0000000F0FF0000E0410000F043FFFFEF3F48
:1059F000555555555555D53F4715F73FFE822B65F3
:105A000044DF5DF80BAE543E099BFBF795FB024665
:105A10000B4652E1012500202D05A94207DA352267
:105A200030463946FCF764FC06463420C0430A156C
:105A30001218FE48101803900803FD49000B01439B
:105A40000F46FC49884201DC002003E0FA49884205
:105A500002DA0120119005E0002011900398401C0B
:105A60007F1B039011980597C200F4480F92784469
:105A7000801843680268394630460D930292FBF75E
:105A800050FB07910C9030460D9B029A0599FBF74D
:105A90003BFB02460B460020E549FBF765FB0991FD
:105AA0000490079B0C9AFBF7AFFD1290002010901A
:105AB000E3480D46784400680E90012178104907AC
:105AC000084311990D9B890440180121C904471806
:105AD0003946029A0E98FBF724FB3246059BFBF7EA
