:020000040000FA
:1000000000300020A1020000452C0000AB020000DF
:1000100000000000000000000000000000000000E0
:10002000000000000000000000000000AD02000021
:100030000000000000000000AF020000B10200005C
:10004000B3020000B3020000B3020000B3020000DC
:10005000B3020000B3020000B3020000B3020000CC
:10006000B3020000B3020000B3020000B3020000BC
:10007000B3020000B3020000B3020000B3020000AC
:10008000B3020000B3020000B3020000B30200009C
:10009000B3020000B3020000B3020000B30200008C
:1000A000B3020000B3020000B3020000B30200007C
:1000B000B3020000B3020000B3020000B30200006C
:1000C00000F002F800F0C3F80CA030C8083824187B
:1000D0002D18A246671EAB4654465D46AC4201D180
:1000E00000F0B5F87E460F3E0FCCB64601263342EF
:1000F00000D0FB1AA246AB4633431847B852000063
:10010000D8520000103A02D378C878C1FAD8520702
:1001100001D330C830C101D504680C6070470000BD
:100120000023002400250026103A01D378C1FBD813
:10013000520700D330C100D50B60704710B56E294F
:1001400002D101F010F810BD702902D100F0D5F9EC
:1001500010BD662902D104F025FD10BD652902D12C
:1001600004F020FD10BD672902D104F01BFD10BD75
:10017000612902D104F01EFD10BD03681B0A01D3E2
:1001800080231943692902D100F042F910BD642986
:1001900002D100F03DF910BD752902D100F038F907
:1001A00010BD6F2902D101F0C7F810BD782902D126
:1001B00000F090F910BDE92902D101F063F810BDFB
:1001C000E42902D101F05EF810BDF52902D101F059
:1001D00059F810BDEF2902D101F0BAF810BDF82985
:1001E00002D100F085F910BD0368DB0901D380233B
:1001F0001943632902D101F0B2FE10BD732902D167
:1002000001F0B5FE10BDE32902D101F0BFFE10BD23
:10021000F32902D101F0C2FE10BD002010BD1FB5B0
:100220000098019900F0B1FE02F028F904000020C6
:10023000002104F067FB401C60600020002104F0F6
:100240004BFBE06001F0F0F900F080FD1FBD03F012
:1002500051FA114603B403F05CFA03BCFFF7DFFF69
:1002600002F0E7FC03F0BAFC70B505460C461646F2
:1002700002E00FCC0FC5103E102EFAD2082E02D38A
:1002800003CC03C5083E042E07D301CC01C5361F9D
:1002900003E021782970641C6D1C761EF9D270BDB4
:1002A0000448804704480047FEE7FEE7FEE7FEE714
:1002B000FEE7FEE7892C0000C100000070B506468D
:1002C00000F048FE056830460B30C408E400B44234
:1002D00001D8002070BD68682A46002818D001683F
:1002E000A14211D30B46214608318B4208D3436803
:1002F00001194B6003681B1B0B605160046001E037
:1003000041685160001D70BD024640680028E6D17A
:100310002146284600F024FE0028DCD170BD70B5CF
:100320000446051F00F016FE0068002C1AD0446831
:1003300001E020466468002C01D0AC42F9D301688A
:100340000A18AA4204D12A6805468918016000E00B
:10035000456028684119A14205D16168696021683A
:100360004018286070BD6C6070BD00001CB50C4664
:10037000064B7B4469460090204600F00CFF044683
:100380000020694600F01AFF20461CBD470E000001
:100390000FB41CB5084B06AA7B446946009005982B
:1003A00000F0F9FE04460020694600F007FF2046F1
:1003B0001CBC08BC04B01847210E00000FB400B5E7
:1003C0008DB010A909900B900020C04300910A90B5
:1003D00000200C90074878440690074878446A4605
:1003E00007900F9909A800F0D3FF0DB008BC04B026
:1003F00018470000DB0F0000F50F00007047704742
:10040000FFFFFFFFFFFFFFFFFFFFFFFFFEFFFFFFFD
:10041000F7B5002575291068009914A611D000F0D1
:100420000FFE002802DA404211A608E00099096890
:100430008A0701D50FA602E0490704D50EA60125BB
:1004400001E000F006FE009F0024243704E001F0E4
:100450008FF930313955641C0028F8D12B463246CB
:100460002146009800F027FEFEBD000000000000BD
:100470002D0000002B00000020000000F8B50F4602
:100480000188090502D5224C7C4402E0204C7C44C2
:100490000E3405460021243508E016071209360FF0
:1004A000A65D6E541E0732431B09491C16461E43A7
:1004B000F3D1224604780023240705D5702F06D0F7
:1004C000002901D00223113200F0F5FDF8BD01230F
:1004D0001032F9E770B504460D462146106800F069
:1004E000B8FD0023024629462046FFF7C7FF70BD2E
:1004F000D21DD308DB000CCBC0E730B40368202446
:100500001268234303600823C36130BC0023B5E7AE
:1005100010490000F3B50446002081B02062204657
:10052000E1688847002872D0252802D06268A16857
:10053000ABE0594F00267F442046E16888472028D9
:10054000054608DB312D06D27819203800780028BE
:1005500001D00643F0E7B00701D504208643002010
:10056000E0610746A0612A2D0AD0284603F0CAF8A8
:10057000002827D0B8000019303D0090856119E0AF
:100580000298BA00121902C8916102902046E168EF
:100590008847012F054617D1E06900281FDA20207F
:1005A00086431CE000980A2180694843009940195D
:1005B000303888612046E1688847054603F0A2F894
:1005C0000028EFD1012F0AD02E2D08D12046E16856
:1005D00088470546202006437F1C022FC3DBA06905
:1005E000002803DA4042A06101200643F00701D051
:1005F000102086436C2D0BD0682D09D04C2D3CD09B
:100600006A2D38D0742D38D07A2D36D016E040E0DF
:10061000E1682F4620468847B842054609D16C2F2D
:1006200029D001208002E16806432046884705461C
:1006300004E06C2F1DD0FF2001300643002D28D090
:1006400028464138192803D80120C0020643203526
:10065000204626602946029A1646FFF76FFD0028BD
:1006600010D001280BD0F61DF008C0000830029011
:1006700055E74020E1E78020D5E70020D3E7361D8D
:1006800002964CE762682846A1689047206A401CA1
:1006900044E7206AFEBD00008A480000FFB51D4601
:1006A0000027FF4383B05C68002001909E68A96921
:1006B00004987F1C88470090296A88470028F6D153
:1006C0000098401C0CD0032040028443002E19DD0A
:1006D000600614D500982B2809D02D280FD103E0EF
:1006E0000020C04307B0F0BD012080020443A96987
:1006F00004987F1C8847761E002E009002DD00982B
:10070000302803D00598002825D035E00120A969BC
:1007100040020443761E04987F1C8847002E0090F8
:1007200003DD782805D0582803D00598002810D07C
:1007300022E00598002801D010281DD10120A969C8
:1007400040028443761E04987F1C88470090102046
:1007500002E0082000E00A2005900DE00121059A42
:1007600049020C430199761E514308180190A9696A
:1007700004987F1C88470090002E05DD059900989D
:1007800000F0F0FD0028E9DAE96904988847A0053F
:1007900002D40120C043A5E7E00722D1600611D5AD
:1007A0006005019800D5404229680A1D2A60096841
:1007B000220501D5087014E0220701D5088010E059
:1007C00008600EE02868011D29600068210502D537
:1007D0000199017005E02107019901D5018000E030
:1007E000016038467EE7000070B50446C0688107A6
:1007F00013D0800601D5A56A04E0A169606840189D
:100800002169451A204600F0C7FE00220646294607
:10081000204600F0F1FD304670BD002070BD70B57F
:10082000002802D0FFF7E0FF70BD0025074C6E1EC8
:1008300008E02046FFF7D8FF002800D03546206D9D
:1008400044086400002CF4D1284670BDA0F2FF1FBC
:10085000F7B516460C46104600F07CF82078611C6F
:1008600061280AD0722802D0772839D102E0012508
:10087000002404E00225042401E02D4D0824022276
:10088000032301270878491C2B2806D0622807D0AB
:100890002039C87F742807D008E01D431443F1E7CE
:1008A000042005433C43EDE7102004430098214613
:1008B00002F072FF411C13D00021316171600121EF
:1008C000F5604902F1617061200704D530460222CB
:1008D000002100F091FD306D384330653046FEBD9B
:1008E0000020FEBDF8B50D460646124C206DC1072E
:1008F00004D0410804D044086400F7E7224610E021
:100900005420FFF7DBFC070010D07908206D490068
:1009100001221143084354212065384600F0D0F8E5
:100920003A4629463046FFF793FFF8BD0020F8BD50
:1009300002800000A0F2FF1F10B5002902D0FF22A4
:10094000013201E00122920201235B0200F0CEFDA0
:1009500010BD0000FEB50446466900690F4F0190C6
:10096000E56800200090A80707D0204600F014FE9C
:10097000304602F0D3FE002801DA3846FEBD2805D5
:1009800002D50198FFF7CBFC4C21204600F098F8E7
:10099000206D4008400020650098FEBDFFFFFFFF6E
:1009A00030B5441C03E00178401C00290DD08107BC
:1009B000F9D10B4BDD0104C8D11A91432940FAD07B
:1009C000001B0A0603D0C01E30BD001B30BD0A0448
:1009D00001D0801E30BD0902FCD0401E30BD000099
:1009E000010101010346F0B50B439B072DD1244DB6
:1009F000EF01042A29D308C810C95E1B9E43121FA9
:100A00003E4017D0D8B2E1B2401A3106014310D1AE
:100A100098B2A1B2401A310401430AD1180221024E
:100A2000000A090A401A3102014302D1180E210EB0
:100A3000401AF0BDA342DCD018BA21BA884201D9CD
:100A40000120F0BD0020C043F0BD002A01D10020EC
:100A5000F0BD03780C78401C491C002B0DD0A3423C
:100A60000BD1521E09D003780C78401C491C002B76
:100A700003D0A34201D1521EEBD1181BF0BD0000E0
:100A80000101010101E004C0091F0429FBD28B0709
:100A900001D50280801CC90700D002707047002970
:100AA0000BD0C30702D00270401C491E022904D398
:100AB000830702D50280801C891EE3E70022EEE74F
:100AC0000022DFE782078B079A4237D170B5920F79
:100AD0000AD0032402780B78401C491C002A2BD032
:100AE0009A4229D12042F5D11D4EF40104C808C90B
:100AF000951B9543254010D19A4207D104C808C9D7
:100B0000951B9543254008D19A42EFD012BA1BBAE3
:100B100001209A4200D2404270BD12BA1BBA2DBACF
:100B200018241000E0401900E140401A05D12E00C1
:100B3000E64002D1083CF4D1D01A70BD02780B789F
:100B4000401C491C002A09D09A4207D102780B7830
:100B5000401C491C002A01D09A42EFD0D01A70479D
:100B600001010101002203098B4273D3030A8B4266
:100B700058D3030B8B423CD3030C8B4221D312E09E
:100B800003460B437FD4002243088B4274D30309EE
:100B90008B425FD3030A8B4244D3030B8B4228D38F
:100BA000030C8B420DD3FF22090212BA030C8B42B5
:100BB00002D31212090265D0030B8B4219D300E055
:100BC000090AC30B8B4201D3CB03C01A5241830BDA
:100BD0008B4201D38B03C01A5241430B8B4201D38A
:100BE0004B03C01A5241030B8B4201D30B03C01AB3
:100BF0005241C30A8B4201D3CB02C01A5241830A2D
:100C00008B4201D38B02C01A5241430A8B4201D35B
:100C10004B02C01A5241030A8B4201D30B02C01A85
:100C20005241CDD2C3098B4201D3CB01C01A5241EC
:100C300083098B4201D38B01C01A524143098B4275
:100C400001D34B01C01A524103098B4201D30B015E
:100C5000C01A5241C3088B4201D3CB00C01A524183
:100C600083088B4201D38B00C01A524143088B4248
:100C700001D34B00C01A5241411A00D201465241E1
:100C8000104670475DE0CA0F00D04942031000D300
:100C90004042534000229C4603098B422DD3030A55
:100CA0008B4212D3FC22890112BA030A8B420CD365
:100CB000890192118B4208D3890192118B4204D38E
:100CC00089013AD0921100E08909C3098B4201D30E
:100CD000CB01C01A524183098B4201D38B01C01A48
:100CE000524143098B4201D34B01C01A52410309BF
:100CF0008B4201D30B01C01A5241C3088B4201D36E
:100D0000CB00C01A524183088B4201D38B00C01A1A
:100D10005241D9D243088B4201D34B00C01A5241F1
:100D2000411A00D20146634652415B10104601D37E
:100D30004042002B00D54942704763465B1000D308
:100D4000404201B50020C046C04602BD70B5064C09
:100D50007C44064D7D4403E0206800198047241D33
:100D6000AC42F9D170BD0000AC470000AC470000B8
:100D7000F8B517460E460546002B07D010465843D7
:100D80004419E41B2046B047A542FAD1284608384A
:100D9000F8BD0000F0B5FF252D04C609C209FF27E4
:100DA00004462E400137CB093E4348402A402B40A1
:100DB0000746002A6BD0002B69D0AA4267D0AB420D
:100DC00065D0002800DA32460125ED0529432C4381
:100DD00009022002090AD21A4B0C7F24E31A434C61
:100DE000000A7C44E35C7D242404121914145B0083
:100DF000A218884201D3521C00E0400049420C4630
:100E00005C4324115C43DB016415E318040A5C4372
:100E1000C502200D0C4644436419250A5D43230393
:100E2000EC0C0D46654300030019EB184C42A3423D
:100E300001D35B18401CD4052018002B07D05B00A1
:100E4000C91804D3401C002901D1400840003F21AB
:100E500089048A4209D3002A08DC1106090F04D04C
:100E6000032149074018C00FC007F0BD012241000F
:100E7000120689187F2252069142F6D205214907AF
:100E8000C84201D59010F0BDFF20C005F0BD002F75
:100E900000DA32461648AA4207D2AB4205D21902FE
:100EA000090E17D0F80FC007F0BDFF2563002D060F
:100EB000AB42F9D84900A942F6D8AB4201D1A942C8
:100EC000F2D0A94201D1002101E061004908D0051A
:100ED0000843F0BD1102090EFBD0FF200243D005EC
:100EE000F0BD0A460146104654E70000EF3F0000FF
:100EF0000000C07F1F22030C02D10F2200041CD06F
:100F0000030E01D10002083A030F01D10001121FA4
:100F1000830F01D18000921E002801DB4000521E89
:100F2000D2055118021251181922904004D3491CBD
:100F3000002801D14908490008467047C10FC90778
:100F400000D04042012292071143D3E701218907D3
:100F5000D0E70000004870479CF3FF1F70477047C0
:100F600038B504460A460020694601F05DFA0028BB
:100F700005D002462046009900F00EFC012038BD45
:100F800010B5012001F025FA10BDF8B501F040FAC6
:100F9000054600200C461020C0460646A819A0426F
:100FA0000DD932466946002001F03EFA070001D112
:100FB00001F00FFA0098A04200D00546C419FFF7CF
:100FC000C9FFF61D07460560F008C000461928460F
:100FD00000F008F8B44204D031463868A21B00F093
:100FE000DBFBF8BD0021016041608060704710208C
:100FF000704770B5044685690068C10601D5302682
:1010000000E02026C00707D070BD62683046A168A6
:101010009047206A401C20626D1EF6D570BD70B5E9
:10102000044685690078C00707D170BD6268A16871
:1010300020209047206A401C20626D1EF6D570BDAE
:1010400009684A0501D540B27047C905FCD500B210
:10105000704709684A0501D5C0B27047C905FCD57B
:1010600080B2704770B50C460546012A05D0287835
:10107000800600D5EA69002302E0012305E05B1C3D
:10108000934202D2E05C0028F9D1A869E618C01AA0
:10109000A861286AC01828622846FFF7AAFF04E062
:1010A0006A682078A968641C9047B442F8D328463F
:1010B000FFF7B5FF70BDFFB504460D4681B0243083
:1010C00000902168880604D51022E06991432160D0
:1010D00000E00120A84201DD471B00E00027049842
:1010E000A1697A191018081AA0612078C00602D4E4
:1010F0002046FFF77EFF002608E003986268A1689B
:10110000805D9047206A401C761C206204988642CD
:10111000F3DB2078C0060AD52046FFF76AFF06E019
:101120006268A16830209047206A401C20623846DF
:101130007F1E0028F4DC07E000986268A168405D2B
:101140009047206A401C206228466D1E0028F3DC70
:101150002046FFF764FF2078000602D5022005B084
:10116000F0BD0120FBE711680268006A530501D554
:10117000087009E0D30501D5088005E0130602D503
:10118000C21705C100E008600120704701694A1CD0
:1011900002610878704700B58FB002910021059177
:1011A0000549019379440391114604906846FFF77D
:1011B000B1F90FB000BD0000E5FFFFFF0A68107035
:1011C000521C0A6070470000F7B50446154686B009
:1011D0002B487844002703C83E460090019111E057
:1011E00007986A467100415A02A801F0C6F8411CEE
:1011F00007D02178890603D5E269391891420ED8C3
:101200003F18761C2078800602D5E069B84206DDDA
:10121000AE42E5DB07987100405A0028E0D1A06992
:10122000C01BA0612046FFF7E4FE154878445A38F9
:1012300003C800900020019116E041006A4607981B
:10124000415A02A801F099F80590401C0AD00025E7
:1012500005E0626802A8A168405D90476D1C059892
:101260008542F6D30498401CB0420490E5DB206A26
:10127000C01920622046FFF7D2FE09B0F0BD000081
:10128000423C0000F7B5D21D0025D20815A6D200B9
:10129000F52905CA11D0002A05DA00214042914102
:1012A00011A60A4608E0009909688B0701D50FA628
:1012B00002E0490701D50EA601251146009F002432
:1012C000243704E000F082FA30323A55641C0246BA
:1012D0000A43F7D12B46324621460098FFF7EBFE32
:1012E000FEBD0000000000002D0000002B000000EB
:1012F0002000000070B504460021243408E05507A2
:10130000D2086D0F303565545D072A43DB08491C50
:1013100015461D43F3D10468002310A2250708D504
:10132000A40601D4002904D0C46901230CA2641EC0
:10133000C461FFF7C0FE70BD10B5044621461068B9
:10134000FFF787FE002302462046FFF7D3FF10BDBC
:10135000D21DD108C9000CC9CCE700000000000074
:10136000300000003A2800D23038202302469A4349
:10137000412A01D310463738884201D30020C043A8
:1013800070470000026851181378016018467047D2
:1013900010B5D1600549794451610549794411621C
:1013A00000211161114600F0FDFD10BDEBFFFFFFB4
:1013B000A70400004268002A08D001680B78491C85
:1013C000002B03D0521E06C0184670470121C16091
:1013D000881E70474268002A0BD0C3680168002B42
:1013E00007D183688B4204D0491E521C06C00020DE
:1013F00070470020C0437047F8B5044616460D46B6
:101400004769007B800730D0384602F0B1F90028E8
:101410002BD132461026002A25D0012A02D0022ADA
:1014200023D104E0204600F087FF45191BE0384631
:1014300002F08AF9E16831430028E16004DA2046CD
:1014400000F07AF80120F8BDC9030BD56268E16AA3
:10145000914200D81146A26989182269891A8142ED
:1014600000DD08462D18002D01DA0220F8BDE16AE2
:101470006068E268814206D29103E06203D50121EF
:1014800049048A433243A669AE4211DCE16A8142D3
:1014900001D90B4600E003469F192369FF1AAF42AA
:1014A00006DD814201D90F4600E007469F4206D182
:1014B000202002430020A060A56220600DE0AD1B4B
:1014C000E669AE1B8142A66000D90846C01A281AF8
:1014D00020605819606020208243034802400020A9
:1014E000E26040342072F8BDBFCFD7FF70B5C4684A
:1014F000A50713D0650211D4D51FF93D0AD0FF3DD1
:101500006D1E07D0FF3DFF3D022D07D1014624315E
:10151000012305E0074E5D1EB54201D3012070BDD9
:101520000161C36141600F2109028C431443C4600F
:10153000002070BDFFFFFF00C168802211439203AD
:101540009143C1600021816001607047F7B5144686
:101550000E463348D5685769054209D03846A16917
:1015600002F000FA002811DB2D48C0430540E56079
:101570002B4632463846009902F008FA4200A1692B
:101580005208B21A89180028A16104D02046FFF73A
:10159000D3FF0020C043FEBD70B504460569C06A94
:1015A0006168884200D80846E1680522D204914368
:1015B000E160C90314D5A84209D02246411B284640
:1015C000FFF7C4FF002802D00020C04370BDE562D1
:1015D00000206560A060E068012109048843E060A4
:1015E000002070BD10B50446C06820218843E0602B
:1015F000A16AA06988420ED02046FFF7CDFFE068BF
:1016000003210903884310210843E060A06AA06118
:101610002069E06260600349E0680840E06010BD56
:1016200010000200BFBFFFFF10B543485421FFF771
:1016300047FA42485421FFF743FA41485421FFF743
:101640003FFA40483C493D4B404A01603E480360F8
:101650003B4810605A1C0A65411C1965012101654F
:101660003C48354A3AA17844FFF7F2F8002804D103
:10167000384878440C3800F0A6FE38482F4A36A186
:101680007844FFF7E5F8002804D1344878440C3852
:1016900000F099FE32482A4A2FA17844FFF7D8F883
:1016A000002804D12E4878440C3800F08CFE4023EA
:1016B0002148DC0000212246FFF718FF002804D053
:1016C000244878445C3800F07EFE1C4822464023C3
:1016D0000021FFF70BFF002804D0204878445C3835
:1016E00000F071FE1648224610230021FFF7FEFE8F
:1016F000002804D01A4878445C3800F064FE10BD1D
:101700000F4870B5006D44080B486400FFF722F9DC
:101710000A48FFF71FF90A48FFF71CF909E0206D96
:10172000450820466D00FFF715F92046FEF7F7FD46
:101730002C46002CF3D170BDA0F2FF1FF4F2FF1F66
:1017400048F3FF1F4CF1FF1F50F1FF1F54F1FF1F23
:1017500072000000FE36000077000000EB3600004B
:10176000D936000010B500F03BFE00F026FE10BD9B
:1017700001468008081A02091018020A1018020C03
:101780001018C008820012185200891A01E0401C8B
:101790000A390A29FBD2704710B50346406801E0B8
:1017A00003464068002801D08842F9D31868C3185E
:1017B0008B4206D0CB1CD808C000001D411A521A1B
:1017C0000146081D0A60FEF7AAFD10BD0B4670B564
:1017D000024689078008084319469D08141AA94142
:1017E00025090807054308092C194841250A01065F
:1017F0000D43010A2C194141200C0D0428430D0C06
:1018000000194D41002140194D41C00869070843A6
:10181000E908840F8D002543840024184D412419C4
:101820006D41121BAB4107E00925ED432C11521904
:1018300063410024401C61411C460A250026551BBB
:10184000B441F1D270BD10B5044600F00FFE00683F
:10185000005DC007C00F10BD7047FFB50C461E46A7
:101860008FB003CA089009914F007D0D00D16D1E05
:10187000002108460020C0460321099A8905084036
:10188000002A03DA8200801840080840800D0128F1
:101890000A9002DD0020C0430A90089807430DD04B
:1018A000F048F149281848430714189800281DD01B
:1018B0007542291E1DDD0A9842421BE01898012836
:1018C00002D00020302104E00020F24305E0215442
:1018D000401CB042FBDB30460022189B0021215403
:1018E0000F998B600A60486013B0F0BDBD1B6D1C82
:1018F000DFE70A9A002900DA69420BA800F00AFE25
:101900000BAB07CB03AB07C30899099800F06EFE39
:101910006B4607C30146D5480918002D00910BDD21
:10192000D24903980A9A49424018002303A9039018
:10193000684601F0CBF808E003990A9A00230818DA
:1019400003A90390684601F06BF86B4607C30004D7
:10195000000C03D00020C043410800E01046189A54
:10196000002A03D00022009215461EE0751E05D401
:10197000FFF72CFF303262556D1EF9D50122084366
:10198000079602D000227F1C04E02078302801D185
:1019900000227F1E002A069787D01EE0112D07DA4D
:1019A000FFF714FF303262556D1C02460A43F5D131
:1019B000084303D00098002819D00EE00021681ECB
:1019C00005E0235C625C63542254401E491C814242
:1019D000F7DBA81B401E07950690079A1899002070
:1019E000A0540F98079B069A81600CC07CE71126D3
:1019F0000020189059E7D21DF0B50D460446D108D5
:101A000093B0C90003C90C900D9101F0C5FD0246C9
:101A10000D98C00F01D02D2007E02068810701D567
:101A20002B2002E04007C00F4001032A0F9001D095
:101A3000072A05DB03462946204600F027FD0EE174
:101A40002078800601D5E76900E006272846652D45
:101A500004D0662814D0672D69D12DE00020112F05
:101A6000009001DB112300E07B1C0CAA03A910A845
:101A7000FFF7F3FE1199002610987D1C0E9142E0AD
:101A800001203B460CAAC0070B900120009003A93F
:101A900010A8FFF7E2FE119D129810990026002869
:101AA0000E9501D1781C0D18781B02D446427D1C7E
:101AB000761EE81B00903AE0012F00DA0127002093
:101AC000112F009001DD112300E03B460CAA03A971
:101AD00010A8FFF7C2FE11993D46109800260E91FE
:101AE000217809070BD40E99A94200DA0D4603A903
:101AF000012D04DD4A19203AD27F302A06D0B8429F
:101B000001DA011D04DA012100910FE06D1EEFE7FB
:101B1000002802DC86192D1A03E0411CA94200DDD1
:101B20000D46801B401C00900120C0070B902078C0
:101B3000000705D40098A84202DB0020C0430090B3
:101B400069460020C8720B98012102AF0337C9070C
:101B5000884225D0022010902B2011900B9800284D
:101B60000BDA40420B902D20119006E00B98FFF706
:101B7000FFFD30317F1E0B9039701099481E0029EF
:101B80001090F3DC0B980028F0D111987F1E38706C
:101B90002088000501D5452000E065207F1E3870B3
:101BA00001A8C01BC01D0B900F98002800D0012079
:101BB00041190098C01709180B980818A169081A4C
:101BC000401EA0612078C00602D42046FFF711FA1B
:101BD0000F98002805D06268A1689047206A401CD1
:101BE00020622078C00625D52046FFF702FA21E0C2
:101BF000002E07DB0E98B04204DD03A86268805D0A
:101C0000A16802E06268A16830209047206A761CD3
:101C1000401C20620098401E002800900AD100F06D
:101C20002DFCC06862680168405CA1689047206A2A
:101C3000401C206228466D1E0028D9DC07E062683F
:101C40003878A1687F1C9047206A401C20620B995D
:101C5000481E00290B90F2DC2046FFF7E0F9032034
:101C600042E6000001FCFFFF104D0000E1DFFFFF36
:101C7000D21DF0B504460D46D0088DB0C0004668B0
:101C800007683146384601F087FC0246F00F01D064
:101C90002D2307E02068810701D52B2302E04007B0
:101CA000C00F43016846002B037001D0012000E003
:101CB0000020032A0A9001D0072A04DB2946204687
:101CC00000F0E4FB2DE12078800601D40D2500E032
:101CD000E5697000400D0D2D01904BDA300D0021AB
:101CE0000B9008460020C046032189050840002EBD
:101CF00005DA82008018C20F1018401008408015C5
:101D0000012801DD0020C043A9000023182906D3C3
:101D10009C460A460123183A1B07D34003E00122E0
:101D20001205CA4094460C31202902D33A46203984
:101D300000E032468A40002802DD002A06D119E080
:101D4000002817D10121C9078A4213D319466346D7
:101D50007F185E41002806D10120C007824202D1CF
:101D6000084687439E430B98310D814202D001986B
:101D7000401C01902088000502D57149794402E099
:101D80006F49794419396B460A9830221A540A98D7
:101D90000A7C401C1A54401C0A900198002801DC5F
:101DA000302000E031201872019A0120002A02D070
:101DB000644BD21804E072003A4302D0614A521CCC
:101DC0000192002D02DC2278120703D56A462E20EC
:101DD000507202200022864694460CE032033601FF
:101DE000120F6D1E8B5C02AA13546246521C401CDB
:101DF0009446052A01DA002DF0DC002202AE08E04C
:101E00003B0F3F01CB5C521C6D1E3354401C082A13
:101E100001DA002DF4DC23689A0601D511E0401E9A
:101E2000704504DD3218203AD27F302AF7D00028DE
:101E300007DD3218203AD27F2E2A02D11A0700D4A9
:101E4000401E002D03DD3E223254401C6D1E497C95
:101E500031540199401C002906DA2D21471C3154C8
:101E600001984042019003E02B21471C3154019816
:101E70007D21C900884206DBFEF782FE3030F05536
:101E80007F1C019101E0642808DB01986421FEF7C2
:101E900077FE3030F0557F1C019101E00A2806DB07
:101EA00001980A21FEF76CFE3030F0557F1C019836
:101EB0000A21FEF765FE3031F1550A98A1697F1CB1
:101EC0007A191018081AA0612078C00602D420469A
:101ED000FFF78FF8216A6E460A980818206204E01E
:101EE00062683078A168761C90470A98401E0A9074
:101EF000401CF5D12078C00602D52046FFF779F8BE
:101F000002AE09E03078761C3E280DD06268A168E8
:101F10009047206A401C20627F1EF3D22046FFF7C4
:101F20007EF80DB00320F0BD206A4019206203E066
:101F30006268A168302090476D1EEDD3F8E700007D
:101F4000B330000001FCFFFF10B54369002B02D045
:101F5000C046C04601E0FFF785F8012010BD1278A9
:101F6000014624310A7000224A700122ECE7116810
:101F70000022D243E8E710B54369002B02D0C046E7
:101F8000C04601E0FFF720F9012010BD128801468C
:101F9000243182840022C2840122ECE711680022ED
:101FA000D243E8E7F3B50C468FB000200C90012037
:101FB00000260E9008460C300390626903980121B8
:101FC0009047051E2ED0252D2DD0216A8847002848
:101FD00018D06269039801219047216A8847002838
:101FE000F7D16269411E0398904700E0761CA16911
:101FF0000F988847216A88470028F7D1E1690F9830
:102000008847DAE7A1690F988847A842074601D1B7
:10201000761CD2E7E1690F9888477F1C02D10C98A3
:10202000002877D075E16269039800273D4639465C
:1020300090472A280CD16269039801219047012515
:1020400006E00A214F433F18303FEBD410200543F0
:102050006269039801219047014630390A2903D269
:10206000B1498F42DEDCECE7E90600D4AF4F6C28C3
:102070000AD04C2810D0682824D06A282ED0742882
:102080000CD07A280AD00DE06269039801219047AC
:102090006C2823D004211CE02020054362690398AA
:1020A00001219047A760652865604FD026DC58283D
:1020B00039D01ADC452849D012DC252834D04128F3
:1020C000B0D143E06269039801219047682802D0AB
:1020D00008210D43E6E70120C002DEE70220DCE72D
:1020E000462833D047289DD130E05B2870D0612846
:1020F0002CD063286CD0642894D161E06F284FD035
:1021000009DC662822D0672820D0692826D06E28CE
:1021100088D12EE0F9E070284DD073286FD0752853
:102120004ED078280DD154E0A1690F988847252812
:10213000054600D16CE7E1690F9888476D1C00D116
:102140006DE7E6E00A224CE00A2252E00120234635
:102150006A460F99C043C046C046CFE0402128469A
:10216000234608436060A80701D5002239E0002219
:102170003FE0E80700D020E72068011D21600068EB
:10218000290501D5067018E7290701D5068014E74F
:10219000A90703D5F117066041600EE706600CE75A
:1021A00040212846234608436060A80701D508223D
:1021B00017E008221DE05E4928460840606016E0EE
:1021C00040212846234608436060A807BCD5B9E7EC
:1021D00015E04021284608436060A80707D523463C
:1021E000102201200F99C043C046C04686E010224D
:1021F000234601200F99C043FEF750FA7EE00021EC
:1022000063280B460191009102910D9102D05B2849
:1022100008D03CE02079C00601D40120A060012054
:10222000009034E0E06801210D90626903989047C6
:102230005E2807D101200190E06801210D906269BC
:10224000039890472169002906D10B4604AA8F0004
:10225000491C0829D351FADB00285AD021690029EA
:1022600027D00298401C0290626903980121904790
:102270005D28F1D10198002808D0002004AB81002E
:10228000401C5A58D24308285A50F8DB04AB206946
:10229000002820791DD0400726D5029A00980D9B72
:1022A00000922246029001200F99C043C046C046CA
:1022B00024E0C117C90E09184A114909930004AA5C
:1022C0009A184901411A136801208840034313609A
:1022D000CAE74007224617480F9902D5C046C046B4
:1022E0000CE0C046C04609E00298224600990D9BCA
:1022F000009002910F480F99C046C04600280ADAA4
:10230000401C06D10E98002803D00020C04311B015
:10231000F0BD0C98FBE7E90702D10C99491C0C9120
:10232000361800200E9048E6CCCCCC0CFFFFFF7F87
:10233000F1F7FFFFFEFFFFFF10B50146C2689007EF
:1023400003D0900607D5886A0AE000F09BF80121C7
:102350000160881E10BD8B694868C0180B69C01ADF
:1023600040310B7A002B02D0497A401A10BD11037C
:10237000FCD50028FADD401E10BD70B516460C468F
:10238000054600F073F80368FF200230C05C0128A6
:1023900007D0FF2C0ED8185D00280BD001202C7020
:1023A00070BDFF333246214608331868C3182846EB
:1023B000984770BD0020C04370BD10B5002801D003
:1023C00000F04EF810BD10B500F0EAFBFFF7F5FF86
:1023D00010BD10B500F0FEFBFFF7EFFF10BD0000D1
:1023E00010B5002102A000F0C1FB012010BD0000CB
:1023F0005349475056464E3A2050757265207669CB
:10240000727475616C20666E2063616C6C6564002B
:1024100001226946114B120382188A421A6001D8C0
:10242000114670471960704770B50C4C6D46012617
:1024300036032368AD1B9A18AA420ED8AD1A90191C
:10244000EE0F75196D10AA18904200D91046C01DE4
:102450000B60C208D200D01A226070BD58F1FF1F75
:1024600001491820ABBEFEE72600020010B500F0BF
:1024700005F8001D10BD00BF8D2400000048704706
:10248000A0F3FF1F00487047B4F3FF1FF8B51F46C5
:10249000044601230068DB02032601461840072A90
:1024A00005DB002801D017A506E017A504E00028E9
:1024B00001D016A500E016A5102081432160A06977
:1024C000C01E002FA06101D0401EA0612046FEF773
:1024D00090FD002F09D038466268A1689047206AB5
:1024E000401C2062C01C206206E0206AFAE7626895
:1024F0002878A1686D1C9047761EF8D22046FEF71A
:102500008EFDF8BD4E414E006E616E00494E460094
:10251000696E6600F7B516468AB0334878446C4653
:1025200003467C33C06F5A689B680DC42E487844BC
:10253000763003AC0DC80DC43720C0010818372110
:102540001B30FEF71DFB05460C46803D1B3C02D5AB
:102550006442012000E000200027099010E0E0071D
:102560000CD00C2020497843794432464C3941182C
:102570006846012300F054FA6B4607C364107F1CC1
:10258000002CECD1184F7F442E3F16E0E80712D004
:102590002001C0190EC80691089307920068F04206
:1025A00001D1981908903246012306A903A800F02A
:1025B00037FA03AB07C36D10641C002DE6D10998F0
:1025C000002806D032466946012303A800F07EFAAF
:1025D00005E001233246694603A800F021FA0A9B70
:1025E00007C30DB0F0BD00002829000003464000DD
:1025F0000A4610B5400D0BD00121C9070F24A402D3
:1026000000191C0364082143540D2143D20207E042
:1026100000210120F2E7D40F490021435200401E5F
:102620000029F8DADB0FDB07184310BDFFB50D46B4
:10263000144685B04868516800F096FF00910190FB
:10264000A868A16800F090FF02910390A8686168F3
:1026500000F08AFF029A12188242029201D20120EF
:1026600000E00020019A0B18D2180028019202D035
:102670008A4202D903E08A4201D2012000E0002010
:102680000099081800906868A16800F06DFF029A30
:1026900012188242029201D2012000E00020019A29
:1026A0000B18D2180028019202D08A4202D903E006
:1026B0008A4201D2012000E0002000990818009011
:1026C0002868216840004900400849084018FA4934
:1026D000471814E001994000C90F08430090019881
:1026E00002994000C90F08430190029803994000E5
:1026F000C90F08430290039840007F1E0390009882
:102700000028E7DA0898002801D0EC4E00E0002607
:10271000B74201DA012000E00020002804902AD00E
:10272000F71BF806C00E15D0029B2021091A039A48
:102730008B401A430392029A019BC2408B401A437A
:102740000292019A009BC2408B4000991A43019269
:10275000C14000917B110DD06F460320C11A03D5F3
:1027600000218200B95003E08A008100BA587A50F3
:10277000401EF3D5374603980299002800D0012067
:10278000014308980291002808460CD0002800D088
:1027900001200199019A490508430121D20AC90281
:1027A000D202019200E001210E9B0122D207012BEF
:1027B00002D0002B03D013E0002807D120E0904284
:1027C00004D890420CD1019B0B4209D0019B5918AF
:1027D000019105D10099491C009101D17F1C009203
:1027E00000280DD0102108460020C046049800287B
:1027F00006D00F98002803D0082108460020C046C4
:1028000028682168019B009A4840C10F0598C907B4
:1028100039430EC009B0F0BDFFB587B0099A0898DA
:102820000899536892684068896896460022039325
:1028300017469446089A12685300099A5B08126872
:10284000520052089A1A9E4BD4180A9A002A01D0B4
:10285000352200E040220692002201231546049210
:10286000DB07059324E0002D05D175460346039E42
:102870004D1BB34109D375466646039B491B049D16
:102880009841059B7519AC465F4163463B4308D0B0
:10289000059B049EDD0776082E435B08049605938E
:1028A00001E0521E641EC50FED0749184041521C3D
:1028B000069B9A42D7DB002D04D17546039A6B1A0A
:1028C000824101D203200CE0039A0B466B40424048
:1028D000134303D0014303D0012002E0022000E0B3
:1028E0000020614601910021009702910A99002978
:1028F00005D0614640020143704B019102E0800720
:10290000002302909C4201DA012000E00020070031
:102910003AD01A1BD006C00E15D0029D2021019C72
:10292000091AC5408C402543029C8C4000D00124EC
:102930002543019C0295009DC4408D4000992C4385
:102940000194C140009154111DD06D460221002216
:1029500002290CD10320001B07E0002804DB8600BD
:10296000AE59002E00D00122401C0328F5DB081BC5
:1029700002D588002A5004E08000285810438A00BD
:10298000A850491EE3D51C460A98002802980CD08E
:10299000002800D001200199019A4905084301212E
:1029A000D20AC902D202019200E00121109B012249
:1029B000D207012B02D0002B03D013E0002807D14F
:1029C0001FE0904204D890420CD1019B0B4209D0E9
:1029D000019B5918019105D10099491C009101D121
:1029E000641C009200280CD0102108460020C0462C
:1029F000002F06D01198002803D008210846002097
:102A0000C04608980999019A009B006809684840E7
:102A1000C10F0798C907214382600AC00BB0F0BDFF
:102A200000B585B0019300920A460146002302A832
:102A3000FFF7FCFD02A807C805B000BDFFB50A46B8
:102A40001F4685B00799019301230091014602A812
:102A5000FFF7ECFD02990398049ECA0F4900D207C4
:102A600000920F22490892028C1A0021002800DBF4
:102A70000C46450013486D08844214D3079A002A77
:102A800004DA441E0026104DF64302E004460D46CB
:102A90000E46102108460020C046002F03D0042116
:102AA00008460020C0462005E90A0843009908436B
:102AB0006905F20A1143ADE602C0FFFF013C0000C8
:102AC000FF3F0000FF070000FFFFFF7F00B585B05C
:102AD000019300920A460146002302A8FFF79CFEDC
:102AE00002A807C8A8E7FFB50A461F4685B00799A0
:102AF000019301230091014602A8FFF78DFE029980
:102B00000398049ECA0F4900D20700920F22490879
:102B100092028C1A0021002800DB0C464500114867
:102B20006D08844214D3079A002A04DA441E002652
:102B30000D4DF64302E004460D460E4610210846B0
:102B40000020C046002F03D0042108460020C046C4
:102B50002005E90A0843009908436905F20A114370
:102B600058E60000FF070000FFFFFF7F70B5054635
:102B70000C460A2000E06D1C00F054F8002D06D031
:102B800028780028F7D102E0641C00F04BF8002CF4
:102B900002D020780028F7D10A2000F043F870BD59
:102BA00010B5014602A0FFF7E1FF012010BD0000B3
:102BB00053494752545245443A20526564697265FC
:102BC00063743A2063616E2774206F70656E3A20DB
:102BD0000000000010B5012805D0002103A0FFF778
:102BE000C5FF012010BD09A1F8E700005349475275
:102BF000544D454D3A204F7574206F6620686561CD
:102C000070206D656D6F7279000000003A20486594
:102C10006170206D656D6F727920636F727275706F
:102C20007465640008B5694608700320ABBE08BD32
:102C3000704710B5C046C04601F0CCF810BD002169
:102C4000C160704700B587B01021684601F028F8D0
:102C500007B000BDF3B50A4D81B0AC680F46A86857
:102C6000002807D1074E21463446C0222046FDF7F2
:102C7000FBFAAE60019880000019076403B0F0BD54
:102C800000ED00E000F0FF1F1D48002101601D481D
:102C9000826B43151A4382631C4A1B4850601C48D0
:102CA00083681C4A13408360C3681340C3601A4A98
:102CB000892010701948242242709A220270C2782A
:102CC000D206D20EC2700122027141718179C90609
:102CD000FCD481790907890F0229FAD14021417179
:102CE00081790907890F0229FAD181794906FCD532
:102CF0001A21017081790907890F0329FAD17047D8
:102D00000081044000800440000001104080044025
:102D100040900440FFF8FFFE00500640004006408F
:102D200010B53E4880688024A0433C4CA0602046FB
:102D3000806810242043394CA060204680688008B9
:102D40008000A060204680686024A043334CA060CF
:102D50002046406A04242043304C60622046406A8A
:102D6000032420432D4C60622046006A4024A04387
:102D70002A4C20622046406A80242043274C60620F
:102D8000002126484030C068244C4034A468001913
:102D9000224C403464680019204C403424680019E7
:102DA0001E4CE46B00191D4CA46B001981B208463F
:102DB000CC0F241861100120C003084301461748B6
:102DC000C162002215484030C06A144C4034A46AE5
:102DD0000019124C4034646A0019104C4034246AC3
:102DE00000190E4C4034E46900190C4C4034A469BD
:102DF000001982B21046D40F241862100120C003BB
:102E000010430246054802630023406A40242040E4
:102E1000002800D00123184610BD000000B0034078
:102E200010B50446002C04D0012C2CD0022C7DD1EE
:102E300053E01E204349086008468068802188438B
:102E40004049886008468068602188433D49886021
:102E500008468068102108433A498860084680681F
:102E60000C218843374988600846806880088000C4
:102E700088600846406A08218843324948623248DF
:102E800000F05CFA10BD09202E49086008468068F1
:102E9000802188432B4988600846806860218843E8
:102EA00028498860084680681021084325498860C1
:102EB000084680680C2108432249886008468068DB
:102EC0008008800088600846406A082108431D4940
:102ED00048621E4800F032FAD4E71D48C06B012159
:102EE000C90608431A49C8631A20164908600846EB
:102EF0008068802188431349886008468068602183
:102F000088431049886008468068102108430D49AD
:102F10008860084680680C2108430A498860084692
:102F20008068800880008860084600E008E0406A09
:102F30000821084303494862064800F0FFF9A1E769
:102F400005489FE700B0034000F1FF1F08F1FF1F95
:102F50000080044010F1FF1FFFFF000070B5044621
:102F60000D46164618212046FDF7AAFD3246294691
:102F7000204600F0C7FE204670BD70B504460068CC
:102F8000416A2046884720680122036900212046C3
:102F900098470546401C206811D002220369002191
:102FA00020469847064620680022036929462046A5
:102FB00098472068816A20468847304670BD816AFC
:102FC000204688470020C04370BD7047704700000E
:102FD000F8B504461748184D20602868002801D12C
:102FE000281D28600146281D0090814204D05922E6
:102FF0001249134800F01EFF002112482F681022CA
:103000000E468B00C558A54200D1C650491C521E21
:10301000F7D10948002F01D0016801E0011D0160CE
:103020000098814204D059220449054800F002FF6B
:103030002046F8BDE44E0000C0F0FF1F885000009D
:10304000745000005CF1FF1F10B50C46001D01F02C
:1030500077FA204610BD000010B509010C18A069D0
:103060000C34002805D1FF22E8320449044800F05E
:10307000E1FEE06801682046884710BDE950000085
:10308000E4500000FFB581B01849016000214160A3
:1030900081601C460223102215490C3000F092FA80
:1030A00005460C3D00260462300144190C34E168E9
:1030B000104F2046002901D0896888470E48761CA9
:1030C0002760E060022EEFD3281D039A029901F0D9
:1030D00065F9281DE96A01F037F82A460749281DD5
:1030E00001F022FA284605B0F0BD0000184F00009C
:1030F0003F2C000059350000D85000005930000026
:1031000001688968084710B50A4604690346011D2D
:10311000204601F027FA10BD10B50269011D1046C6
:1031200001F067FA10BD000010B5044606482060A3
:1031300000206060A060E06000F066FD034920614F
:1031400001F07AFA204610BD304F00000131000036
:1031500010B5044603482060211D206901F049FA9A
:10316000204610BD304F000010B50021FDF7E4FBF4
:1031700010BD000010B51C46029BFFF783FF2146DF
:10318000303000F053F8044930380160034941639E
:103190000349016310BD0000444F0000A04F000030
:1031A000644F000010B50A4901600A4941630A49A9
:1031B0000163303000F05CF83038084901600446A3
:1031C0000223102206490C30FDF7D2FD204610BD27
:1031D000444F0000A04F0000644F0000184F000053
:1031E0006D490000002070470020704700207047A4
:1031F000F8B5054600680E460C468F18416A284609
:103200008847BC4209D028682178C26A2846641CD5
:103210009047401C01D0BC42F5D12868816A2846FD
:103220008847A01BF8BD00207047000010B584B08F
:1032300000F028F904460A4820600A48606000202F
:103240006061224608A16846FDF7A2F807A168461A
:10325000FDF748FB6061FFF787FF204604B010BD13
:10326000B04F0000EC4F00003A257000772B0000B3
:1032700010B5044605482060054860606069FDF7A8
:1032800069FB204600F010F910BD0000B04F0000AF
:10329000EC4F000010B504464068616941182046B3
:1032A000FFF731FF606A1834002805D1FF22E832A9
:1032B0000449054800F0BEFDE068016820468847E3
:1032C00010BD0000E9500000E450000010B51049A6
:1032D0000446016000F006FC2046FFF71DFF606A0F
:1032E0001834002802D0816820468847200001D089
:1032F0000021E16000F03CFCE068002802D0816819
:103300002046884720461838FFF722FF10BD0000EE
:10331000FC4F000070B50546024801F009FB044669
:1033200000BF70BD24F1FF1F70B50546024801F0D3
:10333000FFFA044600BF70BD24F1FF1F70B50446BC
:103340002068816820468847201D00F0BDFB0546A7
:103350002068C16820468847284670BD70B504467D
:103360000D46074820602046FFF7D4FF2946201D60
:1033700000F042FB2046FFF7D7FF204670BD00005B
:10338000105000007047000070B506460D46164804
:1033900001F0CEFA15480468002C20D0A06800285F
:1033A0001AD02A463146FDF71DFB002814D1A0682B
:1033B000FDF7F6FAA8420FD10B480168002901D1A8
:1033C000011D0160001D814204D0592208490948AD
:1033D00000F030FD204670BD6468002CDED102484C
:1033E00001F0A6FA002070BD44F1FF1F40F1FF1F5D
:1033F000885000007450000070B5044600266660D6
:103400000A48A16020600D462273094801F090FA35
:10341000002D04D0074801686160046000E0666028
:10342000034801F085FA204670BD000028500000D6
:1034300044F1FF1F40F1FF1F10B504460E48206005
:103440000E4801F075FAA06800280FD00C490868F2
:10345000A04202D16068086008E04168A14203D040
:1034600008464968A142FBD161684160034801F008
:103470005FFA204610BD00002850000044F1FF1FF5
:1034800040F1FF1F10B5054A04C00022FFF7B4FF4A
:103490000349001F01600349416010BDE44E000074
:1034A000385000006C50000010B5001DFFF7C4FF3D
:1034B000001FFFF78DFD10BD10B5044640680028C1
:1034C00003D0007BC046012801D0002010BD6068F9
:1034D00010BD10B504464068002803D0007BC046EC
:1034E000002801D0002010BD60680028FBD0001F1C
:1034F00010BD4068002800D00120704710B540681A
:10350000002804D0007BC046002801D0002010BD58
:10351000012010BD10B504460020206060600878CE
:103520002F280FD1487800280CD04B1C00211A46B8
:10353000236010782F2807D0002807D0521C491C80
:103540002260F6E7204610BD501C20601846FFF7A9
:103550001BFF6060204610BD7047704710B53038C3
:10356000FFF772FD10BD7047F8B5040C8BB226460C
:1035700082B25E43104658430D0C370C36040021CE
:103580008019164679416E43370C36048019264659
:1035900079416E438919F8BD4900CA0202431000FF
:1035A00000D004204A0D01D001221043044A490DE5
:1035B000914201D102210843012800D10520704722
:1035C000FF070000FFB581B01C4617460E0007D06C
:1035D000019D02E02846B047ED192046641EF9D24D
:1035E000019805B0F0BD10B50020FEF7BBF810BD86
:1035F000F8B5012109032F48FFF7B0FE04462E4A13
:103600002E490120C0462E492E48FFF7A7FE04464A
:10361000294A2A490120C0462949091D2A48FFF79D
:103620009DFE0446244A25490120C046274C2046D9
:10363000FFF77AFD04462648206020461830002215
:10364000002A02D10021C16009E00146084600BFFE
:10365000031E00D01A601F4ECE6000BF00BF00BF27
:103660000446183C00BF2546134A1B492846012042
:10367000C0460122124948311848FFF76FFC012269
:103680000F4944311648FFF769FC012215491648D5
:10369000FFF764FC4B20C0010023042208210090A6
:1036A0001248FFF767FD0446034A11490120C0464E
:1036B000F8BD000000F1FF1F00000000853300008E
:1036C0000410000008F1FF1F10F1FF1FE4F1FF1FBD
:1036D000FC4F0000D8500000CD3200000CF2FF1F5C
:1036E00024F2FF1F043000003CF2FF1F54F2FF1FC2
:1036F000A531000002486A46C008C00070470000BB
:10370000BFF3FF1F30380A2801D201207047002084
:10371000704710B5C046C04610BD0000032801DA4E
:103720000020704781000748002209188039486F3F
:103730004A67002802D00168496808470020C04352
:10374000704700005CF1FF1F032801DA002070477A
:103750000649800040188038406F002802D0016878
:10376000896908470020C043704700005CF1FF1FD3
:10377000032801DA0120704706498000401880388C
:10378000406F002802D00168C96808470020C04384
:10379000704700005CF1FF1FF3B583B067490398E1
:1037A000FDF790F94B25664CED01002810D06549D6
:1037B0000398FDF787F9002819D063490398FDF7AE
:1037C00081F9002822D0614C206800282DD02EE0FD
:1037D0002068002808D1042208215D4800F0DEFDA1
:1037E00029465B4800F0B0FC002005B0F0BD206821
:1037F000002808D104220821554800F0CFFD2946B1
:10380000534800F0A1FC012005B0F0BD206800285D
:1038100008D1042208214E4800F0C0FD29464C483A
:1038200000F092FC022005B0F0BD201D2060271D95
:10383000B84204D059224749474800F0FBFA002516
:10384000464E21686C1EA8003058002803D06D1C1D
:10385000102DF8D301E0102D0FD33C48002901D1E1
:10386000011D01600068B84204D0592239493A4824
:1038700000F0E0FA204605B0F0BD0020C043AC00E7
:1038800030513248002901D1011D01600068B84261
:1038900004D059222F49304800F0CCFA0398007820
:1038A0003A2811D068460399FFF734FE6846FFF7BF
:1038B00020FE00283CD06846FFF720FE002868461E
:1038C00009D0FFF706FE2DE06A4625A10398FCF714
:1038D00075FD009826E0FFF7EFFD070028D004995A
:1038E000880701D5022008E0480701D5012004E03F
:1038F000080701D5092000E000200A07920F02D036
:10390000012252021043490702D5012189020843CE
:10391000029068460068C04601463868029A83688B
:1039200038469847002803D03051E81C05B0F0BD58
:1039300000203051401E05B0F0BD0000684D000071
:10394000C8F0FF1F6F4D0000774D0000C0F0FF1F53
:10395000D0F0FF1F88500000745000005CF1FF1F82
:103960003A257000032801DA00207047064A8000DB
:1039700080188038406F002803D002681369002245
:1039800018470020C04370475CF1FF1F70B5144614
:103990000E46032819DA15480068002809D10422C8
:1039A0000821134800F0FAFC4B21C901104800F02F
:1039B000CBFB0025002C06D9715D0D4800F0C0FD41
:1039C0006D1CA542F8D320460AE00A498000401841
:1039D0008038406F002805D001680B683146984751
:1039E000201A70BD0020C04370BD0000C8F0FF1F4A
:1039F000D0F0FF1F5CF1FF1F70B50D46064625494C
:103A0000284600F03DFBC0B23070FF2804D11E22D2
:103A1000214922A000F00EFA2648C16B0122D206ED
:103A20001143C163826B290B012309318B401A4377
:103A3000826336781024B00600D500241E48406802
:103A40004003410F1D48491C0068FDF78BF81C49D5
:103A500000220346D3408B4202D9521C042AF8D3D9
:103A6000042A00D10722F1061648C90E4160510709
:103A7000090E1207920F11439C2211438160042109
:103A80000C43C4600022026241620249284600F0F1
:103A900025FB70BDC44B0000345100006F626A2DDD
:103AA0003E61646320213D20284144434E616D65A1
:103AB000294E43000080044040800440D8F0FF1F9E
:103AC000808D5B0000B003400078C1060448C90E39
:103AD000016001680906FCD5006980B270470000EA
:103AE00000B0034070B5EFF31080C007C417012089
:103AF000641C444072B60D4D6868002800D12C70DB
:103B00006868401C04D1352209490AA000F092F9E6
:103B10006868002806D0002C04D1392204490FA07F
:103B200000F088F96868401C686070BD34F1FF1FC0
:103B300070530000696E746572727570745F656EA3
:103B400061626C655F636F756E746572203C2055B1
:103B5000494E5433325F4D4158000000696E746520
:103B60007272757074735F64697361626C6564000E
:103B700010B50E4C6068002816D0EFF31080C00717
:103B8000C0170121401C484004D14A22084909A01D
:103B900000F050F96068401E60606068002803D142
:103BA0002078002800D162B610BD000034F1FF1F5C
:103BB00070530000696E74657272757074735F641F
:103BC000697361626C6564000FB410B503A9029853
:103BD00000F0BEF9012000F001F80000044608489A
:103BE000FCF71DFE0748FCF71AFE00F0D9F9002883
:103BF00001D000F0A3FA002C01D000F045F9FEE757
:103C0000F4F2FF1F48F3FF1F00487047944D000077
:103C100070B504460020205E0D46401C04D13322BE
:103C200009490AA000F006F9002D07D0012D04D1A2
:103C3000A068016862681143016070BDA0680168F6
:103C400062689143F8E70000945100006F626A2DAA
:103C50003E70696E20213D202850696E4E616D6571
:103C6000294E430070B5054601800C46481C14D00F
:103C70000121204600F098F96006C10E012088401D
:103C80006860200B054980014018011DE960091D8D
:103C90002961083114306961A86070BD00F00FF827
:103CA00070B5022605460C46FFF7DCFF611C07D005
:103CB00000212846FFF7ACFF3146284600F052F8B5
:103CC00070BD000070B50D4604460026FFF7CAFF20
:103CD0006D1C12D0A05F401C04D124220749084863
:103CE00000F0A8F821696068086001212046FFF70C
:103CF0008FFF3146204600F035F870BDF0510000CE
:103D00004C3D0000F8B504460E4600271546FFF767
:103D1000A9FF761C16D0E05F401C04D124220A497A
:103D20000AA000F087F86068002D01D0E16800E08B
:103D30002169086001212046FFF76AFF39462046C5
:103D400000F010F8F8BD0000F05100006F626A2D1D
:103D50003E70696E20213D202850696E4E616D6570
:103D6000294E430010B502460020105E00F04EF9C7
:103D700010BD000070B51448016880221143016035
:103D8000124900228B6840240125002B0BD0104ED5
:103D90000260866002682243026002682A43026071
:103DA0005B1E8B6070BD0B88002B09D002608360A6
:103DB00003682343036003682B4303600A8070BDDC
:103DC00000F02AFD70BD000000000440DCF0FF1F81
:103DD000FFFF000008B5FEF7A3FF21E000200090E0
:103DE0000220FFF71DF80746FDF7B0F806460D491B
:103DF00000F00CFE05468F21C905FCF7CBFF0446F9
:103E00000949204600F066FE06460849FCF7C2FF55
:103E10000546074900F052FE00900020009000BFC8
:103E2000DCE7000033335340000033440080CA44D1
:103E30000000C84170B514460D460646FFF752FE15
:103E400023462A46314603A000F056F800F01CF83D
:103E500070BD00006D62656420617373657274618A
:103E600074696F6E206661696C65643A2025732CF5
:103E70002066696C653A2025732C206C696E65207C
:103E80002564200A0000000086B0FFF72BFE1249CF
:103E90006846FFF717FF69460020085E401C04D102
:103EA00024220E490EA0FFF7C5FF03990198086070
:103EB000962000F003FD69460020085E401C04D1F6
:103EC0002422064906A0FFF7B5FF0499019808606F
:103ED000962000F0F3FCDEE748100000F0510000EF
:103EE0006F626A2D3E70696E20213D202850696EF8
:103EF0004E616D65294E43000FB470B5A0B025AC7E
:103F0000249DFFF7EFFD224629466846FCF72EFA6E
:103F1000051E11DD0C480068002804D10422082188
:103F20000A4800F03BFA00246E46315D074800F075
:103F300007FB641CAC42F8DBFFF71AFE20B070BC34
:103F400008BC04B018470000C8F0FF1FD0F0FF1FE6
:103F500070B5A0B00C460546FFF7C4FD22462946C1
:103F60006846FCF703FA051E11DD0B4800680028BF
:103F700004D104220821094800F010FA00246E46FA
:103F8000315D064800F0DCFA641CAC42F8DBFFF758
:103F9000EFFD20B070BD0000C8F0FF1FD0F0FF1F84
:103FA00010B500F0C5F810BD70B504460D46401CB4
:103FB00004D114220D490EA0FFF73CFF114A200B3B
:103FC0006106936BC90E044609340126A6403343AB
:103FD00093630003890040180B49401801680722C9
:103FE000120291432A021143016070BD6052000029
:103FF00070696E20213D202850696E4E616D6529E3
:104000004E430000008004400090044070B5044618
:104010000D46401C04D12122054906A0FFF70AFFE6
:10402000094820180168890889002943016070BD8A
:104030006052000070696E20213D202850696E4E4C
:10404000616D65294E43000000900440884202D013
:10405000421C01D10846704710B5491C04D003A08A
:10406000FFF7B2FD0020C04310BD000070696E6D07
:104070006170206D69732D6D6174636800000000CC
:10408000002210B5D243431C0BD00023CB5E5B1C37
:104090000ED00023CB5E834205D14C68601C08D053
:1040A0000AE0104610BD0C23CB5E0C315B1CF0D136
:1040B000144602A0FFF788FD204610BD70696E6DA2
:1040C0006170206E6F7420666F756E6420666F720B
:1040D000207065726970686572616C0010B5044685
:1040E000401C0FD00020085E401C12D00020085E4B
:1040F000A04208D189682046FFF756FF00212046DC
:10410000FFF784FF10BD0C20085E0C31401C002816
:10411000ECD102A0FFF758FD10BD0000636F756C75
:1041200064206E6F742070696E6F757400000000FB
:1041300001480068704700003CF1FF1F84B06946E9
:104140001820ABBE04B07047F3B50446006881B0D8
:10415000C5780C210D40C178F3221140C17052493D
:104160002068884270D1514F3878800927D1504853
:1041700040685049000F0B68401C797958434E063F
:104180004D494E4A4E6802D496434E6002E01643B3
:104190004E604008002812D03878800964D1444825
:1041A0004068000F401C58437B795B064B6802D483
:1041B00093434B6063E013434B6040085FE03C482F
:1041C00040683C49000F0968401C48433978890918
:1041D000022954D03978890946D17979490637D4EA
:1041E000B979C90640D4397801228906490F8A4035
:1041F0007978D2B28906890F00D05201F97849093D
:104200004901CB06DB0E20D1491107291DD20B0035
:104210007B441B79DB189F440306090C0F12150021
:104220000521C90112E0052109020FE00F21C90192
:104230000CE00521490209E0B721890006E0B72119
:10424000C90003E01E4901E010E01E49504308E0A8
:104250003979CA067979D20EC906C90E521C504363
:104260001831FCF77FFC0AE0002008E010484068A5
:104270004003410F0F48491C0068FCF773FC02998A
:104280000901FCF76FFC21680A78C3045209520146
:10429000DB0E1A430A7021684A7848702068C1789A
:1042A0002943C17003B0F0BD00A0064000400640A5
:1042B00040800440D8F0FF1F00800440000001004F
:1042C00095080000710B0000F8B51E4615460F4614
:1042D0000446012B06D0022E04D0A6221F4920A09E
:1042E000FFF7A8FD002D08D0012D06D0022D04D027
:1042F000A7221A492448FFF79DFD082F04D0A822C1
:10430000164922A0FFF796FD2068C3780C210B40C8
:10431000C178F3221140C170280004D0012804D0D4
:10432000022D07D104E0002503E001252F4601E01E
:1043300001250027680021683843887020680178CB
:10434000DF2211400170206801787201203A114388
:1043500001702068C1781943C170F8BD0453000092
:104360002873746F705F62697473203D3D2031293A
:10437000207C7C202873746F705F62697473203DA9
:104380003D20322900000000B852000064617461D1
:104390005F62697473203D3D20380000F7B5044624
:1043A00051490198FFF76CFE054650490298FFF706
:1043B00067FE01462846FFF749FE0546401C04D12A
:1043C00041224B494BA0FFF735FD4E484F4F2B186C
:1043D0004D48256006D0D91B2DD0B94230D1416B54
:1043E000394326E04A4A1178890919D1494949686F
:1043F000494E090F3668491C527971435606474A9F
:10440000466802D49643466002E016434660490877
:10441000002905D04168012292061143416004E061
:1044200041680122D20611434160416B0122920290
:104430001143416304E0416B0122D2021143416305
:104440002068C178F3221140C1702068C178082625
:104450003143C170206801794906FCD5C17811400B
:10446000C1700126002B3BD0D81B3BD0B84201D1F4
:10447000022060604B21C9012046FFF765FE012341
:10448000002208212046FFF71FFF17490198FFF778
:1044900025FE16490298FFF721FE0198401C08D01E
:1044A0002068C17808221143C17002210198FFF7EA
:1044B000ADFD0298401C08D02068C1780422114349
:1044C000C17002210298FFF7A1FD1548854205D170
:1044D0001448066062682168C260816003B0F0BD64
:1044E0000020C6E76660C5E7904C0000FC4C000069
:1044F0000453000028696E74297561727420213D8F
:10450000204E43000060F9BF00800440001000000E
:104510000040064040800440D8F0FF1F000001002A
:1045200000A00640C8F0FF1F034B596040680349D4
:1045300080000A5070470000C8F0FF1F9CF1FF1F69
:1045400010B40824026813791B0702D5137923439A
:10455000137102681279D209D201F3D00068C171D7
:1045600010BC7047F8B51C4616460D460746FFF7C7
:10457000B9FA2E606C60796800204C68002C0DD070
:104580002268B21A03D42046A468002CF8D100286F
:1045900004D08560AC60FFF7EBFAF8BD4D60386879
:1045A000016930468847F5E710B504460068C068E1
:1045B0008047606840680028206811D040688047C4
:1045C00061680246486803689A1A002A0BDC826810
:1045D0004A60616809680029EBD040688847E8E7CD
:1045E0008068804710BD486821680068096988476D
:1045F00010BD70B50C460546FFF774FA686842684E
:10460000A2420CD1A1684160002904D00868296841
:10461000096988470DE028688068804709E0002A1A
:1046200007D09068A04202D1A068906001E002002B
:10463000F7D1FFF79DFA70BD70B5044600680D46CE
:10464000006880476068056070BD70470248016877
:104650004022914301607047000004406048416877
:10466000002970D1F8B501245E4E4460F06BE1057D
:104670000843F0635C48002707605C4DA01E28617A
:104680000420A861A8692043A861594840684003F4
:10469000410F5848491C0068FCF764FA5649401815
:1046A0004900FCF75FFA401E2860AC60B06B204305
:1046B000B063524D2F6052491C20FEF7CBFA51498E
:1046C000200708604A4840684A49000F0968401CB2
:1046D0004D4E484331788909022948D031788909FB
:1046E00053D17179490637D4B179C9064DD431789F
:1046F00089064A0F21469140CAB271788906890F0E
:1047000000D05201F17849094901CB06DB0E20D1D6
:10471000491107291DD20B007B441B79DB189F44EC
:104720000306090C0F1316000521C90112E005212B
:1047300009020FE00F21C9010CE00521490209E03F
:10474000B721890006E04AE0B721C90002E02F49FD
:1047500000E02F49504308E03179CA067179D20E42
:10476000C906C90E521C50431831FCF7FBF900284A
:104770000BD02849FCF7F6F9002906D101281ED0F4
:10478000400801281DD0C2071FD0307802210843FD
:1047900030707078204370706F60307A0E2108405E
:1047A00016D0022818D0307AF12108403072317AC0
:1047B000042001433172696801436960F8BD072034
:1047C0000BE00807400EC01C07E04008491CD8E772
:1047D00068680821084300E068686860F8BD7047B1
:1047E000DCF0FF1F008004400070034000710340B4
:1047F00040800440D8F0FF1F20A1070000000440C3
:10480000753D000000E100E0004006409508000012
:10481000710B000040420F0010B50248FFF7C4FEC4
:1048200010BD0000944D000010B5054840680028F8
:1048300001D1FFF713FF03484069C04310BD0000DA
:10484000DCF0FF1F0071034070B5184C054660682E
:10485000002801D1FFF702FF15484069C043281A1C
:10486000002802DCFFF7D8FF70BD011483B2A160FD
:104870000022104840250126238000290BD00E4B32
:104880000260836002682A43026002683243026069
:10489000491EA16070BD0260836001682943016008
:1048A000016831430160228070BD0000DCF0FF1F11
:1048B0000071034000000440FFFF000070B57D213F
:1048C000C90048430446FFF7AFFF0546FFF7ACFFBA
:1048D000401BA042FAD370BD10B500290AD0087859
:1048E000002807D005487844FCF7ECF8002801D0F0
:1048F000002010BD0248784410BD0000EE0A000000
:10490000E60A000010B500290AD00878002807D070
:1049100005487844FCF7D6F8002801D0002010BDE7
:104920000248784410BD0000DE0A0000D60A0000EC
:1049300010B504460068002801D1201D20602168C0
:10494000201D814204D0592202490348FFF772FA20
:10495000206810BD885000007450000000680047B7
:104960007047002801D009680160704710B50446FF
:10497000C068002802D0816820468847204610BDC4
:1049800070B501250400ED074C4020D4441A01D233
:10499000001B0919C60D4B00F2B2FF2A29D01B0ECD
:1049A0002CD000020C02D31A2C43DC4028430519FA
:1049B00010D2280A02D3401C6D0611D0761EF605CF
:1049C0008019FF2A00DA70BDC00DC00570BD6940B6
:1049D00000F086F801200543C541521C761CE8E72B
:1049E00064089C40C90161408900E7D10124A043CB
:1049F000E4E71B0E440200D0034870BD002AFCD13E
:104A0000C00FC00770BD00BF0000C07F70B542007E
:104A100064414B005C41120E39D01B0E38D0FF2A86
:104A20003CD0FF2B3AD040024902400A490A060016
:104A300045184E43000A090AD2184843ED017F3A4F
:104A40000104731A4019190C4318990F04D001215D
:104A50005B0849075B1A521CD80904D3401CF503B4
:104A600001D19D0607D0FF2A08D2D50506D0E4075C
:104A70002043401970BD0125A843F4E7002A01DC5A
:104A8000E00770BD2402FF202043C00570BD1B0E4F
:104A9000FF2A03D0FF2B01D0E00770BDFF264500A1
:104AA0003606B54206D84D00B54203D8D218FF2AC3
:104AB00000D0E7E7004870BD0000C07F70B5012559
:104AC000ED07684004004C4002D5694000F008F84A
:104AD000FFF75CFF70B501250400ED074C4022D4C0
:104AE000441A02D26C40001B0919C60D4B00F2B2E9
:104AF000FF2A4BD01B0E50D000020C02D31A2C43BD
:104B0000DC40A843051B05D5AD0019D36D08761E02
:104B1000521E37D0F605280A01D2801970BD7041A7
:104B20006D0603D070BD6940FFF730FF9C4009025D
:104B30006140490001D0401E70BD0124A04370BDFA
:104B40006D081DD001202B0C01D12D0410302B0E2F
:104B500001D12D0208302B0F01D12D01001DAB0F0B
:104B600001D1AD00801CEB0F01D16D00401C6D0028
:104B7000361A121A680AF5054019012A02DB70BDBF
:104B8000002070BDC036300AC00770BD1B0E440245
:104B900001D1FF2B00D1024870BD002AF0D070BDBA
:104BA0000000C07F03B402487844844603BC6047D9
:104BB0004BCEFFFF03B402487844844603BC6047F1
:104BC000B5D0FFFF504000000000000000000000D2
:104BD00058400000030000000000000054400000A6
:104BE00024000000000000007440000004000000E9
:104BF00000000000784000001700000000000000E6
:104C00005C400000270000000000000000100000D1
:104C1000080000000000000004100000090000006F
:104C200000000000081000000C0000000000000060
:104C30000C1000000D00000000000000002000002B
:104C40000E00000000000000042000000F00000023
:104C500000000000082000000B0000000000000021
:104C600004300000050000000000000014300000C7
:104C700006000000000000001830000007000000DF
:104C800000000000FFFF0000FFFFFFFF000000002A
:104C90001020000000B006400300000008000000E3
:104CA00000A00640020000001430000000C00640D2
:104CB000030000000C30000000C0064003000000AC
:104CC0001C30000000A0064003000000504000001F
:104CD00000A00640040000005840000000C006404C
:104CE000040000000040000000B006400300000087
:104CF000FFFF0000FFFFFFFF000000000C2000008E
:104D000000B00640030000000400000000A00640C0
:104D1000020000001030000000C006400300000048
:104D20000830000000C006400300000018300000FA
:104D300000A00640030000005C40000000C00640E8
:104D4000040000005440000000A0064004000000E1
:104D50000440000000B0064003000000FFFF000018
:104D6000FFFFFFFF000000002F737464696E002FC7
:104D70007374646F7574002F7374646572720000CD
:104D80005D460000294800004D4600004B460000EB
:104D900049480000804D00002CF1FF1F30313233B4
:104DA000343536373839414243444546403058005F
:104DB0003031323334353637383961626364656691
:104DC00040307800040000080000000000000002ED
:104DD00000010000108182838485868788898B8CFE
:104DE0008D8E8F919293959697999A9C9D9FA0A254
:104DF000A3A5A7A8AAACAEB0B2B3B5B7B9BCBEC0A4
:104E0000C2C5C7C9CCCED1D4D7D9DCDFE2E6E9EC44
:104E1000F0F3F7FAFE0000000000000000000000C0
:104E20003031323334353637383961626364656620
:104E300078700030313233343536373839414243B7
:104E4000444546585000000002400000000000A009
:104E50000000000005400000000000C80000000045
:104E60000C4000000000409C0000000019400000C1
:104E70000020BCBE0000000034400000BFC91B8EF3
:104E800000000004B5400000504BCFD06607E2CFD1
:104E9000010000006C4100003E8251AADFEEA73401
:104EA00001000000D9420000DCB5A0E23A301F97B3
:104EB000FFFFFFFFB4450000FD25A0C8E9A3C14FD7
:104EC000FFFFFFFFFF3F0000000000800000000028
:104ED000FF3F000000000080000000000000000014
:104EE00000000000E7350000E7350000E73500006E
:104EF000E7350000E7350000E73500007B2F0000B4
:104F0000D12F000000000000CB2F0000CD2F0000AB
:104F10000000000000000000000000000000000091
:104F20000000000000000000000000000000000081
:104F30005131000000000000E735000000000000D3
:104F4000000000000000000000000000A53100008B
:104F5000000000000000000000000000D0FFFFFF84
:104F600000000000F1310000E93100000000000005
:104F700027320000ED31000000000000E5310000A4
:104F800000000000000000005B35000067350000F5
:104F90005D35000000000000CCFFFFFF00000000B6
:104FA0000000000000000000000000000000000001
:104FB000F1310000E931000000000000273200005C
:104FC000ED31000000000000E5310000713200000A
:104FD00000000000CB2F0000CD2F0000E7350000BF
:104FE000E7350000FCFFFFFF0000000000000000AC
:104FF000000000000000000000000000CD320000B2
:1050000000000000953200000000000000000000D9
:105010008533000000000000153300002933000034
:105020000000000000000000393400000000000013
:105030000000000000000000E7350000E735000038
:10504000E7350000E7350000E7350000E7350000F0
:105050007B2F0000A934000000000000CB2F0000CF
:10506000CD2F0000FCFFFFFF00000000000000004B
:10507000000000005F707472203D3D202854202AFB
:1050800029265F6461746100433A2F4A656E6B693B
:105090006E732F776F726B73706163652F6D6265CE
:1050A000642D322D6275696C642D6C696272617257
:1050B000792F4255494C442F6D6265642F706C61A5
:1050C00074666F726D2F53696E676C65746F6E5086
:1050D00074722E68000000005D4900006349000002
:1050E000614900005F6F707300433A2F4A656E6B31
:1050F000696E732F776F726B73706163652F6D626A
:1051000065642D322D6275696C642D6C6962726103
:1051100072792F4255494C442F6D6265642F706C33
:105120006174666F726D2F43616C6C6261636B2E8C
:1051300068000000433A5C4A656E6B696E735C7789
:105140006F726B73706163655C6D6265642D322D87
:105150006275696C642D6C6962726172795C7461EC
:1051600072676574735C5441524745545F4672657B
:10517000657363616C655C5441524745545F4B4CA9
:1051800058585C616E616C6F67696E5F6170692E03
:1051900063000000433A5C4A656E6B696E735C772E
:1051A0006F726B73706163655C6D6265642D322D27
:1051B0006275696C642D6C6962726172795C74618C
:1051C00072676574735C5441524745545F4672651B
:1051D000657363616C655C5441524745545F4B4C49
:1051E00058585C6770696F5F6170692E63000000DA
:1051F000433A2F4A656E6B696E732F776F726B73CC
:10520000706163652F6D6265642D322D6275696C06
:10521000642D6C6962726172792F4255494C442F3A
:105220006D6265642F5441524745545F4B4C323593
:105230005A2F5441524745545F4672656573636106
:105240006C652F5441524745545F4B4C58582F675B
:1052500070696F5F6F626A6563742E68000000009A
:10526000433A5C4A656E6B696E735C776F726B7301
:10527000706163655C6D6265642D322D6275696C69
:10528000642D6C6962726172795C746172676574B5
:10529000735C5441524745545F4672656573636160
:1052A0006C655C5441524745545F4B4C58585C7098
:1052B000696E6D61702E6300287061726974792067
:1052C0003D3D205061726974794E6F6E6529207C76
:1052D0007C2028706172697479203D3D2050617294
:1052E0006974794F646429207C7C2028706172691C
:1052F0007479203D3D205061726974794576656E00
:1053000029000000433A5C4A656E6B696E735C77F6
:105310006F726B73706163655C6D6265642D322DB5
:105320006275696C642D6C6962726172795C74611A
:1053300072676574735C5441524745545F467265A9
:10534000657363616C655C5441524745545F4B4CD7
:1053500058585C5441524745545F4B4C32355A5C67
:1053600073657269616C5F6170692E630000000093
:10537000433A5C4A656E6B696E735C776F726B73F0
:10538000706163655C6D6265642D322D6275696C58
:10539000642D6C6962726172795C706C6174666FA5
:1053A000726D5C6D6265645F637269746963616C80
:1053B0002E63000004550000C0F0FF1F9C00000099
:1053C00004010000A05500005CF1FF1F5C0200001A
:1053D000200100001C00000043000000F8FFFFFF58
:1053E0000C0000000E0000000F0000002E00000066
:1053F0001001000043000000F8FFFFFF00404040A4
:105400004040404040404141414141404040404097
:105410004040404040404040404040404005020243
:105420000202020202020202020202020220202002
:10543000202020202020200202020202020290905E
:10544000909090901010101010101010101010105C
:1054500010101010101010100202020202028888B0
:1054600088888888080808080808080808080808BC
:1054700008080808080808080202020240000000A4
:10548000000000000000000000000000000000001C
:10549000000000000000000000000000000000000C
:1054A00000000000000000000000000000000000FC
:1054B00000000000000000000000000000000000EC
:1054C00000000000000000000000000000000000DC
:1054D00000000000000000000000000000000000CC
:1054E00000000000000000000000000000000000BC
:1054F00000000000000000000000000000000000AC
:10550000F1E0FFFF000000000000000000000000CC
:10551000000000000000000000000000006CDC0241
:10552000000000000000000000000000000000007B
:10553000000000000000000000000000000000006B
:10554000000000000000000000000000000000005B
:10555000000000000000000000000000000000004B
:10556000000000000000000000000000000000003B
:10557000000000000000000000000000000000002B
:10558000010000000000000000000000000000001A
:10559000000000000000000000000000000000000B
:04000005000000C136
:00000001FF
