:020000040000FA
:1000000000300020A1020000613D0000AB020000B2
:1000100000000000000000000000000000000000E0
:10002000000000000000000000000000AD02000021
:100030000000000000000000AF020000B10200005C
:10004000B3020000B3020000B3020000B3020000DC
:10005000B3020000B3020000B3020000B3020000CC
:10006000B3020000B3020000B3020000B3020000BC
:10007000B3020000B3020000B3020000B3020000AC
:10008000B3020000B3020000B3020000B30200009C
:10009000B3020000B3020000B3020000B30200008C
:1000A000B3020000B3020000B3020000B30200007C
:1000B000B3020000B3020000B3020000B30200006C
:1000C00000F002F800F0C3F80CA030C8083824187B
:1000D0002D18A246671EAB4654465D46AC4201D180
:1000E00000F0B5F87E460F3E0FCCB64601263342EF
:1000F00000D0FB1AA246AB463343184740890000A4
:1001000060890000103A02D378C878C1FAD8520743
:1001100001D330C830C101D504680C6070470000BD
:100120000023002400250026103A01D378C1FBD813
:10013000520700D330C100D50B60704710B56E294F
:1001400002D101F0C9FD10BD702902D100F09FF964
:1001500010BD662902D107F0F9FB10BD652902D157
:1001600007F0F4FB10BD672902D107F0EFFB10BDCB
:10017000612902D107F0F2FB10BD03681B0A01D30D
:1001800080231943692902D101F070FD10BD642953
:1001900002D101F06BFD10BD752902D101F066FDA1
:1001A00010BD6F2902D101F08FFE10BD782902D158
:1001B00000F05AF910BDE92902D101F02BFE10BD63
:1001C000E42902D101F026FE10BDF52902D101F08B
:1001D00021FE10BDEF2902D101F082FE10BDF829E9
:1001E00002D100F04FF910BD0368DB0901D3802371
:1001F0001943632902D102F090FE10BD732902D188
:1002000002F093FE10BDE32902D102F09DFE10BD65
:10021000F32902D102F0A0FE10BD002010BD1FB5D1
:100220000098019901F028FC03F082F904000020F5
:10023000002107F08DF9401C60600020002107F0CC
:1002400071F9E06002F0B4F800F05CFD1FBD04F04D
:10025000EBFF114603B404F0F6FF03BCFFF7DFFF2A
:1002600003F075FD05F0BAFA70B505460C46164662
:1002700002E00FCC0FC5103E102EFAD2082E02D38A
:1002800003CC03C5083E042E07D301CC01C5361F9D
:1002900003E021782970641C6D1C761EF9D270BDB4
:1002A0000448804704480047FEE7FEE7FEE7FEE714
:1002B000FEE7FEE7A53D0000C100000070B5064660
:1002C00000F092F8056830460B30C408E400B442F0
:1002D00001D8002070BD68682A46002818D001683F
:1002E000A14211D30B46214608318B4208D3436803
:1002F00001194B6003681B1B0B605160046001E037
:1003000041685160001D70BD024640680028E6D17A
:100310002146284601F09BFB0028DCD170BD70B55A
:100320000446051F00F060F80068002C1AD04468ED
:1003300001E020466468002C01D0AC42F9D301688A
:100340000A18AA4204D12A6805468918016000E00B
:10035000456028684119A14205D16168696021683A
:100360004018286070BD6C6070BD00001CB50C4664
:10037000064B7B4469460090204601F0C6FC0446CB
:100380000020694600F036F820461CBD7F000000C2
:1003900010B50B460146184601F0CAFC10BD00001E
:1003A0000FB41CB5084B06AA7B446946009005981B
:1003B00001F0ABFC04460020694600F01BF8204623
:1003C0001CBC08BC04B018474900000010B5002947
:1003D00002D0FF22013201E00122920201235B02DE
:1003E00001F048FF10BD000000487047C4F3FF1F34
:1003F000704770470A681070521C0A607047704757
:10040000FFFFFFFFFFFFFFFFFFFFFFFFFEFFFFFFFD
:10041000F8B50F460188090502D5224C7C4402E05C
:10042000204C7C440E3405460021243508E0160794
:100430001209360FA65D6E541E0732431B09491C74
:1004400016461E43F3D1224604780023240705D51F
:10045000702F06D0002901D00223113201F0ADFB2C
:10046000F8BD01231032F9E770B504460D46214668
:10047000106801F070FB0023024629462046FFF772
:10048000C7FF70BDD21DD308DB000CCBC0E730B472
:10049000036820241268234303600823C36130BC2F
:1004A0000023B5E7F47E0000F3B50446002081B0D8
:1004B00020622046E1688847002872D0252802D0B3
:1004C0006268A168ABE0594F00267F442046E1688E
:1004D00088472028054608DB312D06D278192038B8
:1004E0000078002801D00643F0E7B00701D50420CA
:1004F00086430020E0610746A0612A2D0AD02846E5
:1005000004F09AFE002827D0B8000019303D009072
:10051000856119E00298BA00121902C8916102902F
:100520002046E1688847012F054617D1E069002879
:100530001FDA202086431CE000980A218069484386
:1005400000994019303888612046E168884705469F
:1005500004F072FE0028EFD1012F0AD02E2D08D111
:100560002046E16888470546202006437F1C022F6D
:10057000C3DBA069002803DA4042A06101200643E2
:10058000F00701D0102086436C2D0BD0682D09D0C8
:100590004C2D3CD06A2D38D0742D38D07A2D36D0E1
:1005A00016E040E0E1682F4620468847B8420546FD
:1005B00009D16C2F29D001208002E1680643204632
:1005C0008847054604E06C2F1DD0FF20013006430C
:1005D000002D28D028464138192803D80120C00210
:1005E00006432035204626602946029A1646FFF724
:1005F000A5FD002810D001280BD0F61DF008C00082
:100600000830029055E74020E1E78020D5E7002040
:10061000D3E7361D02964CE762682846A1689047EA
:10062000206A401C44E7206AFEBD00006E7E000088
:100630000FB400B58DB010A909900B900020C043F5
:1006400000910A9000200C900748784406900748D3
:1006500078446A4607900F9909A801F061FC0DB033
:1006600008BC04B018470000F7180000111900007A
:10067000FFB51D460027FF4383B05C680020019052
:100680009E68A96904987F1C88470090296A88475A
:100690000028F6D10098401C0CD00320400284436F
:1006A000002E19DD600614D500982B2809D02D28BE
:1006B0000FD103E00020C04307B0F0BD012080024D
:1006C0000443A96904987F1C8847761E002E009079
:1006D00002DD0098302803D00598002825D035E0A9
:1006E0000120A96940020443761E04987F1C8847B4
:1006F000002E009003DD782805D0582803D00598F7
:10070000002810D022E00598002801D010281DD123
:100710000120A96940028443761E04987F1C884703
:100720000090102002E0082000E00A2005900DE073
:100730000121059A49020C430199761E514308187C
:100740000190A96904987F1C88470090002E05DD60
:100750000599009801F0CEFB0028E9DAE9690498D0
:100760008847A00502D40120C043A5E7E00722D1B5
:10077000600611D56005019800D5404229680A1D20
:100780002A600968220501D5087014E0220701D506
:10079000088010E008600EE02868011D29600068EC
:1007A000210502D50199017005E02107019901D5C4
:1007B000018000E0016038467EE7000070B5044625
:1007C000C068810713D0800601D5A56A04E0A1693D
:1007D000606840182169451A204601F0A1FD0022F9
:1007E00006462946204601F0CBFC304670BD00206D
:1007F00070BD70B5002802D0FFF7E0FF70BD002586
:10080000074C6E1E08E02046FFF7D8FF002800D0F6
:100810003546206D44086400002CF4D1284670BD94
:10082000C8F2FF1FF7B516460C46104600F06EF8EA
:100830002078611C61280AD0722802D0772839D12B
:1008400002E00125002404E00225042401E02D4DEE
:1008500008240222032301270878491C2B2806D0EC
:10086000622807D02039C87F742807D008E01D43CC
:100870001443F1E7042005433C43EDE71020044313
:100880000098214604F022FD411C13D00021316163
:1008900071600121F5604902F1617061200704D5A2
:1008A00030460222002101F06BFC306D3843306588
:1008B0003046FEBD0020FEBDF8B50D460646124C82
:1008C000206DC10704D0410804D044086400F7E754
:1008D000224610E05420FFF7F1FC070010D0790801
:1008E000206D4900012211430843542120653846F8
:1008F00000F0C2F83A4629463046FFF793FFF8BDAC
:100900000020F8BD02800000C8F2FF1FFEB50446BB
:10091000466900690F4F0190E56800200090A80724
:1009200007D0204601F0FCFC304604F091FC002882
:1009300001DA3846FEBD280502D50198FFF7EFFC25
:100940004C21204600F098F8206D400840002065BA
:100950000098FEBDFFFFFFFF30B5441C03E00178A7
:10096000401C00290DD08107F9D10B4BDD0104C8D3
:10097000D11A91432940FAD0001B0A0603D0C01EA9
:1009800030BD001B30BD0A0401D0801E30BD0902FD
:10099000FCD0401E30BD0000010101010346F0B54E
:1009A0000B439B072DD1244DEF01042A29D308C8FE
:1009B00010C95E1B9E43121F3E4017D0D8B2E1B251
:1009C000401A3106014310D198B2A1B2401A310445
:1009D00001430AD118022102000A090A401A310211
:1009E000014302D1180E210E401AF0BDA342DCD003
:1009F00018BA21BA884201D90120F0BD0020C043B5
:100A0000F0BD002A01D10020F0BD03780C78401C15
:100A1000491C002B0DD0A3420BD1521E09D00378E4
:100A20000C78401C491C002B03D0A34201D1521E5C
:100A3000EBD1181BF0BD00000101010101E004C071
:100A4000091F0429FBD28B0701D50280801CC9072E
:100A500000D00270704700290BD0C30702D002708B
:100A6000401C491E022904D3830702D50280801C42
:100A7000891EE3E70022EEE70022DFE782078B070B
:100A80009A4237D170B5920F0AD0032402780B78BE
:100A9000401C491C002A2BD09A4229D12042F5D172
:100AA0001D4EF40104C808C9951B9543254010D17B
:100AB0009A4207D104C808C9951B9543254008D11F
:100AC0009A42EFD012BA1BBA01209A4200D2404299
:100AD00070BD12BA1BBA2DBA18241000E0401900DC
:100AE000E140401A05D12E00E64002D1083CF4D185
:100AF000D01A70BD02780B78401C491C002A09D01E
:100B00009A4207D102780B78401C491C002A01D078
:100B10009A42EFD0D01A7047010101010022030967
:100B20008B4273D3030A8B4258D3030B8B423CD3C3
:100B3000030C8B4221D312E003460B437FD40022E7
:100B400043088B4274D303098B425FD3030A8B4261
:100B500044D3030B8B4228D3030C8B420DD3FF22CB
:100B6000090212BA030C8B4202D31212090265D099
:100B7000030B8B4219D300E0090AC30B8B4201D34C
:100B8000CB03C01A5241830B8B4201D38B03C01A93
:100B90005241430B8B4201D34B03C01A5241030B0A
:100BA0008B4201D30B03C01A5241C30A8B4201D3BB
:100BB000CB02C01A5241830A8B4201D38B02C01A66
:100BC0005241430A8B4201D34B02C01A5241030ADD
:100BD0008B4201D30B02C01A5241CDD2C3098B42C2
:100BE00001D3CB01C01A524183098B4201D38B013F
:100BF000C01A524143098B4201D34B01C01A5241E2
:100C000003098B4201D30B01C01A5241C3088B4226
:100C100001D3CB00C01A524183088B4201D38B0011
:100C2000C01A524143088B4201D34B00C01A5241B3
:100C3000411A00D201465241104670475DE0CA0F8A
:100C400000D04942031000D34042534000229C464A
:100C500003098B422DD3030A8B4212D3FC22890154
:100C600012BA030A8B420CD3890192118B4208D32A
:100C7000890192118B4204D389013AD0921100E08C
:100C80008909C3098B4201D3CB01C01A52418309A0
:100C90008B4201D38B01C01A524143098B4201D3CD
:100CA0004B01C01A524103098B4201D30B01C01AF8
:100CB0005241C3088B4201D3CB00C01A5241830872
:100CC0008B4201D38B00C01A5241D9D243088B42C8
:100CD00001D34B00C01A5241411A00D2014663466B
:100CE00052415B10104601D34042002B00D54942CF
:100CF000704763465B1000D3404201B50020C046F8
:100D0000C04602BD70B5064C7C44064D7D4403E0F0
:100D1000206800198047241DAC42F9D170BD000045
:100D20007C7E00007C7E0000F8B517460E46054626
:100D3000002B07D0104658434419E41B2046B04707
:100D4000A542FAD128460838F8BD00000246C80F6F
:100D5000C00781434B0030B54B405B009B0D20D05A
:100D60001923DB06C91801231B05994220DB032444
:100D7000A40704251346AB400BD3002B04D1EB068C
:100D800013409B00E34204D401246407002312199A
:100D90005941FF231B0599420BD2C9000143500F53
:100DA00009E0CB0204D501430803024305D00548FE
:100DB00030BDFF21C905084330BD0846072109059C
:100DC000884330BD0000C07FF0B50C46871A9C41B7
:100DD0000D46861A9D4103D2C01BA141D219634121
:100DE0000D0D1F0DC94EEC1BAE435CD07F057F0D72
:100DF0000026002F51D02D05AC46A943DD0201236A
:100E0000ED0A1B051D4320231B1B24D41746E74076
:100E1000381871412F46E740CC199D4028183146BB
:100E200061410C0D27D161449A4013D50023401C29
:100E3000594152000ED14008400001224B0052059A
:100E4000D34207D305204007C14201D5B04900E095
:100E5000B0493046F0BD6B00002A00D001229A183C
:100E60001F23203C1B1B01D5002302E0E54028186E
:100E700071410C0DD7D0012424050919C407CD07F1
:100E800040084908E40F28436144002CD5D00024D1
:100E9000401C61419A40D0D1CDE76A05520DD9D1AD
:100EA000C90FC907D5E79C4D4E00002801D0012489
:100EB00000E0002434195F00002A01D0012600E080
:100EC0000026BE19954FAC420CD8AE420AD8B442A7
:100ED00006D001256D05EC42BCD010461946F0BD88
:100EE0009942FCD000203946F0BDF0B51FB40C4645
:100EF0000F46811A9F412546861A9D4106D201253B
:100F0000ED076F40401ABC4152187B41210D1E0D68
:100F10008D1BAC467D4D8D437ED075056D0D7CD00F
:100F20000D05AE46AC431B031B0B794D52429D4150
:100F3000202366469B1B14D31746F740381800261B
:100F40000090744160462F460741E41900989D4087
:100F50002818664116D4714671189A4025D5012388
:100F600020E093182A466A415200002B00D0521C00
:100F70001E23203E9B1B002B61DD3541EE172818F8
:100F80006641E8D5001876415B1C9A4000D3401CAE
:100F90004B05F3181524E34010D3002B52D07146B3
:100FA0007118D30FC01802D3491C05B0F0BD01233E
:100FB000DB079A42F9D140084000F6E701225205CA
:100FC000B21801D1002853D00123CC0ADB02994387
:100FD000891E002A08D1020C03D0020C000410392B
:100FE00002E00246002020390023550B05D11202F1
:100FF0000823550B01D152010D23550C01D11201CB
:101000001B1DD50C01D192009B1C150D01D1520066
:101010005B1C2025EE1A01E02CE022E00546F5409D
:1010200015439840CA1AE10769181305C918002A20
:10103000BBDA032040070818C10FC9070FE071464B
:101040006118B2E7F10740080843711071444A0083
:101050000CD001235B059A42A7D2C90FC907002013
:10106000A3E74905490D26D1002001E00028F4D16D
:1010700000219AE7284D6600002801D0012100E0F8
:10108000002171185F00002A01D0012600E000262F
:10109000BE19224FA94210D8AE420ED8B14208D094
:1010A00001256D05E94206D01946A80241401046C7
:1010B0007BE79C4201D0214677E70020394674E760
:1010C00010B50C465C4005D50124E4076340FFF7EA
:1010D0000CFF10BDFFF778FE10BD30B40C465C402D
:1010E00004D50124E407634030BC6DE630BCFCE667
:1010F00070B50124E40761400D465D4002D4FFF75E
:1011000063FE70BD6340FFF7F0FE70BDFF07000097
:101110000000F0FF0000F07F0000E0FF0000F87F1B
:10112000F0B5F94D0C091E092C402E402F468BB00E
:10113000A7437DD0B543FCD0002E7AD0002CFCD044
:101140000D465D40ED0F2543AC1BFF25AD04641932
:101150000894C502440DC9022143500DDC0204432A
:101160000120C00701430443D2020191200C110C5D
:1011700000958C46010423468B430A91614609047D
:10118000E24D8A430991010A7D4449198039097861
:1011900005464D4301266D18F605751B6943C90CBC
:1011A000640B891C4C436418B5012C1B250C2E04C0
:1011B000B4434C434D43210C691889090591009DA6
:1011C000E90701D00121C90704912C46019967085C
:1011D000CD072F434C08059DE10B4D432D0C2946AF
:1011E0006646754302950D4645432E46029D7D1B7E
:1011F000B44100950D465D4301942C0C2F040D461F
:101200005543AE462D0C3D43029503947546049C10
:101210002D04641B049406D2029C039D641C0026CA
:1012200075410395029401AC70CC009F7D1B01E0D9
:101230003EE162E1B44109040095079101940599EA
:10124000A4086143090C0C464443650BE7040C46B3
:1012500066467443A646640B3C4303950294744669
:10126000049DE4042C1B049406D2029C039D641C80
:10127000002675410395029401AC70CC009F7D1B44
:10128000B44101940C465C430095650FE7000C46A1
:101290005443A646640F3C43039502947446049D50
:1012A000E4002C1B049406D2029C039D641C0026BF
:1012B00075410395029401AC70CC009F7D1BB44135
:1012C000AE09AF06049DC900AD092F43049DA406D5
:1012D000AD060495079D344369180791059DE10B00
:1012E0004D432D0C29466646754302950D464543F0
:1012F0002E46029D7D1BB44100950D465D43019431
:101300002C0C2F040D465543AE462D0C3D43029543
:1013100003947546049C2D04641B049406D2029C1D
:10132000039D641C002675410395029401AC70CCAA
:10133000009F7D1BB44101948C050694079C890A8B
:10134000611800950791019C0599A4086143090C57
:101350000D464543680BEF040D46644665436C0B30
:101360003C43049FED047D1BAC4602D20025641C67
:101370006841009E019D371B8541084658430195F1
:101380000C46460FC5005443600F28436546E400F1
:101390002C1B02D20025401C6E41019D3F1AB54115
:1013A0002846BD09800628438446A009BF064E0290
:1013B0000699A40676180743079D002068410A99FC
:1013C000079019430020099B00906046FF191343C2
:1013D0004041E20F64003A43A4460446D71A8C41C8
:1013E000A04203D90120009020463A46C70F941826
:1013F00040416246D20F2243644664000494009C3C
:10140000BE466400D71AA446044602978C4177462C
:10141000002F01D1A04204D96046401C8446029AA4
:101420002046C40FA64694184041049A0546D20FA0
:10143000224364466400D31A8D417146002901D1CC
:10144000A84202D928461A46641C104301220028EB
:1014500000D0164361020020079B891904465C41B5
:101460000223002C02DB491813466441089DCE0A72
:101470002D145D194B056705E10A2C050D19089916
:101480003E43C9076940002B08D0934006D3002291
:10149000761C5141002B01D1760876001C4A002DA4
:1014A00043DB154241D0AA433FD030460BB0F0BDDC
:1014B00006180D464D41174C7642AC411AD395188B
:1014C0001C465C41134A6D42A24113D301225205CE
:1014D0004C00D4420AD15C00D4420BD04B4002D520
:1014E00092021143E2E749004908DFE75940C90F7A
:1014F000C90718E000200849D8E7054801420DD186
:101500000342F7D0F2E700000000FF07C1710000BE
:101510000000F07F0000E0FF0000F87F1148594014
:101520000143C01241400020C0E70123089A9B06F6
:101530009A4205DC032252078918C90FC907B5E78B
:10154000052252078918074A1143D2125140ADE7CC
:1015500070B515461C4602460B4628462146FFF745
:10156000DFFD70BDFFFFFF7F1F22030C02D10F22A2
:10157000000402D0030E03D004E0002001467047AF
:101580000002083A030F01D10001121F830F01D19D
:101590008000921E002801DB4000521E12055118E7
:1015A0004205C012411810467047C10FC90700D04C
:1015B0004042012292071143D6E701218907D3E770
:1015C000F0B58B4C0F09254689B0BD437BD01D0972
:1015D0002646AE43FAD00E465E402740F60F3E4305
:1015E000254071D024012142FBD0FF24AD19A40471
:1015F0002D1B039501252D05DB02DB0AC9022B43B8
:10160000C90A29431E010901040F130F05012143D3
:101610001701880B820391432D098C46A90B1E43A9
:101620008A039543B30B9A0396433F09BA0B94037D
:10163000A74302962E467E430497B6464E19D71905
:101640000C460196544305977E43371B7646BF1BD5
:101650003601B646BE0B361900967646BC043719DD
:10166000009C01D3641C00946400002F01D001266B
:101670003443029E049F754366467E43049676007B
:1016800034196E0034190094029C019E1C196643A3
:10169000751BAE46069465464519059C05956C4339
:1016A000594375460891691A0191049E01465143B8
:1016B000A41B0491611A009C0791E10605D0610901
:1016C0000122114302E072E06EE06109089D0027EB
:1016D0002C0A2D066918049D7C412A0A2D066918DA
:1016E000019D6241AC0DAD026D185441079A910DF8
:1016F000920255196141029A644658435443069B2D
:10170000059A5A43121A131B9A0E9B015B187A41D1
:10171000010B0005C3185141220A200644195A4101
:101720009A4200D2491C01204002814203D3152372
:101730000226F64302E014230326F6432020C51AAE
:10174000A9401746AF40DA400A4320460399D840E3
:101750000914731819055118039A3843D2075140D8
:10176000AC4009D00122944006D30022401C5141D4
:10177000002C01D1400840001E4A934212D301229E
:1017800003989206904207DB0520400709181A4883
:101790000143C012414004E0032040070818C10F74
:1017A000C907002009B0F0BD0020F107FAE70518CD
:1017B0000C464C4111486D42A04115D394181A466D
:1017C0005A410E48644290410ED301204A00400520
:1017D000824209D35A00824206D35940C90F084AAF
:1017E000C90700201143DDE700200649DAE70000C1
:1017F0000000FF07FE070000FFFFFF7F0000E0FF83
:101800000000F07F0000F87F0121C9050123411885
:1018100042001B06D3185B0E0AD0C1100722D20665
:10182000891840075242D14201D5520089187047A9
:10183000090208D50146002A03D0C10FC9070020BC
:10184000704710467047420202D00020024970479C
:10185000072109050143F4E70000F87FF0B5FF25F3
:101860002D04C609C209FF2704462E400137CB09C3
:101870003E4348402A402B400746002A6BD0002BAD
:1018800069D0AA4267D0AB4265D0002800DA324660
:101890000125ED0529432C4309022002090AD21A29
:1018A0004B0C7F24E31A434C000A7C44E35C7D2408
:1018B0002404121914145B00A218884201D3521C8C
:1018C00000E0400049420C465C4324115C43DB01CC
:1018D0006415E318040A5C43C502200D0C4644431A
:1018E0006419250A5D432303EC0C0D466543000390
:1018F0000019EB184C42A34201D35B18401CD405DD
:101900002018002B07D05B00C91804D3401C002905
:1019100001D1400840003F2189048A4209D3002AAE
:1019200008DC1106090F04D0032149074018C00F35
:10193000C007F0BD01224100120689187F2252061D
:101940009142F6D205214907C84201D59010F0BD59
:10195000FF20C005F0BD002F00DA32461648AA422B
:1019600007D2AB4205D21902090E17D0F80FC007F3
:10197000F0BDFF2563002D06AB42F9D84900A9420E
:10198000F6D8AB4201D1A942F2D0A94201D100213F
:1019900001E061004908D0050843F0BD1102090EBD
:1019A000FBD0FF200243D005F0BD0A460146104699
:1019B00054E700001F6B00000000C07F0102C21549
:1019C00004D00123DB071943002A0ADB9E239A1A5D
:1019D00002D40846D0407047FF22410012069142CF
:1019E00001D900207047C017C04370471F22030C65
:1019F00002D10F2200041CD0030E01D10002083ACC
:101A0000030F01D10001121F830F01D18000921E2C
:101A1000002801DB4000521ED20551180212511855
:101A20001922904004D3491C002801D149084900DB
:101A300008467047C10FC90700D0404201229207F3
:101A40001143D3E701218907D0E77047704738B5C4
:101A500004460A460020694601F0D8FC002805D05B
:101A600002462046009900F075FE012038BD10B5F1
:101A7000012001F08CFC10BDF8B501F0BBFC05465F
:101A800000200C461020C0460646A819A0420DD9D9
:101A900032466946002001F0B9FC070001D101F08F
:101AA00076FC0098A04200D00546C419FEF79CFCC5
:101AB000F61D07460560F008C0004619284600F0EC
:101AC00008F8B44204D031463868A21B00F042FE48
:101AD000F8BD0021016041608060704710207047B0
:101AE00010B500F033FE006810BD10B5044600F0DC
:101AF0002DFE046010BD70B5044685690068C106FE
:101B000001D5302600E02026C00707D070BD6268EE
:101B10003046A1689047206A401C20626D1EF6D5B1
:101B200070BD70B5044685690078C00707D170BDE7
:101B30006268A16820209047206A401C20626D1EC8
:101B4000F6D570BD09684A0501D540B27047C90590
:101B5000FCD500B2704709684A0501D5C0B270478C
:101B6000C905FCD580B2704770B50C460546012A00
:101B700005D02878800600D5EA69002302E0012319
:101B800005E05B1C934202D2E05C0028F9D1A86911
:101B9000E618C01AA861286AC01828622846FFF70C
:101BA000AAFF04E06A682078A968641C9047B442E0
:101BB000F8D32846FFF7B5FF70BDFFB504460D46C4
:101BC00081B0243000902168880604D51022E06995
:101BD0009143216000E00120A84201DD471B00E0A5
:101BE00000270498A1697A191018081AA0612078B2
:101BF000C00602D42046FFF77EFF002608E00398C7
:101C00006268A168805D9047206A401C761C206253
:101C100004988642F3DB2078C0060AD52046FFF7F9
:101C20006AFF06E06268A16830209047206A401C85
:101C3000206238467F1E0028F4DC07E000986268C6
:101C4000A168405D9047206A401C206228466D1EB6
:101C50000028F3DC2046FFF764FF2078000602D559
:101C6000022005B0F0BD0120FBE70000F7B500251C
:101C700075291068009914A611D0FFF763FF00289A
:101C800002DA404211A608E0009909688A0701D5E6
:101C90000FA602E0490704D50EA6012501E0FFF7D3
:101CA0005AFF009F0024243704E001F08FFB3031FD
:101CB0003955641C0028F8D12B463246214600983D
:101CC000FFF77BFFFEBD0000000000002D000000BC
:101CD0002B0000002000000011680268006A530514
:101CE00001D5087009E0D30501D5088005E0130689
:101CF00002D5C21705C100E008600120704700004E
:101D000001694A1C02610878704700B58FB00291E2
:101D100000210591054901937944039111460490EE
:101D20006846FEF7C1FB0FB000BD0000E5FFFFFFF6
:101D3000084B70B50D467B44FFF7E7FF0446284685
:101D400000F022F9002802D00020C04370BD2046D8
:101D500070BD0000CF3A0000F7B50446154686B0C6
:101D60002B487844002703C83E460090019111E0BB
:101D700007986A467100415A02A801F0DCFA411C3A
:101D800007D02178890603D5E269391891420ED827
:101D90003F18761C2078800602D5E069B84206DD3F
:101DA000AE42E5DB07987100405A0028E0D1A069F7
:101DB000C01BA0612046FFF79EFE154878445A38A4
:101DC00003C800900020019116E041006A46079880
:101DD000415A02A801F0AFFA0590401C0AD0002534
:101DE00005E0626802A8A168405D90476D1C0598F7
:101DF0008542F6D30498401CB0420490E5DB206A8B
:101E0000C01920622046FFF78CFE09B0F0BD00002B
:101E100032670000F7B5D21D0025D20815A6D20002
:101E2000F52905CA11D0002A05DA00214042914166
:101E300011A60A4608E0009909688B0701D50FA68C
:101E400002E0490701D50EA601251146009F002496
:101E5000243704E000F098FC30323A55641C024606
:101E60000A43F7D12B46324621460098FFF7A5FEDC
:101E7000FEBD0000000000002D0000002B0000004F
:101E80002000000070B504460021243408E0550706
:101E9000D2086D0F303565545D072A43DB08491CB5
:101EA00015461D43F3D10468002310A2250708D569
:101EB000A40601D4002904D0C46901230CA2641E25
:101EC000C461FFF77AFE70BD10B504462146106864
:101ED000FFF741FE002302462046FFF7D3FF10BD67
:101EE000D21DD108C9000CC9CCE7000000000000D9
:101EF000300000003A2800D23038202302469A43AE
:101F0000412A01D310463738884201D30020C0430C
:101F10007047000002685118137801601846704736
:101F200010B5D16005497944516105497944116280
:101F300000211161114601F013F810BDEBFFFFFF06
:101F4000D30800004268002A08D001680B78491CB9
:101F5000002B03D0521E06C0184670470121C160F5
:101F6000881E70474268002A0BD0C3680168002BA6
:101F700007D183688B4204D0491E521C06C0002042
:101F800070470020C0437047C068802108407047F8
:101F9000F8B505460C46C8680521C90488430121E7
:101FA00089050843E060800602D5204600F0DEF98E
:101FB0007149E0680140022903D0204600F080F911
:101FC000BCE00521012249030140D20391420FD117
:101FD000C00306D56168E06A884200D808466060A0
:101FE00006E02069E0626060606903F047F9A06183
:101FF000A1680022EEB200290EDAE06883050BD456
:10200000C943A1600921226049030843E060606878
:10201000411C61600670ACE0E0680121490308439F
:10202000E060002020602069002831D1606903F061
:1020300039F9012527462437ED02002816D0A0895A
:102040008005800F08D0E069FEF738F9002820618C
:1020500002D0E068284318E001202761E061E068D1
:10206000032109028843012189020DE0E069FEF79E
:1020700025F900282061EFD0E0682843E060810561
:10208000890F03D1FF2101310843E06020696060BE
:10209000E2683A4F2569D0051FD56168E06A884239
:1020A00000D80846411B05D02246284600F012F908
:1020B000002843D1E068010204D5E5620020656094
:1020C000A06053E0691CE1626160E169491E384328
:1020D000A160E06030462E70F8BD100201D53A4094
:1020E00009E06068411C61600670E06838430A2EB0
:1020F000E06006D00022E16A6068814203D90B46A5
:1021000002E00122F7E70346A7895B1B7F0504D4A1
:10211000E7699F4201DD002A1ED0814200D80146B6
:102120000F1A0020E5626560002BA06009DD2246E1
:102130001946284600F0CEF8002802D00020C043FF
:10214000F8BD002F08D0A069E5626560C01BA061E2
:10215000E06810210843E060E068000209D561688A
:10216000A069E562491B40186560A0610120C04379
:10217000F8BD3046F8BD00008210000000000100EC
:10218000F8B5044616460D464769007B800730D0F7
:10219000384603F087F800282BD132461026002A53
:1021A00025D0012A02D0022A23D104E0204601F0E2
:1021B000A1F845191BE0384603F060F8E1683143A7
:1021C0000028E16004DA204600F07AF80120F8BD2A
:1021D000C9030BD56268E16A914200D81146A26931
:1021E00089182269891A814200DD08462D18002DC0
:1021F00001DA0220F8BDE16A6068E268814206D235
:102200009103E06203D5012149048A433243A66960
:10221000AE4211DCE16A814201D90B4600E003467F
:102220009F192369FF1AAF4206DD814201D90F468B
:1022300000E007469F4206D1202002430020A06014
:10224000A56220600DE0AD1BE669AE1B8142A66071
:1022500000D90846C01A281A20605819606020204A
:102260008243034802400020E26040342072F8BDFF
:10227000BFCFD7FF70B5C468A50713D0650211D4CE
:10228000D51FF93D0AD0FF3D6D1E07D0FF3DFF3D34
:10229000022D07D101462431012305E0074E5D1EC2
:1022A000B54201D3012070BD0161C36141600F21BE
:1022B00009028C431443C460002070BDFFFFFF007F
:1022C000C1688022114392039143C1600021816063
:1022D00001607047F7B514460E463348D568576914
:1022E000054209D03846A16903F0D6F8002811DB71
:1022F0002D48C0430540E5602B46324638460099DC
:1023000003F0DEF84200A1695208B21A89180028C9
:10231000A16104D02046FFF7D3FF0020C043FEBDDB
:1023200070B504460569C06A6168884200D80846ED
:10233000E1680522D2049143E160C90314D5A842A3
:1023400009D02246411B2846FFF7C4FF002802D0CF
:102350000020C04370BDE56200206560A060E068B9
:10236000012109048843E060002070BD10B50446D7
:10237000C06820218843E060A16AA06988420ED02D
:102380002046FFF7CDFFE0680321090388431021B1
:102390000843E060A06AA0612069E06260600349D0
:1023A000E0680840E06010BD10000200BFBFFFFF02
:1023B00010B543485421FEF75FFB42485421FEF715
:1023C0005BFB41485421FEF757FB40483C493D4BDD
:1023D000404A01603E4803603B4810605A1C0A6551
:1023E000411C1965012101653C48354A3AA17844F0
:1023F000FEF718FA002804D1384878440C3800F069
:10240000C0FF38482F4A36A17844FEF70BFA00285F
:1024100004D1344878440C3800F0B3FF32482A4ADB
:102420002FA17844FEF7FEF9002804D12E48784405
:102430000C3800F0A6FF40232148DC000021224692
:10244000FFF718FF002804D0244878445C3800F0D7
:1024500098FF1C48224640230021FFF70BFF00286D
:1024600004D0204878445C3800F08BFF16482246A0
:1024700010230021FFF7FEFE002804D01A487844FC
:102480005C3800F07EFF10BD0F4870B5006D440849
:102490000B486400FEF73AFA0A48FEF737FA0A4892
:1024A000FEF734FA09E0206D450820466D00FEF77E
:1024B0002DFA2046FDF733FF2C46002CF3D170BDDA
:1024C000C8F2FF1F1CF3FF1F70F3FF1F74F1FF1F03
:1024D00078F1FF1F7CF1FF1F720000001E57000003
:1024E000770000000B570000F956000010B500F00F
:1024F00055FF00F040FF10BD70B505464800440D83
:10250000124B0020002C0AD0634008D09A4206DA11
:102510006642B24203DD12054019514170BD002CE4
:1025200008D0002B09D0C90FC907002AF6DB084ADA
:10253000114370BDC90FC90770BD28460A03104377
:1025400002D00020034970BD284670BDFF0700007F
:102550000000F07F0000F87FF0B53D4B02460C46CE
:102560001C400020002C63D03A4D8B4366D00029DC
:102570006BDB0B0D1D05A94301252D052943012406
:10258000FD33E34001D392184941FF3381339C4628
:102590008B02940D0121234389074C4292020027AC
:1025A0001B198C105D1A04D42D1B02D42B46650018
:1025B000491992185B416408F4D15C1A08D40125CA
:1025C000ED07EE175519744102D42A462346491CDB
:1025D00094185B41012292071D46E61B8D4106D4EB
:1025E000B61A854103D42B46550034467F19241969
:1025F0005B415208802AEFD1234300D002233846A2
:102600000A22D04001D3012213438A0510436246B7
:10261000890A12058918002B09D00122D34002D360
:102620000022401C5141002B01D140084000F0BD68
:102630000B03134307D0C90FC907F0BD08031043AC
:1026400003D1002901DB1046F0BD00202946F0BD72
:102650000000F07F0000F87F10B5FF231B06440048
:102660009C421DD84C009C421AD80346124A0B4388
:1026700007D4401A02D3EFF3008010BDEFF30080BF
:1026800010BD081A06D2EFF3008001219043C9075C
:10269000084302E0EFF30080904380F3008810BD10
:1026A0000D231B041A4204D01146002000F0CAFE7C
:1026B00010BD00F027FF10BD0000009030B5C30D25
:1026C0001906214A090E31D0FF292FD000283ADB04
:1026D00001025002014301207D33C34000D249086A
:1026E000012080071724091A240649088210234371
:1026F000FF252D064C00211A04D4891A02D4540057
:10270000201800E0214652085B19F3D51A2204462E
:10271000944007D382068A4203D1802180308843C7
:1027200000E08030C009D905081830BDFF2904D069
:102730004100FAD0C00FC00730BD410201D01046A1
:1027400030BD0028FCDAFAE70000C07F004870477F
:10275000C8F3FF1F10B50346406801E00346406818
:10276000002801D08842F9D31868C3188B4206D0DC
:10277000CB1CD808C000001D411A521A0146081D82
:102780000A60FDF7CCFD10BD0B4670B50246890707
:102790008008084319469D08141AA941250908070D
:1027A000054308092C194841250A01060D43010A71
:1027B0002C194141200C0D0428430D0C00194D41EA
:1027C000002140194D41C00869070843E908840FFA
:1027D0008D002543840024184D4124196D41121B9E
:1027E000AB4107E00925ED432C1152196341002448
:1027F000401C61411C460A250026551BB441F1D2FC
:1028000070BD10B5044600F08BFE0068005DC00787
:10281000C00F10BD7047FFB50C461E468FB003CAEF
:10282000089009914F007D0D00D16D1E00210846D2
:102830000020C0460321099A89050840002A03DACE
:102840008200801840080840800D01280A9002DDAF
:102850000020C0430A90089807430DD0F048F14982
:10286000281848430714189800281DD07542291EBF
:102870001DDD0A9842421BE01898012802D0002072
:10288000302104E00020F24305E02154401CB04216
:10289000FBDB30460022189B002121540F998B60EE
:1028A0000A60486013B0F0BDBD1B6D1CDFE70A9ADB
:1028B000002900DA69420BA800F082FE0BAB07CBBF
:1028C00003AB07C30899099800F0E6FE6B4607C3FF
:1028D0000146D5480918002D00910BDDD249039817
:1028E0000A9A49424018002303A90390684601F060
:1028F00043F908E003990A9A0023081803A90390F2
:10290000684601F0E3F86B4607C30004000C03D0EF
:102910000020C043410800E01046189A002A03D066
:102920000022009215461EE0751E05D4FFF72CFF0D
:10293000303262556D1EF9D501220843079602D048
:1029400000227F1C04E02078302801D100227F1E65
:10295000002A069787D01EE0112D07DAFFF714FF33
:10296000303262556D1C02460A43F5D1084303D04C
:102970000098002819D00EE00021681E05E0235CB5
:10298000625C63542254401E491C8142F7DBA81B41
:10299000401E07950690079A18990020A0540F989A
:1029A000079B069A81600CC07CE7112600201890D6
:1029B00059E7D21DF0B50D460446D10893B0C900C1
:1029C00003C90C900D9102F011FB02460D98C00F47
:1029D00001D02D2007E02068810701D52B2002E0DF
:1029E0004007C00F4001032A0F9001D0072A05DBE2
:1029F00003462946204600F09FFD0EE12078800620
:102A000001D5E76900E006272846652D04D0662831
:102A100014D0672D69D12DE00020112F009001DB2B
:102A2000112300E07B1C0CAA03A910A8FFF7F3FEFA
:102A30001199002610987D1C0E9142E001203B4622
:102A40000CAAC0070B900120009003A910A8FFF763
:102A5000E2FE119D12981099002600280E9501D1D2
:102A6000781C0D18781B02D446427D1C761EE81B8C
:102A700000903AE0012F00DA01270020112F00908A
:102A800001DD112300E03B460CAA03A910A8FFF7C3
:102A9000C2FE11993D46109800260E912178090733
:102AA0000BD40E99A94200DA0D4603A9012D04DDCD
:102AB0004A19203AD27F302A06D0B84201DA011DE5
:102AC00004DA012100910FE06D1EEFE7002802DC1F
:102AD00086192D1A03E0411CA94200DD0D46801B1A
:102AE000401C00900120C0070B902078000705D4FF
:102AF0000098A84202DB0020C043009069460020F5
:102B0000C8720B98012102AF0337C907884225D04C
:102B1000022010902B2011900B9800280BDA4042D5
:102B20000B902D20119006E00B9800F04FFC3031F7
:102B30007F1E0B9039701099481E00291090F3DC0D
:102B40000B980028F0D111987F1E3870208800055E
:102B500001D5452000E065207F1E387001A8C01B0C
:102B6000C01D0B900F98002800D00120411900983B
:102B7000C01709180B980818A169081A401EA0610F
:102B80002078C00602D42046FEF7B5FF0F98002833
:102B900005D06268A1689047206A401C20622078B6
:102BA000C00625D52046FEF7A6FF21E0002E07DB54
:102BB0000E98B04204DD03A86268805DA16802E05F
:102BC0006268A16830209047206A761C401C206211
:102BD0000098401E002800900AD100F0A9FCC068AF
:102BE00062680168405CA1689047206A401C2062CE
:102BF00028466D1E0028D9DC07E062683878A16895
:102C00007F1C9047206A401C20620B99481E0029B7
:102C10000B90F2DC2046FEF784FF032042E6000022
:102C200001FCFFFF104D0000E1DFFFFFD21DF0B5FA
:102C300004460D46D0088DB0C0004668076831468E
:102C4000384602F0D3F90246F00F01D02D2307E0F9
:102C50002068810701D52B2302E04007C00F430104
:102C60006846002B037001D0012000E00020032AF9
:102C70000A9001D0072A04DB2946204600F05CFCBC
:102C80002DE12078800601D40D2500E0E569700073
:102C9000400D0D2D01904BDA300D00210B900846B0
:102CA0000020C046032189050840002E05DA820075
:102CB0008018C20F1018401008408015012801DD4F
:102CC0000020C043A9000023182906D39C460A46C9
:102CD0000123183A1B07D34003E001221205CA4022
:102CE00094460C31202902D33A46203900E032467E
:102CF0008A40002802DD002A06D119E0002817D1F9
:102D00000121C9078A4213D3194663467F185E41E1
:102D1000002806D10120C007824202D1084687431D
:102D20009E430B98310D814202D00198401C0190C6
:102D30002088000502D57149794402E06F49794441
:102D400019396B460A9830221A540A980A7C401C9A
:102D50001A54401C0A900198002801DC302000E041
:102D600031201872019A0120002A02D0644BD21837
:102D700004E072003A4302D0614A521C0192002DD5
:102D800002DC2278120703D56A462E2050720220F8
:102D90000022864694460CE032033601120F6D1E67
:102DA0008B5C02AA13546246521C401C9446052AAE
:102DB00001DA002DF0DC002202AE08E03B0F3F01FB
:102DC000CB5C521C6D1E3354401C082A01DA002DC6
:102DD000F4DC23689A0601D511E0401E704504DD3D
:102DE0003218203AD27F302AF7D0002807DD321877
:102DF000203AD27F2E2A02D11A0700D4401E002D7D
:102E000003DD3E223254401C6D1E497C3154019931
:102E1000401C002906DA2D21471C315401984042FC
:102E2000019003E02B21471C315401987D21C900FA
:102E3000884206DBFDF780FE3030F0557F1C0191A3
:102E400001E0642808DB01986421FDF775FE30304D
:102E5000F0557F1C019101E00A2806DB01980A2148
:102E6000FDF76AFE3030F0557F1C01980A21FDF70E
:102E700063FE3031F1550A98A1697F1C7A19101848
:102E8000081AA0612078C00602D42046FEF733FE5F
:102E9000216A6E460A980818206204E06268307859
:102EA000A168761C90470A98401E0A90401CF5D1F4
:102EB0002078C00602D52046FEF71DFE02AE09E0CE
:102EC0003078761C3E280DD06268A1689047206A51
:102ED000401C20627F1EF3D22046FEF722FE0DB07A
:102EE0000320F0BD206A4019206203E06268A168F7
:102EF000302090476D1EEDD3F8E700007F570000AB
:102F000001FCFFFF10B54369002B02D0C046C0464C
:102F100001E0FEF729FE012010BD127801462431A0
:102F20000A7000224A700122ECE711680022D243A5
:102F3000E8E710B54369002B02D0C046C04601E067
:102F4000FEF70AFF012010BD128801462431828459
:102F50000022C2840122ECE711680022D243E8E794
:102F6000F3B50C468FB000200C90012000260E9087
:102F700008460C3003906269039801219047051EB2
:102F80002ED0252D2DD0216A8847002818D06269BF
:102F9000039801219047216A88470028F7D1626988
:102FA000411E0398904700E0761CA1690F9888475E
:102FB000216A88470028F7D1E1690F988847DAE746
:102FC000A1690F988847A842074601D1761CD2E72D
:102FD000E1690F9888477F1C02D10C98002877D0B0
:102FE00075E16269039800273D46394690472A28D3
:102FF0000CD16269039801219047012506E00A215E
:103000004F433F18303FEBD41020054362690398CB
:1030100001219047014630390A2903D2B1498F4234
:10302000DEDCECE7E90600D4AF4F6C280AD04C2870
:1030300010D0682824D06A282ED074280CD07A2882
:103040000AD00DE062690398012190476C2823D0D3
:1030500004211CE020200543626903980121904768
:10306000A760652865604FD026DC582839D01ADC67
:10307000452849D012DC252834D04128B0D143E07E
:103080006269039801219047682802D008210D4306
:10309000E6E70120C002DEE70220DCE7462833D065
:1030A00047289DD130E05B2870D061282CD0632860
:1030B0006CD0642894D161E06F284FD009DC662879
:1030C00022D0672820D0692826D06E2888D12EE00B
:1030D000F9E070284DD073286FD075284ED078282D
:1030E0000DD154E0A1690F9888472528054600D1E5
:1030F0006CE7E1690F9888476D1C00D16DE7E6E049
:103100000A224CE00A2252E0012023466A460F9927
:10311000C043C046C046CFE040212846234608436E
:103120006060A80701D5002239E000223FE0E807EF
:1031300000D020E72068011D21600068290501D525
:10314000067018E7290701D5068014E7A90703D5FB
:10315000F117066041600EE706600CE74021284643
:10316000234608436060A80701D5082217E008221B
:103170001DE05E4928460840606016E04021284670
:10318000234608436060A807BCD5B9E715E0402195
:10319000284608436060A80707D52346102201206F
:1031A0000F99C043C046C04686E010222346012046
:1031B0000F99C043FDF75CFA7EE0002163280B46BF
:1031C0000191009102910D9102D05B2808D03CE062
:1031D0002079C00601D40120A0600120009034E0D5
:1031E000E06801210D906269039890475E2807D13D
:1031F00001200190E06801210D90626903989047D9
:103200002169002906D10B4604AA8F00491C082910
:10321000D351FADB00285AD02169002927D002981F
:10322000401C029062690398012190475D28F1D10A
:103230000198002808D0002004AB8100401C5A5897
:10324000D24308285A50F8DB04AB206900282079C3
:103250001DD0400726D5029A00980D9B0092224669
:10326000029001200F99C043C046C04624E0C11718
:10327000C90E09184A114909930004AA9A1849016C
:10328000411A13680120884003431360CAE74007CE
:10329000224617480F9902D5C046C0460CE0C046EA
:1032A000C04609E00298224600990D9B00900291C9
:1032B0000F480F99C046C04600280ADA401C06D1C4
:1032C0000E98002803D00020C04311B0F0BD0C9828
:1032D000FBE7E90702D10C99491C0C913618002034
:1032E0000E9048E6CCCCCC0CFFFFFF7FF1F7FFFF40
:1032F000FEFFFFFF10B50146C268900703D090069D
:1033000007D5886A0AE0FFF721FA01210160881ECB
:1033100010BD8B694868C0180B69C01A40310B7A20
:10332000002B02D0497A401A10BD1103FCD50028A9
:10333000FADD401E10BD70B516460C46054600F07D
:10334000EFF80368FF200230C05C012807D0FF2C93
:103350000ED8185D00280BD001202C7070BDFF33F3
:103360003246214608331868C3182846984770BD6E
:103370000020C04370BD10B5002801D000F0CAF88D
:1033800010BD10B500F062FCFFF7F5FF10BD10B5E1
:1033900000F076FCFFF7EFFF10BD000010B5002134
:1033A00002A000F039FC012010BD00005349475035
:1033B00056464E3A20507572652076697274756172
:1033C0006C20666E2063616C6C6564000146800849
:1033D000081A02091018020A1018020C1018C00866
:1033E000820012185200891A01E0401C0A390A2989
:1033F000FBD2704701226946114B120382188A42A0
:103400001A6001D8114670471960704770B50C4CAE
:103410006D46012636032368AD1B9A18AA420ED8C2
:10342000AD1A9019EE0F75196D10AA18904200D9B7
:103430001046C01D0B60C208D200D01A226070BDB9
:1034400080F1FF1FC80212D54803400F002804D0A6
:10345000C803C043012188407047EFF3008000019A
:10346000000903210907084380F300887047002002
:1034700070470000F8B5224C4E00069DA6420AD8BF
:10348000A64201D1002806D15E00A64203D8A6427A
:103490000AD1002A08D00D24240425422CD0294624
:1034A0000020FFF7CFFFF8BD0C461C430CD4994217
:1034B00002D0EFF30080F8BD904202D0EFF300801D
:1034C000F8BDEFF30080F8BD09242407E5008B4226
:1034D00006D0EFF30080A043591A06D2284304E037
:1034E000101A05D3EFF30080A04380F30088F8BDE5
:1034F000EFF30080A043F1E7009500F0E9FBF8BD91
:103500000000E0FF10B5024800F0ECFB10BD000029
:103510000000C07F01491820ABBEFEE72600020074
:1035200010B500F005F8001D10BD00BF25400000DB
:1035300000487047CCF3FF1FF8B51F46044601232F
:103540000068DB02032601461840072A05DB002835
:1035500001D017A506E017A504E0002801D016A5A4
:1035600000E016A5102081432160A069C01E002F35
:10357000A06101D0401EA0612046FEF7BCFA002FDA
:1035800009D038466268A1689047206A401C2062D2
:10359000C01C206206E0206AFAE762682878A16809
:1035A0006D1C9047761EF8D22046FEF7BAFAF8BD99
:1035B0004E414E006E616E00494E4600696E6600D7
:1035C000F7B516468AB0334878446C4603467C33D8
:1035D000C06F5A689B680DC42E487844763003AC9F
:1035E0000DC80DC43720C001081837211B30FDF766
:1035F000A3FA05460C46803D1B3C02D564420120DF
:1036000000E000200027099010E0E0070CD00C201B
:1036100020497843794432464C39411868460123A1
:1036200000F054FA6B4607C364107F1C002CECD1E9
:10363000184F7F442E3F16E0E80712D02001C01932
:103640000EC80691089307920068F04201D19819BC
:1036500008903246012306A903A800F037FA03AB0D
:1036600007C36D10641C002DE6D10998002806D010
:1036700032466946012303A800F07EFA05E00123E3
:103680003246694603A800F021FA0A9B07C30DB031
:10369000F0BD0000044F0000034640000A4610B58C
:1036A000400D0BD00121C9070F24A40200191C03EF
:1036B00064082143540D2143D20207E00021012078
:1036C000F2E7D40F490021435200401E0029F8DAE6
:1036D000DB0FDB07184310BDFFB50D46144685B060
:1036E0004868516801F06AFC00910190A868A168DF
:1036F00001F064FC02910390A868616801F05EFC2F
:10370000029A12188242029201D2012000E00020A7
:10371000019A0B18D2180028019202D08A4202D9CD
:1037200003E08A4201D2012000E00020009908183D
:1037300000906868A16801F041FC029A1218824268
:10374000029201D2012000E00020019A0B18D21849
:103750000028019202D08A4202D903E08A4201D2B3
:10376000012000E0002000990818009028682168D6
:1037700040004900400849084018FA49471814E039
:1037800001994000C90F0843009001980299400038
:10379000C90F08430190029803994000C90F0843DC
:1037A0000290039840007F1E039000980028E7DAFB
:1037B0000898002801D0EC4E00E00026B74201DA5C
:1037C000012000E00020002804902AD0F71BF80612
:1037D000C00E15D0029B2021091A039A8B401A4370
:1037E0000392029A019BC2408B401A430292019AB3
:1037F000009BC2408B4000991A430192C140009146
:103800007B110DD06F460320C11A03D50021820021
:10381000B95003E08A008100BA587A50401EF3D5AF
:10382000374603980299002800D0012001430898E8
:103830000291002808460CD0002800D001200199F0
:10384000019A490508430121D20AC902D202019214
:1038500000E001210E9B0122D207012B02D0002B98
:1038600003D013E0002807D120E0904204D8904212
:103870000CD1019B0B4209D0019B5918019105D134
:103880000099491C009101D17F1C009200280DD0A5
:10389000102108460020C0460498002806D00F9842
:1038A000002803D0082108460020C0462868216867
:1038B000019B009A4840C10F0598C90739430EC0C3
:1038C00009B0F0BDFFB587B0099A08980899536808
:1038D000926840688968964600220393174694468A
:1038E000089A12685300099A5B081268520052083D
:1038F0009A1A9E4BD4180A9A002A01D0352200E069
:10390000402206920022012315460492DB0705930C
:1039100024E0002D05D175460346039E4D1BB3419F
:1039200009D375466646039B491B049D9841059B38
:103930007519AC465F4163463B4308D0059B049E26
:10394000DD0776082E435B080496059301E0521EBE
:10395000641EC50FED0749184041521C069B9A4250
:10396000D7DB002D04D17546039A6B1A824101D230
:1039700003200CE0039A0B466B404240134303D0F4
:10398000014303D0012002E0022000E00020614654
:1039900001910021009702910A99002905D0614602
:1039A00040020143704B019102E080070023029026
:1039B0009C4201DA012000E0002007003AD01A1BE7
:1039C000D006C00E15D0029D2021019C091AC540C9
:1039D0008C402543029C8C4000D001242543019C4F
:1039E0000295009DC4408D4000992C430194C14034
:1039F000009154111DD06D460221002202290CD1E4
:103A00000320001B07E0002804DB8600AE59002ECF
:103A100000D00122401C0328F5DB081B02D58800DA
:103A20002A5004E08000285810438A00A850491EFC
:103A3000E3D51C460A98002802980CD0002800D034
:103A400001200199019A490508430121D20AC902BE
:103A5000D202019200E00121109B0122D207012B2A
:103A600002D0002B03D013E0002807D11FE09042C2
:103A700004D890420CD1019B0B4209D0019B5918EC
:103A8000019105D10099491C009101D1641C00925B
:103A900000280CD0102108460020C046002F06D078
:103AA0001198002803D0082108460020C046089835
:103AB0000999019A009B006809684840C10F07985E
:103AC000C907214382600AC00BB0F0BD00B585B0C4
:103AD000019300920A460146002302A8FFF7FCFD6D
:103AE00002A807C805B000BDFFB50A461F4685B04D
:103AF0000799019301230091014602A8FFF7ECFD0D
:103B000002990398049ECA0F4900D20700920F221F
:103B1000490892028C1A0021002800DB0C4645005F
:103B200013486D08844214D3079A002A04DA441E0D
:103B30000026104DF64302E004460D460E461021C5
:103B400008460020C046002F03D00421084600206C
:103B5000C0462005E90A0843009908436905F20AAE
:103B60001143ADE602C0FFFF013C0000FF3F000033
:103B7000FF070000FFFFFF7F00B585B001930092B3
:103B80000A460146002302A8FFF79CFE02A807C8C8
:103B9000A8E7FFB50A461F4685B0079901930123A0
:103BA0000091014602A8FFF78DFE02990398049E3A
:103BB000CA0F4900D20700920F22490892028C1ABC
:103BC0000021002800DB0C46450011486D088442A6
:103BD00014D3079A002A04DA441E00260D4DF6433A
:103BE00002E004460D460E46102108460020C0465D
:103BF000002F03D0042108460020C0462005E90A12
:103C00000843009908436905F20A114358E6000089
:103C1000FF070000FFFFFF7F70B505460C460A2036
:103C200000E06D1C00F08DF8002D06D028780028EB
:103C3000F7D102E0641C00F084F8002C02D0207858
:103C40000028F7D10A2000F07CF870BD10B50146BD
:103C500002A0FFF7E1FF012010BD000053494752C9
:103C6000545245443A2052656469726563743A203F
:103C700063616E2774206F70656E3A20000000004B
:103C800010B5012805D0002103A0FFF7C5FF0120D2
:103C900010BD09A1F8E7000053494752544D454D66
:103CA0003A204F7574206F662068656170206D65DD
:103CB0006D6F7279000000003A2048656170206DD8
:103CC000656D6F727920636F7272757074656400D0
:103CD00010B500200249029A00F004F810BD00005F
:103CE0000000F87F10B50C461107090F092904D010
:103CF0000A290AD008290CD104E011460820FFF750
:103D0000A1FB06E0510606D501E0510601D50120D0
:103D1000C007214610BDD10607D501010909CC080D
:103D20004907000E0006044309E0410F200249073D
:103D3000000A0143200E00061D22D141014308461E
:103D4000E7E708B5694608700320ABBE08BD10B5AB
:103D5000C046C04601F04EFE10BD0021C160704754
:103D600000B587B01021684601F0AAFD07B000BD7C
:103D7000F3B50A4D81B0AC680F46A868002807D19A
:103D8000074E21463446C0222046FCF76DFAAE604D
:103D9000019880000019076403B0F0BD00ED00E059
:103DA00000F0FF1F1D48002101601D48826B431574
:103DB0001A4382631C4A1B4850601C4883681C4A93
:103DC00013408360C3681340C3601A4A892010708F
:103DD0001948242242709A220270C278D206D20E6A
:103DE000C2700122027141718179C906FCD48179C6
:103DF0000907890F0229FAD1402141718179090708
:103E0000890F0229FAD181794906FCD51A2101705E
:103E100081790907890F0329FAD17047008104408D
:103E200000800440000001104080044040900440A5
:103E3000FFF8FFFE005006400040064000B5024675
:103E40001106080F00F054F90B49C87100BF0A4869
:103E50000079802108400028F9D01007000F00F0F9
:103E600047F90549C87100BF03480079802108401F
:103E70000028F9D000BD000000A0064010E0017845
:103E8000094AD171401C00BF0749097980221140BD
:103E90000029F9D004490979402211400029F3D0C2
:103EA00001780029EBD1704700A0064000BF0B4904
:103EB00009680B4A12689142F9D0094909680878E3
:103EC00007490968491C064A116011460A680549F4
:103ED0008A4202D30A39024A11607047ECF0FF1F90
:103EE000F0F0FF1FDAF1FF1F044800680449096879
:103EF000884201D1002070470120FCE7ECF0FF1F51
:103F0000F0F0FF1F70B500243F4800780546602898
:103F100063DC442D06D04E2D1CD0512D32D0562DB1
:103F200058D147E038484078452811D13648807844
:103F300042280DD135480078032809D102203449A0
:103F4000087034A000F0A2F800203649087000E0A4
:103F5000012441E02C4840784F2811D12A4880782C
:103F600052280DD129480078032809D10120284979
:103F700008702DA000F08AF800202A49087000E09F
:103F8000012429E020484078552811D11E48807826
:103F900049280DD11D480078032809D100201C496B
:103FA000087025A000F072F800201E49087000E09B
:103FB000012411E003201649087023A000F066F8E0
:103FC00022A000F063F825A000F060F80020154959
:103FD000087001E0012400BF03E000BF012400BF1E
:103FE00000BF012C03D120A000F050F808E0022C03
:103FF00003D120A000F04AF802E000200349087035
:1040000000200249087070BD02F2FF1FFCF0FF1F84
:10401000E8F0FF1F0D0A4D6F64653D44454255476A
:104020000A0000003AF1FF1F0D0A4D6F64653D4E16
:104030004F524D414C0A00000D0A4D6F64653D51D1
:10404000554945540A0000000D0A0000322E312067
:10405000323032312F30392F323100000D0A5365A2
:104060006C656374202000000A0D4572726F722126
:10407000000000000A0D4E6F7420696E2044454216
:104080005547204D6F6465210000000011E0017864
:104090000A4A12681170401C08490968491C074AFD
:1040A000116011460A6806498A4202D32839034A38
:1040B000116001780029EAD170470000F4F0FF1F79
:1040C00002F2FF1F08490968087007490968491C7E
:1040D000054A116011460A6804498A4202D3283908
:1040E000014A116070470000F4F0FF1F02F2FF1F49
:1040F0000146092903DC08463030C0B27047080782
:10410000000F3730FAE7000010B53E488068802481
:10411000A0433C4CA0602046806810242043394CCA
:10412000A0602046806880088000A06020468068EB
:104130006024A043334CA0602046406A04242043FE
:10414000304C60622046406A032420432D4C60625C
:104150002046006A4024A0432A4C20622046406A40
:1041600080242043274C6062002126484030C068EC
:10417000244C4034A4680019224C4034646800196F
:10418000204C4034246800191E4CE46B00191D4C6F
:10419000A46B001981B20846CC0F241861100120CD
:1041A000C003084301461748C16200221548403049
:1041B000C06A144C4034A46A0019124C4034646A3A
:1041C0000019104C4034246A00190E4C4034E46944
:1041D00000190C4C4034A469001982B21046D40F67
:1041E000241862100120C0031043024605480263F0
:1041F0000023406A40242040002800D001231846B4
:1042000010BD000000B00340F3B59BB00E46002087
:104210001A90A14819903F20000618903046FDF7EB
:10422000F3FA04469D4A9E4BFCF74AFF00229D4B41
:1042300007910690FCF751FF02460B460991089042
:10424000964840429849FCF76BFF02460B460B919B
:104250000A900020954901F0A5FE954A954B0D91D5
:104260000C90FDF7ADF90F910E90FCF76FFD1790D4
:104270003046FDF7C9FA904A904B03910290FCF743
:104280002CFF0446FCF762FD059000F0C7F90746D5
:10429000FDF7BAFA099108903046FDF7B5FA884A59
:1042A000884B01910090FCF70BFF0446864A874B30
:1042B000FDF786F9059104903046FDF7A5FA04460E
:1042C000834A844BFCF7FCFE03910290059B049A01
:1042D000FCF726FF07910690099B089AFDF770F9F5
:1042E00000227D4B0B910A90FCF702FF00227B4BD2
:1042F0000D910C90FDF764F90F910E90FCF726FDDF
:10430000169077481590774814901798FDF77CFA27
:104310000B910A901998FDF777FA734A734B059140
:104320000490FDF74DF904460D461698FDF76CFA1A
:1043300022462B4607910690FDF742F90991089015
:104340000B9B0A9AFCF7ECFE0D910C9002F016FE06
:104350000F910E90FCF7FAFC139000201290119030
:104360001090634F62E03846FDF74EFA09910890CD
:104370001898FDF749FA04465B4A5C4BFDF720F9B3
:10438000059104901B98FDF718F903910290059B85
:10439000049AFDF715F907910690099B089AFDF715
:1043A0000FF90D910C90384602F00CFE054613995A
:1043B0001498FDF753FA2946079003F0CFF9044605
:1043C000384600F02BF90546159903F0C7F9214648
:1043D000089003F053FA0990FDF716FA0B910A9032
:1043E0000D9B0C9AFCF779FE0F910E90FCF7AEFC3A
:1043F00011907F21C905119803F086F908D2002198
:10440000119803F003FA03D212970120109012E0E2
:104410003846FDF7F9F9214A5242364B0F910E907A
:10442000FCF74EFE0446FCF791FC0746324938463D
:1044300003F06AF997D3109800282BD01298FDF753
:10444000E3F90446284A294BFCF76AFE0F910E90C7
:10445000FCF77CFC1290199800F0E0F80446FDF798
:10446000D3F90D910C901298FDF7CEF904460B4A42
:104470005242224BFDF7A4F80B910A900D9B0C9A27
:10448000FDF79EF80F910E90FCF760FC1A901A98B9
:104490001DB0F0BD1A48FBE79A993940666666661A
:1044A000661271400080614099F96E40000024401E
:1044B00054E41071732AF93EC05B2041F1E30F40D0
:1044C00027A5A0DB4B085140CDCCCCCC04101F411C
:1044D000454772F90F0F72400000F03F00408F40D7
:1044E000BA6B893E8A8E843FA60A462575029A3F9A
:1044F000CDCCCC3D9999B93F0000E040999903405B
:1045000000008A4270B50646032407E0E100304609
:10451000C840C5B22846FFF791FC641E002CF5DAAE
:1045200001A0FFF7ABFC70BD0D0A0000F0B585B02F
:10453000012000F0A5F82E49098849002D4A515A5A
:1045400040182D49401A84B22C48007800280BD01E
:104550002B48844208DA002028490870294800883E
:10456000401C284908800EE02448007800280AD121
:104570002548844207DD0120204908702148008831
:10458000401C204908801A4800882049884205DAE2
:1045900017480088401C1649088021E01948008807
:1045A000002816DD17480088FDF74CFA012189071D
:1045B0000190FDF753F90746FDF726F9144A154B0C
:1045C00003910290FCF7ACFD0546FCF7BFFB1249D6
:1045D00008600020064908800A49088007490870D9
:1045E0000D480068FDF7EAF980B205B0F0BD0000A3
:1045F00018F1FF1F287B0000C8AF00001AF1FF1F51
:10460000204E00001CF1FF1F50C30000E703000014
:104610009A9999999999B93F20F1FF1F70B504466D
:104620002146204603F09AF80546284670BD000052
:10463000F8B5022000F024F80090FDF703FA0746D1
:104640000B4903F08BF806468F21C905FDF706F9E3
:1046500005460849284603F011F907460649FDF7C3
:10466000FDF80646054903F0FDF804462046F8BD6E
:1046700033335340000033440080CA440000C84133
:1046800010B50446002C04D0012C33D0022C7DD16F
:1046900061E04B48C06B0121C90608434849C86323
:1046A0001E204849086008468068802188434549A3
:1046B00088600846806860218843424988600846CF
:1046C0008068102108433F498860084680680C21B3
:1046D00088433C498860084680688008800088607C
:1046E0000846406A0821884336494862364800F047
:1046F0004FFB10BD3248C06B0121C9060843304949
:10470000C86309202F4908600846806880218843D3
:104710002C49886008468068602188432949886060
:10472000084680681021084326498860084680684A
:104730000C2108432349886008468068800880006F
:1047400088600846406A082108431E4948621F489D
:1047500000F01EFBCDE71A48C06B0121C9060843D3
:104760001749C8631A2017490860084680688021E5
:10477000884314498860084680686021884311494D
:104780008860084680681021084300E016E00D4963
:104790008860084680680C2108430A4988600846FA
:1047A00080688008800088600846406A08210843C5
:1047B00004494862064800F0EBFA9AE7054898E792
:1047C0000080044000B0034000F1FF1F08F1FF1F0C
:1047D00010F1FF1FFFFF000070B504460D462E4686
:1047E00000BF00BF0020205E401C002804D124220E
:1047F00007A117A001F0CAF900BF002E03D0E1689D
:104800006068086002E021696068086000BF70BDF0
:104810006D6265642F5441524745545F4B4C3235AD
:104820005A2F5441524745545F4672656573636120
:104830006C652F5441524745545F4B4C58582F6775
:1048400070696F5F6F626A6563742E6800000000B4
:104850006F626A2D3E70696E20213D202850696E7E
:104860004E616D65294E430070B504460D461646EF
:1048700018212046FCF700F932462946204601F06F
:1048800051F8204670BD000010B5044600BF00BFBF
:1048900000BF00BF00BF0020205E401C002804D1E4
:1048A0002C2207A116A001F071F900BF6069006811
:1048B00061680840002801D0012010BD0020FCE7FD
:1048C0006D6265642F5441524745545F4B4C3235FD
:1048D0005A2F5441524745545F4672656573636170
:1048E0006C652F5441524745545F4B4C58582F67C5
:1048F00070696F5F6F626A6563742E680000000004
:104900006F626A2D3E70696E20213D202850696ECD
:104910004E616D65294E430070B504460068416ADA
:1049200020468847206801220369002120469847D5
:104930000546401C206811D0022203690021204650
:104940009847064620680022036929462046984772
:104950002068816A20468847304670BD816A2046BB
:1049600088470020C04370BD70477047F8B50446C3
:104970001748184D20602868002801D1281D28609C
:104980000146281D0090814204D059221249134843
:1049900001F0FCF8002112482F6810220E468B000F
:1049A000C558A54200D1C650491C521EF7D109482E
:1049B000002F01D0016801E0011D016000988142D3
:1049C00004D059220449054801F0E0F82046F8BD1A
:1049D0006C850000C0F0FF1F10870000FC860000FF
:1049E00084F1FF1F10B50C46001D02F069FA204645
:1049F00010BD000010B509010C18A0690C34002886
:104A000005D1FF22E8320449044801F0BFF8E0680C
:104A100001682046884710BD718700006C87000040
:104A2000FFB581B0184901600021416081601C46DA
:104A30000223102215490C3000F0EEFA05460C3D19
:104A400000260462300144190C34E168104F2046FE
:104A5000002901D0896888470E48761C2760E060ED
:104A6000022EEFD3281D039A029902F057F9281D50
:104A7000E96A02F029F82A460749281D02F014FACB
:104A8000284605B0F0BD0000A08500005B3D000099
:104A9000AD4F000060870000F5490000016889689B
:104AA000084710B50A4604690346011D204602F076
:104AB0009FFA10BD10B50269011D104602F0E2FA1E
:104AC00010BD000010B5044606482060002060605C
:104AD000A060E06000F0A8FE0349206102F0F5FA52
:104AE000204610BDB88500009D4A000010B5044660
:104AF00003482060211D206902F0C4FA204610BD41
:104B0000B885000010B50021FBF760FC10BD000067
:104B100010B51C46029BFFF783FF2146303000F0A2
:104B20006DF804493038016003494163034901636A
:104B300010BD0000CC85000028860000EC85000038
:104B400010B50A4901600A4941630A4901633030DE
:104B500000F076F83038084901600446022310223C
:104B600006490C30FCF7E0F8204610BDCC8500006B
:104B700028860000EC850000A0850000FF7500007D
:104B8000002070470020704700207047F8B50546A8
:104B900000680E460C468F18416A28468847BC427A
:104BA00009D028682178C26A2846641C9047401CB6
:104BB00001D0BC42F5D12868816A28468847A01BED
:104BC000F8BD002070470FB470B504460068416A14
:104BD0002046884706AD6069FBF70BFE2A466069F0
:104BE0000599FBF7D5FB05462068816A2046884772
:104BF000284670BC08BC04B01847000010B584B04B
:104C000000F06AF904460A4820600A486060002003
:104C10006061224608A16846FBF7C2FB07A168460F
:104C2000FBF74AFE6061FFF76DFF204604B010BD40
:104C300038860000748600003A257000772B00004B
:104C400010B5044605482060054860606069FBF7C0
:104C50005DFE204600F052F910BD000038860000CD
:104C60007486000070B50D46044600F03BFD2046FA
:104C7000FFF720FF6561206902F001FA61694118C0
:104C80002046FFF70EFF00F073FD70BDF7B588B04A
:104C900005462E4604A8099902F0A2FC114902908B
:104CA0000A9802F05BFD0446FCF788FE0390344648
:104CB0001834029F204602F0A2FC00BF00BF0194FE
:104CC000002C04D03946019802F08AFC019000BF04
:104CD00030460399FFF7C6FF00BF04A802F08FFC1F
:104CE0000BB0F0BD0024744910B5044640686169FA
:104CF00041182046FFF7D5FE606A1834002805D118
:104D0000FF22E8320449054800F040FFE0680168EE
:104D10002046884710BD0000718700006C870000A6
:104D200010B510490446016000F0DCFC2046FFF796
:104D3000C1FE606A1834002802D081682046884786
:104D4000200001D00021E16000F012FDE0680028A1
:104D500002D081682046884720461838FFF7C6FEF3
:104D600010BD00008486000070B50546024802F0C0
:104D700005FC044600BF70BD4CF1FF1F70B5054631
:104D8000024802F0FBFB044600BF70BD4CF1FF1F60
:104D900070B504462068816820468847201D00F0D1
:104DA0002DFC05462068C16820468847284670BD0E
:104DB00070B504460D46074820602046FFF7D4FF33
:104DC0002946201D00F0B2FB2046FFF7D7FF204602
:104DD00070BD0000988600007047000070B5064660
:104DE0000D46164802F0CAFB15480468002C20D076
:104DF000A06800281AD02A463146FBF7CFFD0028CC
:104E000014D1A068FBF7A8FDA8420FD10B48016898
:104E1000002901D1011D0160001D814204D05922E9
:104E20000849094800F0B2FE204670BD6468002CB5
:104E3000DED1024802F0A2FB002070BD6CF1FF1F22
:104E400068F1FF1F10870000FC86000070B5044663
:104E5000002666600A48A16020600D46227309485A
:104E600002F08CFB002D04D00748016861600460EB
:104E700000E06660034802F081FB204670BD000040
:104E8000B08600006CF1FF1F68F1FF1F10B50446EB
:104E90000E4820600E4802F071FBA06800280FD079
:104EA0000C490868A04202D16068086008E04168C7
:104EB000A14203D008464968A142FBD16168416024
:104EC000034802F05BFB204610BD0000B0860000E6
:104ED0006CF1FF1F68F1FF1F10B5054A04C00022E6
:104EE000FFF7B4FF0349001F01600349416010BD93
:104EF0006C850000C0860000F486000010B5001D1F
:104F0000FFF7C4FF001FFFF731FD10BD10B50446C9
:104F10004068002803D0007BC046012801D0002053
:104F200010BD606810BD10B504464068002803D06D
:104F3000007BC046002801D0002010BD606800281A
:104F4000FBD0001F10BD4068002800D00120704732
:104F500010B54068002804D0007BC046002801D06E
:104F6000002010BD012010BD10B5044600202060B7
:104F7000606008782F280FD1487800280CD04B1C8F
:104F800000211A46236010782F2807D0002807D068
:104F9000521C491C2260F6E7204610BD501C2060C0
:104FA0001846FFF71BFF6060204610BD7047704732
:104FB00010B53038FFF716FD10BD7047F8B5040C7A
:104FC0008BB2264682B25E43104658430D0C370C16
:104FD000360400218019164679416E43370C360499
:104FE0008019264679416E438919F8BD4900CA02E5
:104FF0000243100000D004204A0D01D001221043CA
:10500000044A490D914201D102210843012800D1EF
:1050100005207047FF070000FFB581B01C4617460A
:105020000E0007D0019D02E02846B047ED1920464A
:10503000641EF9D2019805B0F0BD10B50020FDF74F
:1050400055FA10BDF8B504464F1EC800083821189F
:1050500015461E46086849683A4606239A4310D00A
:105060002A463346FCF7ACFA3A46D200083AA3186F
:105070001A687F1E5B68FCF723F806223B469343C1
:10508000EED1022F23D0042F11D0062F2FD12A4684
:105090003346FCF795FAE36AA26AFCF711F82A4650
:1050A0003346FCF78DFA636A226AFCF709F82A4650
:1050B0003346FCF785FAE369A269FCF701F82A4652
:1050C0003346FCF77DFA63692269FBF7F9FF2A464C
:1050D0003346FCF775FAE368A268FBF7F1FF2A464E
:1050E0003346FCF76DFA63682268FBF7E9FFF8BD09
:1050F000002210B5134610460149FCF711F810BD07
:105100000000F03F10B5FBF7DBFF10BD002210B52B
:10511000134610461146FCF703F810BD10B50721E1
:10512000024A00200907FDF7E7F910BD010300005E
:10513000034A10B500201107FDF7DEF910BD00008D
:1051400001FDFFFF38B5012109032848FFF730FEB4
:105150000446274A27490120C04627492748FFF728
:1051600027FE0446224A23490120C0462249091D40
:105170002348FFF71DFE04461D4A1E490120C04674
:10518000204C2046FFF79EFC04461F48206000216B
:105190002046183002F010FA0446183C00BF25469D
:1051A000134A1A4928460120C046012212494831B3
:1051B0001748FFF759FB01220F4944311548FFF703
:1051C00053FB012214491548FFF74EFB4B20C00149
:1051D00000230422082100901148FFF799FC04469F
:1051E000034A10490120C04638BD000000F1FF1FEE
:1051F00000000000D94D00000410000008F1FF1F5E
:1052000010F1FF1F0CF2FF1F84860000214D0000EB
:1052100034F2FF1F4CF2FF1F0430000064F2FF1F46
:105220007CF2FF1F414B000002486A46C008C000E4
:1052300070470000E7F3FF1F30380A2801D2012031
:1052400070470020704710B5C046C04610BD000032
:10525000032801DA0020704781000748002209185E
:105260008039486F4A67002802D0016849680847BA
:105270000020C0437047000084F1FF1F032801DABB
:10528000002070470649800040188038406F002891
:1052900002D00168896908470020C04370470000B8
:1052A00084F1FF1F032801DA0120704706498000BE
:1052B00040188038406F002802D00168C96808474C
:1052C0000020C0437047000084F1FF1FF3B583B096
:1052D00067490398FBF7D2FB4B25664CED0100288C
:1052E00010D065490398FBF7C9FB002819D0634922
:1052F0000398FBF7C3FB002822D0614C20680028EC
:105300002DD02EE02068002808D1042208215D4815
:1053100001F004FD29465B4801F0D6FB002005B0F2
:10532000F0BD2068002808D104220821554801F06A
:10533000F5FC2946534801F0C7FB012005B0F0BD3C
:105340002068002808D1042208214E4801F0E6FC1C
:1053500029464C4801F0B8FB022005B0F0BD201DE5
:105360002060271DB84204D059224749474800F021
:105370000DFC0025464E21686C1EA8003058002800
:1053800003D06D1C102DF8D301E0102D0FD33C4835
:10539000002901D1011D01600068B84204D05922E2
:1053A00039493A4800F0F2FB204605B0F0BD002034
:1053B000C043AC0030513248002901D1011D0160C9
:1053C0000068B84204D059222F49304800F0DEFB73
:1053D000039800783A2811D068460399FFF7C4FD76
:1053E0006846FFF7B0FD00283CD06846FFF7B0FDE7
:1053F0000028684609D0FFF796FD2DE06A4625A1F2
:105400000398FBF715F9009826E0FFF77FFD0700EA
:1054100028D00499880701D5022008E0480701D563
:10542000012004E0080701D5092000E000200A0758
:10543000920F02D0012252021043490702D50121E6
:1054400089020843029068460068C04601463868F1
:10545000029A836838469847002803D03051E81CE8
:1054600005B0F0BD00203051401E05B0F0BD000079
:10547000107B0000C8F0FF1F177B00001F7B00009F
:10548000C0F0FF1FD0F0FF1F10870000FC86000057
:1054900084F1FF1F3A257000032801DA00207047CD
:1054A000064A800080188038406F002803D00268C8
:1054B0001369002218470020C043704784F1FF1F82
:1054C00070B514460E46032819DA154800680028FE
:1054D00009D104220821134801F020FC4B21C90105
:1054E000104801F0F1FA0025002C06D9715D0D4835
:1054F00001F0E6FC6D1CA542F8D320460AE00A49FB
:10550000800040188038406F002805D001680B6883
:1055100031469847201A70BD0020C04370BD00007E
:10552000C8F0FF1FD0F0FF1F84F1FF1F70B50D46BC
:1055300006462549284600F0DDFCC0B23070FF2841
:1055400004D11E22214922A000F020FB2648C16B75
:105550000122D2061143C163826B290B0123093159
:105560008B401A43826336781024B00600D500249D
:105570001E4840684003410F1D48491C0068FBF766
:10558000CDFA1C4900220346D3408B4202D9521C5B
:10559000042AF8D3042A00D10722F1061648C90EBE
:1055A00041605107090E1207920F11439C221143CB
:1055B000816004210C43C4600022026241620249FE
:1055C000284600F0C5FC70BD6C790000BC87000067
:1055D0006F626A2D3E61646320213D20284144436F
:1055E0004E616D65294E43000080044040800440B8
:1055F000D8F0FF1F808D5B0000B003400078C1062B
:105600000448C90E016001680906FCD5006980B232
:105610007047000000B0034010B54EE0FEF746FCB6
:1056200004460D2C05D127A0FEF730FDFEF76AFCDD
:1056300043E0022C02D02046FEF744FD082C0CD19A
:1056400021480078002838D020A0FEF71FFD1E4812
:105650000078401E1C4908702FE01B4800780A287B
:1056600006DB1BA0FEF712FD00201749087024E09E
:105670001A480078002817D119480078022813D05A
:105680001748007844280FD0154800784E280BD0D2
:1056900013480078562807D00B480078002803D01C
:1056A00000200949087008E00D480749097844546A
:1056B00005480078401C04490870FEF715FC0028D6
:1056C000ACD110BD2D3E0000FCF0FF1F20080000F3
:1056D0000D0A546F6F204C6F6E672100E8F0FF1FBA
:1056E00002F2FF1F70B5EFF31080C007C41701204E
:1056F000641C444072B60D4D6868002800D12C70BF
:105700006868401C04D1352209490AA000F03EFA1D
:105710006868002806D0002C04D1392204490FA063
:1057200000F034FA6868401C686070BD5CF1FF1FCF
:10573000F8890000696E746572727570745F656EC9
:1057400061626C655F636F756E746572203C205595
:10575000494E5433325F4D4158000000696E746504
:105760007272757074735F64697361626C656400F2
:1057700010B50E4C6068002816D0EFF31080C007FB
:10578000C0170121401C484004D14A22084909A001
:1057900000F0FCF96068401E60606068002803D17A
:1057A0002078002800D162B610BD00005CF1FF1F18
:1057B000F8890000696E74657272757074735F6445
:1057C000697361626C6564000FB410B503A9029837
:1057D00000F06AFA012000F001F8000004460848D1
:1057E000FBF707F80748FBF704F800F085FA0028F4
:1057F00001D001F0DBF8002C01D000F0F1F9FEE758
:105800001CF3FF1F70F3FF1F10B58A68002A02DC2B
:10581000FCF7BEFB10BD521E8A604A68C0B2531C22
:105820004B60107010BD0000004870470C830000F2
:1058300070B504460020205E0D46401C04D1332282
:1058400009490AA000F0A2F9002D07D0012D04D1CA
:10585000A068016862681143016070BDA0680168BA
:1058600062689143F8E700001C8800006F626A2DAF
:105870003E70696E20213D202850696E4E616D6535
:10588000294E430070B5054601800C46481C14D0D3
:105890000121204600F0C2FA6006C10E01208840B6
:1058A0006860200B054980014018011DE960091D51
:1058B0002961083114306961A86070BD00F00FF8EB
:1058C00070B5022605460C46FFF7DCFF611C07D0C9
:1058D00000212846FFF7ACFF3146284600F052F879
:1058E00070BD000070B50D4604460026FFF7CAFFE4
:1058F0006D1C12D0A05F401C04D124220749084827
:1059000000F044F921696068086001212046FFF732
:105910008FFF3146204600F035F870BD78880000D2
:105920006C590000F8B504460E4600271546FFF7EF
:10593000A9FF761C16D0E05F401C04D124220A493E
:105940000AA000F023F96068002D01D0E16800E0B2
:105950002169086001212046FFF76AFF3946204689
:1059600000F010F8F8BD0000788800006F626A2D22
:105970003E70696E20213D202850696E4E616D6534
:10598000294E430010B502460020105E00F078FA60
:1059900010BD000070B514480168802211430160F9
:1059A000124900228B6840240125002B0BD0104E99
:1059B0000260866002682243026002682A43026035
:1059C0005B1E8B6070BD0B88002B09D0026083606A
:1059D00003682343036003682B4303600A8070BDA0
:1059E00001F040FD70BD000000000440DCF0FF1F2E
:1059F000FFFF000086B0394902A801F0DDFD044632
:105A0000374A21463748FFF741F902A801F0F7FD70
:105A1000FEF77AFB34483549086035490860354857
:105A2000354908603549086035A13A48FFF7CBF899
:105A300039A0FEF723FA3FA0FEF720FA41A0FEF7B7
:105A40001DFA41A0FEF71AFA3EA0FEF717FA01F080
:105A500049FA002541E06D1C00F0AEFFFFF7DCFDC8
:105A600000F04EF942480088C007C00F00280ADD48
:105A7000FEF75CFD3F490860FEF7DAFD0446FBF7E0
:105A80009DFF3D4908603D480078002811D03C4CFE
:105A90002046FEF7F9FE002801D1012000E0002099
:105AA000064631462046FEF797FE00BF00203349E8
:105AB00008703448007800280FD0FEF7B9FD06467C
:105AC000314668468088FEF79FFB0446FBF776FF69
:105AD0002D49086000202B490870BCE7DD700000EC
